:020000040000FA
:06000000DDEF23F0120009
:020006001200E6
:06000800C7EF1FF012001B
:02000E000000F0
:020010000000EE
:0600180049EF1FF0120089
:02001E000A00D6
:100020000C4900005F01000023000000E4480000CC
:100030003701000028000000C9480000E50000006A
:100040001B0000000E000000D201000004000000B0
:1000500068480000000F0000610000003148000007
:100060000001000037000000FD410000D701000042
:100070000100000025480000B50100000C00000050
:1000800012480000A201000013000000F247000027
:080090008201000020000000C5
:08009800E66A74EC1EF0E5526B
:1000A0001200E66A9CEC1EF0E5521200040EE66EA9
:1000B00074EC1EF0E5521200040EE66E9CEC1EF08D
:1000C000E5521200060EE66E74EC1EF0E5521200C8
:1000D000060EE66E9CEC1EF0E5521200010EE66E76
:1000E00074EC1EF0E5521200010EE66E9CEC1EF060
:1000F000E5521200050EE66E74EC1EF0E552120099
:10010000050EE66E9CEC1EF0E5521200070EE66E40
:1001100074EC1EF0E5521200070EE66E9CEC1EF029
:10012000E55212000101010E431903E1445101E1BE
:10013000010C000C0101010E411903E1425101E1E2
:10014000010C000C0101010E3F1903E1405101E1D6
:10015000010C000C0101010E431901E1445116E0AC
:10016000140ED8804355000E445511E243C110F0DF
:1001700044C111F0050E0D6E0E6A43C108F044C172
:1001800009F0B7EC23F00450051001E1010C000C5C
:100190000101010E3F1901E1405116E0140ED88013
:1001A0003F55000E405511E23FC110F040C111F023
:1001B000050E0D6E0E6A3FC108F040C109F0B7ECA4
:1001C00023F00450051001E1010C000C0101010EA7
:1001D000411903E1425101E1010C000C01016F5191
:1001E000010A01E183D0010A01E001D1EB0EE66EC4
:1001F000410EE66EE66AE66A72EC10F0E552E552F0
:10020000E552E55277C110F0116A126A136A77C19C
:10021000E6FF11C0E6FF12C0E6FF13C0E6FF0E0EB8
:10022000E66EE66A4BEC0FF0146E060EE15E1450BB
:10023000D90EE66E410EE66EE66A010EE66E72ECCF
:1002400010F0E552E552E552E55278C110F0116A1E
:10025000126A136A78C1E6FF11C0E6FF12C0E6FF1A
:1002600013C0E6FF0E0EE66E010EE66E4BEC0FF0CD
:10027000146E060EE15E145001013F51401116E16B
:100280004351441113E101010A0E705D000E7159D2
:100290000DE2D60EE66E410EE66E0E0EE66EE66AD4
:1002A00072EC10F0E552E552E552E55253DF0009D9
:1002B0000CE001017729106E640E116E0E6E10C0F5
:1002C00009F0EBEC23F005C077F162DF000906E0EE
:1002D00001017707000E775D01E2776B77DF000998
:1002E00001E185D00101010E6F6F81D0C50EE66E70
:1002F000410EE66EE66AE66A72EC10F0E552E552EF
:10030000E552E55277C110F0116A126A136A77C19B
:10031000E6FF11C0E6FF12C0E6FF13C0E6FF0E0EB7
:10032000E66EE66A4BEC0FF0146E060EE15E1450BA
:10033000D90EE66E410EE66EE66A010EE66E72ECCE
:1003400010F0E552E552E552E55278C110F0116A1D
:10035000126A136A78C1E6FF11C0E6FF12C0E6FF19
:1003600013C0E6FF0E0EE66E010EE66E4BEC0FF0CC
:10037000146E060EE15E145001013F51401117E169
:100380004351441114E101010A0E705D000E7159D0
:100390000EE2D60EE66E410EE66E0E0EE66E010E13
:1003A000E66E72EC10F0E552E552E552E552D2DE0F
:1003B00000090CE001017829106E640E116E0E6EBA
:1003C00010C009F0EBEC23F005C078F1E1DE000984
:1003D00006E001017807000E785D01E2786BF6DE39
:1003E000000905E00101060E5F6F6F6B74DB010E03
:1003F00001017025706F000E7121716F140E0D6E6A
:100400000E6A70C108F071C109F0B7EC23F004C0A6
:1004100070F105C071F1120001016F51010A01E193
:1004200083D0010A01E001D1B30EE66E410EE66E03
:10043000E66AE66A72EC10F0E552E552E552E552E2
:1004400079C110F0116A126A136A79C1E6FF11C00E
:10045000E6FF12C0E6FF13C0E6FF0E0EE66EE66A88
:100460004BEC0FF0146E060EE15E1450A10EE66E1A
:10047000410EE66EE66A010EE66E72EC10F0E55291
:10048000E552E552E5527AC110F0116A126A136A18
:100490007AC1E6FF11C0E6FF12C0E6FF13C0E6FF17
:1004A0000E0EE66E010EE66E4BEC0FF0146E060EAD
:1004B000E15E145001013F51401116E143514411D6
:1004C00013E101010A0E705D000E71590DE2D60EA6
:1004D000E66E410EE66E0E0EE66EE66A72EC10F007
:1004E000E552E552E552E55235DE00090CE0010126
:1004F0007929106E640E116E0E6E10C009F0EBECCF
:1005000023F005C079F144DE000906E00101790716
:10051000000E795D01E2796B59DE000901E185D0B9
:100520000101010E6F6F81D0B30EE66E410EE66ED3
:10053000E66AE66A72EC10F0E552E552E552E552E1
:1005400079C110F0116A126A136A79C1E6FF11C00D
:10055000E6FF12C0E6FF13C0E6FF0E0EE66EE66A87
:100560004BEC0FF0146E060EE15E1450A10EE66E19
:10057000410EE66EE66A010EE66E72EC10F0E55290
:10058000E552E552E5527AC110F0116A126A136A17
:100590007AC1E6FF11C0E6FF12C0E6FF13C0E6FF16
:1005A0000E0EE66E010EE66E4BEC0FF0146E060EAC
:1005B000E15E145001013F51401117E143514411D4
:1005C00014E101010A0E705D000E71590EE2D60EA3
:1005D000E66E410EE66E0E0EE66E010EE66E72ECF3
:1005E00010F0E552E552E552E552B4DD00090CE0A9
:1005F00001017A29106E640E116E0E6E10C009F0A2
:10060000EBEC23F005C07AF1C3DD000906E001013F
:100610007A07000E7A5D01E27A6BD8DD000905E009
:100620000101060E5F6F6F6B56DA010E0101702536
:10063000706F000E7121716F140E0D6E0E6A70C115
:1006400008F071C109F0B7EC23F004C070F105C0E7
:1006500071F1120001016F51010A01E183D0010A19
:1006600001E001D1EB0EE66E410EE66EE66AE66A47
:1006700072EC10F0E552E552E552E5527BC110F004
:10068000116A126A136A7BC1E6FF11C0E6FF12C04D
:10069000E6FF13C0E6FF0E0EE66EE66A4BEC0FF0C7
:1006A000146E060EE15E1450D90EE66E410EE66E33
:1006B000E66A010EE66E72EC10F0E552E552E55284
:1006C000E5527CC110F0116A126A136A7CC1E6FF20
:1006D00011C0E6FF12C0E6FF13C0E6FF0E0EE66E85
:1006E000010EE66E4BEC0FF0146E060EE15E145038
:1006F00001013F51401116E14351441113E1010141
:100700000A0E705D000E71590DE2D60EE66E410EB6
:10071000E66E0E0EE66EE66A72EC10F0E552E552F9
:10072000E552E55217DD00090CE001017B29106E4E
:10073000640E116E0E6E10C009F0EBEC23F005C0D4
:100740007BF126DD000906E001017B07000E7B5DE1
:1007500001E27B6B3BDD000901E185D00101010E67
:100760006F6F81D0C50EE66E410EE66EE66AE66AF0
:1007700072EC10F0E552E552E552E5527BC110F003
:10078000116A126A136A7BC1E6FF11C0E6FF12C04C
:10079000E6FF13C0E6FF0E0EE66EE66A4BEC0FF0C6
:1007A000146E060EE15E1450D90EE66E410EE66E32
:1007B000E66A010EE66E72EC10F0E552E552E55283
:1007C000E5527CC110F0116A126A136A7CC1E6FF1F
:1007D00011C0E6FF12C0E6FF13C0E6FF0E0EE66E84
:1007E000010EE66E4BEC0FF0146E060EE15E145037
:1007F00001013F51401117E14351441114E101013E
:100800000A0E705D000E71590EE2D60EE66E410EB4
:10081000E66E0E0EE66E010EE66E72EC10F0E5521C
:10082000E552E552E55296DC00090CE001017C2915
:10083000106E640E116E0E6E10C009F0EBEC23F01A
:1008400005C07CF1A5DC000906E001017C07000E73
:100850007C5D01E27C6BBADC000905E00101070E5A
:100860005F6F6F6B38D9010E01017025706F000E3C
:100870007121716F140E0D6E0E6A70C108F071C196
:1008800009F0B7EC23F004C070F105C071F112005B
:1008900001016F51010A01E185D0010A01E006D191
:1008A000EB0EE66E410EE66EE66AE66A72EC10F05A
:1008B000E552E552E552E5527DC110F0116A126A27
:1008C000136A7DC1E6FF11C0E6FF12C0E6FF13C048
:1008D000E6FF0E0EE66EE66A4BEC0FF0146E060EA7
:1008E000E15E1450D90EE66E410EE66EE66A010E28
:1008F000E66E72EC10F0E552E552E552E5527EC12B
:1009000010F0116A126A136A7EC1E6FF11C0E6FF99
:1009100012C0E6FF13C0E6FF0E0EE66E010EE66E95
:100920004BEC0FF0146E060EE15E145001013F51C6
:10093000401116E14351441113E101010A0E705DAB
:10094000000E71590DE2D60EE66E410EE66E0E0EE9
:10095000E66EE66A72EC10F0E552E552E552E552B9
:10096000AAEC00F000090CE001017D29106E640E74
:10097000116E0E6E10C009F0EBEC23F005C07DF196
:10098000C8EC00F0000906E001017D07000E7D5D66
:1009900001E27D6B1BDC000901E188D00101010E41
:1009A0006F6F84D0C50EE66E410EE66EE66AE66AAB
:1009B00072EC10F0E552E552E552E5527DC110F0BF
:1009C000116A126A136A7DC1E6FF11C0E6FF12C008
:1009D000E6FF13C0E6FF0E0EE66EE66A4BEC0FF084
:1009E000146E060EE15E1450D90EE66E410EE66EF0
:1009F000E66A010EE66E72EC10F0E552E552E55241
:100A0000E5527EC110F0116A126A136A7EC1E6FFD8
:100A100011C0E6FF12C0E6FF13C0E6FF0E0EE66E41
:100A2000010EE66E4BEC0FF0146E060EE15E1450F4
:100A300001013F51401117E14351441114E10101FB
:100A40000A0E705D000E71590EE2D60EE66E410E72
:100A5000E66E0E0EE66E010EE66E72EC10F0E552DA
:100A6000E552E552E552AAEC00F000090CE0010164
:100A70007E29106E640E116E0E6E10C009F0EBEC44
:100A800023F005C07EF1C8EC00F0000906E001018A
:100A90007E07000E7E5D01E27E6BE6EC00F0000951
:100AA00005E00101070E5F6F6F6B15D8010E0101A4
:100AB0007025706F000E7121716F140E0D6E0E6A2D
:100AC00070C108F071C109F0B7EC23F004C070F1F7
:100AD00005C071F11200EEEC0DF00101726B806B3C
:100AE000816B120001018129106E140E116E0E6EC1
:100AF00010C009F0EBEC23F005C081F101010550B5
:100B000001E180077251040A01E12DD1070A01E1D8
:100B1000E4D0010A01E197D0030A4DE0010A01E0A7
:100B20005BD14CEC00F068EC00F086EC00F0900E2D
:100B3000E66E410EE66EE66A010EE66E72EC10F0AD
:100B4000E552E552E552E55280C110F0116A126A91
:100B5000136A80C1E6FF11C0E6FF12C0E6FF13C0B2
:100B6000E6FF0E0EE66E010EE66E4BEC0FF0146E15
:100B7000060EE15E1450030EE66EE66AE66A11ECBC
:100B80000FF0E552E552E552ABEC11F07FC1E6FF04
:100B90000F0EE66EE66A11EC0FF0E552E552E552F3
:100BA0000101805101E019D1010E726F51EC00F08A
:100BB00074C180F1120056EC00F086EC00F07F0E5C
:100BC000E66E410EE66EE66A010EE66E72EC10F01D
:100BD000E552E552E552E55280C110F0116A126A01
:100BE000136A80C1E6FF11C0E6FF12C0E6FF13C022
:100BF000E6FF0E0EE66E010EE66E4BEC0FF0146E85
:100C0000060EE15E1450030EE66EE66AE66A11EC2B
:100C10000FF0E552E552E552ABEC11F07FC1E6FF73
:100C20000F0EE66EE66A11EC0FF0E552E552E55262
:100C30000101805101E0D1D0020E726F5CEC00F036
:100C400075C180F112006EEC00F08CEC00F062ECEB
:100C500000F06E0EE66E410EE66EE66A010EE66E7E
:100C600072EC10F0E552E552E552E55280C110F009
:100C7000116A126A136A80C1E6FF11C0E6FF12C052
:100C8000E6FF13C0E6FF0E0EE66E010EE66E4BECBD
:100C90000FF0146E060EE15E1450030EE66EE66A67
:100CA000E66A11EC0FF0E552E552E552ABEC11F0BB
:100CB0007FC1E6FF0F0EE66EE66A11EC0FF0E5521B
:100CC000E552E5520101805101E087D0030E726FB9
:100CD00074EC00F076C180F112007AEC00F062EC66
:100CE00000F05D0EE66E410EE66EE66A010EE66EFF
:100CF00072EC10F0E552E552E552E55280C110F079
:100D0000116A126A136A80C1E6FF11C0E6FF12C0C1
:100D1000E6FF13C0E6FF0E0EE66E010EE66E4BEC2C
:100D20000FF0146E060EE15E1450030EE66EE66AD6
:100D3000E66A11EC0FF0E552E552E552ABEC11F02A
:100D40007FC1E6FF0F0EE66EE66A11EC0FF0E5528A
:100D5000E552E5520101805140E1726B80EC00F0F8
:100D600073C180F1120051EC00F074EC00F068ECFB
:100D700000F08CEC00F0010181510C0808E356EC06
:100D800000F07AEC00F04C0EE66E410E07D05CEC01
:100D900000F080EC00F03D0EE66E410EE66E010EB6
:100DA000E66E9DEC10F0E552E552E552030EE66E5C
:100DB000E66AE66A11EC0FF0E552E552E552ABEC5B
:100DC00011F07FC1E6FF0F0EE66EE66A11EC0FF040
:100DD000E552E552E5521200726B120001015F51BB
:100DE0000B0A01E187D2010A01E182D20D0A01E179
:100DF0000CD20E0A01E107D2010A01E102D20E0A69
:100E000001E191D1030A01E121D1010A01E10DD1F2
:100E1000070A01E1F6D0010A01E1E2D0030A65E028
:100E2000010A01E012006051010A1BE0010A38E1E9
:100E30002C0EE66E410EE66EE66A9DEC10F0E55271
:100E4000E552E552020EE66E070EE66E010EE66E04
:100E500011EC0FF0E552E552E552010EE66E0E0E72
:100E600016D01B0EE66E410EE66EE66A9DEC10F0A3
:100E7000E552E552E552E66AE66A010EE66E11ECCD
:100E80000FF0E552E552E552020EE66E070EE66EF1
:100E9000010EE66E11EC0FF0E552E552E55201D07D
:100EA000606B92EC00F0000908E00101602B020E7B
:100EB000605D02E3010E606F0EDEA2EC00F000093F
:100EC00008E001016051000802E3606B02D0600796
:100ED00002DE9AEC00F0000901E10ED2010160513E
:100EE000EA6A610FE96E010EFED16351020A33E036
:100EF000030A0FE0010A4EE10A0EE66E410EE66EAD
:100F0000E66A9DEC10F0E552E552E552030EE66EFE
:100F10000BD0F90EE66E400EE66EE66A9DEC10F020
:100F2000E552E552E552E66AE66A010EE66E11EC1C
:100F30000FF0E552E552E552020EE66E070EE66E40
:100F4000010EE66E11EC0FF0E552E552E552010E8E
:100F5000E66E0E0E16D0E80EE66E400EE66EE66AFF
:100F60009DEC10F0E552E552E552E66AE66A010EA4
:100F7000E66E11EC0FF0E552E552E552020EE66E18
:100F8000070EE66E010EE66E11EC0FF0E552E5522B
:100F9000E55201D0636B92EC00F0000908E001011A
:100FA000632B030E635D02E3020E636F94DDA2EC1C
:100FB00000F0000909E001016351000803E3636BDD
:100FC0005F6B01D0630787DD9AEC00F0000901E157
:100FD00093D101016351EA6A640FE96E010E83D176
:100FE00077C173F178C174F179C175F17AC176F185
:100FF0004E0E7F6F77DDA2EC00F0000901E17CD19D
:1010000010D07BC173F17CC174F17DC175F17EC1DB
:1010100076F1520E7F6F66DDA2EC00F0000901E16F
:101020006BD10101010E5F6F61D1530E7F6F040E12
:10103000726F58DDA2EC00F0000901E15DD1010101
:10104000010E5F6F48DD0101726B12006751010AEA
:1010500025E0010A42E1D60EE66E400EE66EE66A33
:101060009DEC10F0E552E552E552030EE66EE66A9D
:10107000010EE66E11EC0FF0E552E552E552020E5C
:10108000E66E070EE66E010EE66E11EC0FF0E5520D
:10109000E552E552010EE66E0E0E16D0C40EE66E57
:1010A000400EE66EE66A9DEC10F0E552E552E55220
:1010B000E66AE66A010EE66E11EC0FF0E552E552C3
:1010C000E552020EE66E070EE66E010EE66E11ECBC
:1010D0000FF0E552E552E55201D0676B92EC00F05B
:1010E000000908E00101672B020E675D02E3010EB3
:1010F000676FF1DCA2EC00F0000909E00101675123
:10110000000803E3676B5F6B01D06707E4DC9AECD0
:1011100000F0000901E1F0D001016751EA6A680FAF
:10112000E96E010EE0D06A51010A25E0010A42E1B0
:10113000B30EE66E400EE66EE66A9DEC10F0E552E8
:10114000E552E552030EE66EE66A010EE66E11EC1C
:101150000FF0E552E552E552020EE66E070EE66E1E
:10116000010EE66E11EC0FF0E552E552E552010E6C
:10117000E66E0E0E16D0A20EE66E400EE66EE66A23
:101180009DEC10F0E552E552E552E66AE66A010E82
:10119000E66E11EC0FF0E552E552E552020EE66EF6
:1011A000070EE66E010EE66E11EC0FF0E552E55209
:1011B000E55201D06A6B92EC00F0000908E00101F1
:1011C0006A2B020E6A5D02E3010E6A6F84DCA2ECF8
:1011D00000F000090AE001016A51000804E36A6BAB
:1011E000050E5F6F01D06A0776DC9AEC00F000090B
:1011F00001E182D001016A51EA6A6B0FE96E010ECA
:1012000072D0EEEF00F00CEF02F06A51010A25E017
:10121000010A42E1B30EE66E400EE66EE66A9DEC10
:1012200010F0E552E552E552030EE66EE66A010E55
:10123000E66E11EC0FF0E552E552E552020EE66E55
:10124000070EE66E010EE66E11EC0FF0E552E55268
:10125000E552010EE66E0E0E16D0A20EE66E400EA0
:10126000E66EE66A9DEC10F0E552E552E552E66A5C
:10127000E66A010EE66E11EC0FF0E552E552E5521A
:10128000020EE66E070EE66E010EE66E11EC0FF032
:10129000E552E552E55201D06A6B92EC00F000098C
:1012A00009E001016A2B020E6A5D02E3010E6A6F1A
:1012B0006BEC05F0A2EC00F000090BE001016A51B3
:1012C000000804E36A6B050E5F6F01D06A076BECE0
:1012D00005F09AEC00F000090FE001016A51EA6A9A
:1012E0006D0FE96E010EEA22EFCF5FF16BEF05F0B3
:0A12F0002AEF03F048EC04F01200AE
:0612FA00D9CFE6FFE1CFB1
:10130000D9FF040EE126DE6ADD6ADECF10F0DDCF04
:1013100011F0126A136A11AE02D012681368D95024
:10132000FB0FE96EFF0EDA20EA6EEE50105CEE5015
:101330001158EE501258EE5013581DE2020EDB6A9F
:10134000030EDB6A020EDBCF10F0030EDBCF11F0D1
:10135000D890115004E6050E105C000E115806E2FC
:10136000020EDB2A030EEEE3DB2AECD7DF2A010EA6
:10137000CCE3DB2ACAD7040EE15C02E2E16AE55263
:10138000E16EE552E7CFD9FF1200D9CFE6FFE1CFFA
:10139000D9FF040EE126DE6ADD6ADECF10F0DDCF74
:1013A00011F0126A136A11AE02D012681368D95094
:1013B000FB0FE96EFF0EDA20EA6EEE50105CEE5085
:1013C0001158EE501258EE5013581DE2020EDB6A0F
:1013D000030EDB6A020EDBCF10F0030EDBCF11F041
:1013E000D890115004E6EE0E105C000E115806E283
:1013F000020EDB2A030EEEE3DB2AECD7DF2A010E16
:10140000CCE3DB2ACAD7040EE15C02E2E16AE552D2
:10141000E16EE552E7CFD9FF1200D9CFE6FFE1CF69
:10142000D9FF0F0E8116FE0EDB50F00B8112818664
:10143000010EE66EE66AE66AE66AA7DFE552E55265
:10144000E552E5528196010EE66EE66AE66AE66AC4
:101450009CDFE552E552E552E5520F0E8116FE0E75
:10146000DB38F00B81128186010EE66EE66AE66AD1
:10147000E66A8BDFE552E552E552E5528196010EB0
:10148000E66EE66AE66AE66A80DFE552E552E55214
:10149000E552E552E7CFD9FF1200D9CFE6FFE1CF01
:1014A000D9FFE652936A190EE66EE66AE66AE66AC4
:1014B0006CDFE552E552E552E5520F0E8116F80E4B
:1014C00081160F0E8116300E81128186010EE66E96
:1014D000E66AE66AE66A59DFE552E552E552E55208
:1014E0008196010EE66EE66AE66AE66A4EDFE5522E
:1014F000E552E552E5520F0E8116300E81128186BB
:10150000010EE66EE66AE66AE66A3FDFE552E552FC
:10151000E552E5528196010EE66EE66AE66AE66AF3
:1015200034DFE552E552E552E5520F0E8116300EDA
:1015300081128186010EE66EE66AE66AE66A25DFBA
:10154000E552E552E552E5528196010EE66EE66AF5
:10155000E66AE66A1ADFE552E552E552E5520F0EF9
:101560008116818A8186010EE66EE66AE66AE66A7F
:101570000CDFE552E552E552E5528196010EE66E2A
:10158000E66AE66AE66A01DFE552E552E552E552AF
:10159000280EE66E42DFE5520C0EE66E3EDFE552A7
:1015A000E552E552E7CFD9FF1200D9CFE6FFE1CFF0
:1015B000D9FF020EE126DF6A010EDB6A81940F0E6D
:1015C000E66EE66AE66AE66A98DEE552E552E552BC
:1015D000E5520F0E81128186E66EE66AE66AE66AD9
:1015E0008CDEE552E552E552E5520F0E8114E76EAE
:1015F000010EE7CFDBFF81960F0EE66EE66AE66A24
:10160000E66A7BDEE552E552E552E5520F0E8112A5
:101610008186E66EE66AE66AE66A6FDEE552E552C4
:10162000E552E5520F0E8114DF6E010EDB50DF1222
:101630008196010EE66EE66AE66AE66A5EDEE552CD
:10164000E552E552E552DF50106E020EE15C02E217
:10165000E16AE552E16E1050E552E7CFD9FF120082
:10166000D9CFE6FFE1CFD9FFE652DF6A9EDFDF6E1A
:10167000DFBEFCD7DF50E552E552E7CFD9FF1200BD
:10168000D9CFE6FFE1CFD9FF0F0E8116FE0EDB505A
:1016900081128186050EE66EE66AE66AE66A2DDE4E
:1016A000E552E552E552E5528196050EE66EE66A90
:1016B000E66AE66A22DEE552E552E552E552E55277
:1016C000E7CFD9FF1200D9CFE6FFE1CFD9FF819450
:1016D000050EE66EE66AE66AE66A0FDEE552E55258
:1016E000E552E552FE0EDBCFE6FFCADFE552FE0E05
:1016F000DB38F00BE66EC4DFE552E552E7CFD9FFE9
:101700001200D9CFE6FFE1CFD9FF8184050EE66E46
:10171000E66AE66AE66AF1DDE552E552E552E5522F
:10172000FE0EDBCFE6FFACDFE552FE0EDB38F00B42
:10173000E66EA6DFE5528194E552E7CFD9FF1200AD
:10174000D9CFE6FFE1CFD9FFFE0EDBCFE6FFD9DF31
:10175000E552E552E7CFD9FF1200D9CFE6FFE1CF3E
:10176000D9FFFE0EDBCFE6FFCCDFE552E552E7CF37
:10177000D9FF1200D9CFE6FFE1CFD9FFFD0EDBCFB5
:10178000F6FFFE0EDBCFF7FF0800F5500FE0FD0E71
:10179000DBCFF6FFDB2AFE0EDBCFF7FF01E3DB2A10
:1017A0000800F550E66ED9DFE552E8D7E552E7CFFD
:1017B000D9FF1200D9CFE6FFE1CFD9FFE652FD0EE7
:1017C000DB500F0B106EFE0EDB50010B400DF35083
:1017D0001024DF6E7F0EDF14800FDF6EDFCFE6FF99
:1017E00072DFE552E552E552E7CFD9FF1200010E54
:1017F000E66E69DFE552E66AE66ADCDFE552E5524D
:101800001200D9CFE6FFE1CFD9FF050EE126010E88
:10181000F36EDB6E020EDB6A030EDB6A040EDB6A1C
:10182000DF6ADFCF10F0116A10BE1168FB0EDBCF4C
:1018300012F0FC0EDBCF13F011501318E8AE02D0FB
:10184000133404D01250105C135011582DE2FD0EC9
:10185000DBCF10F0FE0EDBCF11F0126A136A11AE6F
:1018600002D012681368D950010FE96EDACFEAFF8F
:1018700010C00BF011C00CF012C00DF013C00EF030
:10188000EECF06F0EECF07F0EECF08F0EFCF09F085
:1018900022EC23F005C0EDFF04C0EDFF03C0EDFF17
:1018A00002C0EFFFDF2ABDD7010EDBCF10F0020E22
:1018B000DBCF11F0030EDBCF12F0040EDBCF13F001
:1018C00010C006F011C007F012C008F013C009F0F4
:1018D000050EE15C02E2E16AE552E16EE552E7CF16
:1018E000D9FF1200D9CFE6FFE1CFD9FF020EE126E2
:1018F000DF6AFB0EDBCF10F0FC0EDBCF11F0FD0E2C
:10190000DBCF12F0FE0EDBCF13F0105011101210CF
:10191000131005E1300EE66E20DFE552F4D0D95009
:10192000FB0FE96EFF0EDA20EA6ED890030EEB5043
:10193000000A08E6000EEE5C000EEE58000EEE58AF
:10194000000EEE5815E22D0EE66E07DFE552D95077
:10195000FB0FE96EFF0EDA20EA6E000EEE6CEF1E52
:10196000EE22EF1EEE22EF1EEF22ED52ED52ED526F
:10197000DE52070EDD6E010EDBCF10F0000EE76EBB
:101980001018E8AE02D0103403D0E750D8801054BD
:1019900001E3B9D0010EDB04146E156A14BE15689C
:1019A00014C0E6FF15C0E6FF0A0EE66EE66A29DF00
:1019B000E552E552E552E55206C010F007C011F0BD
:1019C00008C012F009C013F006C00BF007C00CF0FD
:1019D00008C00DF009C00EF0FB0EDBCF06F0FC0EC8
:1019E000DBCF07F0FD0EDBCF08F0FE0EDBCF09F0FA
:1019F0005AEC23F0065007100810091041E0010EC0
:101A0000DF6EDB04186E196A18BE196818C0E6FF8D
:101A100019C0E6FF0A0EE66EE66AF3DEE552E5520D
:101A2000E552E55206C014F007C015F008C016F0E4
:101A300009C017F006C00BF007C00CF008C00DF08D
:101A400009C00EF0FB0EDBCF06F0FC0EDBCF07F07B
:101A5000FD0EDBCF08F0FE0EDBCF09F05AEC23F0D1
:101A600006C010F007C011F008C012F009C013F052
:101A7000300E1026000E112212221322105003D015
:101A8000DF5004E0300EE66E68DEE552010EDB0446
:101A9000146E156A14BE156814C0E6FF15C0E6FF83
:101AA0000A0EE66EE66AADDEE552E552E552E55213
:101AB00006C010F007C011F008C012F009C013F002
:101AC000D950FB0FE96EFF0EDA20EA6E06C00BF06C
:101AD00007C00CF008C00DF009C00EF0EECF06F004
:101AE000EECF07F0EECF08F0EFCF09F05AEC23F07D
:101AF00005C0EDFF04C0EDFF03C0EDFF02C0EFFF26
:101B0000010EDB0638D7020EE15C02E2E16AE55223
:101B1000E16EE552E7CFD9FF1200D9CFE6FFE1CF62
:101B2000D9FFFD0EDBCFE6FFFE0EDBCFE6FF42DE88
:101B3000E552E552D950F90FE96EFF0EDA20EA6E50
:101B4000EECFE6FFEECFE6FFEECFE6FFEFCFE6FF0C
:101B5000C9DEE552E552E552E552E552E7CFD9FF3D
:101B60001200D9CFE6FFE1CFD9FFFD0EDBCFE6FFB4
:101B7000FE0EDBCFE6FF1EDEE552E552FB0EDBCFAD
:101B8000E6FFFC0EDBCFE6FFF5DDE552E552E55260
:101B9000E7CFD9FF1200D9CFE6FFE1CFD9FF7BCF46
:101BA00010F07CCF11F0040ED89010361136E806F4
:101BB000FBE1410E10260F0E112210500F017D2562
:101BC000E96E11507E21EA6EFE0EDBCFEFFF7D2B1A
:101BD000000E7E23E552E7CFD9FF1200D9CFE6FFF2
:101BE000E1CFD9FFE652DF6ADFCF10F0100EE76ECB
:101BF0001018E8AE02D0E73402D0E750105C18E2CB
:101C0000DFCFE9FFEA6AE9BEEA68410EE9260F0E76
:101C1000EA22200EEF6EDFCFE9FFEA6AE9BEEA684A
:101C2000510EE9260F0EEA22200EEF6EDF2ADCD7D6
:101C3000E552E552E7CFD9FF1200D9CFE6FFE1CF59
:101C4000D9FFE6520F014051030A52E0010A36E083
:101C5000030A1AE0010A67E1E66AE66AABDDE552CB
:101C6000E552DF6A080EDF5C0CE2DF50EA6A410FE2
:101C7000E96E0F0EEA22EF50E66E6FDDE552DF2AC5
:101C8000F1D70F01010E32D0080EE66EE66A92DD42
:101C9000E552E552DF6A080EDF5C0DE2080EDF2434
:101CA000EA6A410FE96E0F0EEA22EF50E66E55DD4B
:101CB000E552DF2AF0D70F01020E18D0E66A010EB6
:101CC000E66E78DDE552E552DF6A080EDF5C0CE275
:101CD000DF50EA6A510FE96E0F0EEA22EF50E66E0E
:101CE0003CDDE552DF2AF1D70F01030E406F1CD017
:101CF000080EE66E010EE66E5DDDE552E552DF6A26
:101D0000080EDF5C0DE2080EDF24EA6A510FE96E6F
:101D10000F0EEA22EF50E66E20DDE552DF2AF0D703
:101D20000F01406B01D0406BE552E552E7CFD9FF80
:101D30001200D9CFE6FFE1CFD9FFE6520F014051A3
:101D4000010A1BE0010A32E1E66AE66A33DDE55288
:101D5000E552DF6A100EDF5C0CE2DF50EA6A410FE9
:101D6000E96E0F0EEA22EF50E66EF7DCE552DF2A4D
:101D7000F1D70F01010E406F1AD0E66A010EE66E30
:101D800019DDE552E552DF6A100EDF5C0CE2DF5030
:101D9000EA6A510FE96E0F0EEA22EF50E66EDDDCC3
:101DA000E552DF2AF1D70F01406B01D0406BE552BD
:101DB000E552E7CFD9FF1200D9CFE6FFE1CFD9FF37
:101DC000E652E66AE66AF6DCE552E552DF6A100E94
:101DD000DF5C0CE2DF50EA6A410FE96E0F0EEA2287
:101DE000EF50E66EBADCE552DF2AF1D7E66A010E63
:101DF000E66EE0DCE552E552DF6A100EDF5C0CE2D5
:101E0000DF50EA6A510FE96E0F0EEA22EF50E66EDC
:101E1000A4DCE552DF2AF1D7E552E552E7CFD9FF3E
:101E20001200D9CFE6FFE1CFD9FFFE0EDB50010B48
:101E30000F017B6F7C6BFD0EDB500F0B7D6F7E6B9C
:101E4000FC0EDB500A0802E1610E05D0FC0EDB50EF
:101E50000D0805E1640EF36EFC0EF3CFDBFF7BCFC4
:101E600010F07CCF11F0040ED89010361136E80631
:101E7000FBE1410E10260F0E112210500F017D259F
:101E8000E96E11507E21EA6EFC0EDBCFEFFFE552CA
:101E9000E7CFD9FF1200D9CFE6FFE1CFD9FF020E7D
:101EA000E126DF6AFE0EDB50010B0F017B6F7C6BBE
:101EB000FD0EDB500F0B7D6F7E6BF90EDBCF10F04C
:101EC000FA0EDBCF11F0FB0EDBCF12F0FC0EDBCFF6
:101ED00013F0105011101210131005E1300EE66EC1
:101EE0005ADEE552F5D0D950F90FE96EFF0EDA202F
:101EF000EA6ED890030EEB50000A08E6000EEE5C86
:101F0000000EEE58000EEE58000EEE5815E22D0EA3
:101F1000E66E41DEE552D950F90FE96EFF0EDA2088
:101F2000EA6E000EEE6CEF1EEE22EF1EEE22EF1EAA
:101F3000EF22ED52ED52ED52DE52070EDD6E010E34
:101F4000DBCF10F0000EE76E1018E8AE02D01034B0
:101F500003D0E750D880105401E3BAD0010EDB045F
:101F6000146E156A14BE156814C0E6FF15C0E6FFAE
:101F70000A0EE66EE66A45DCE552E552E552E552A8
:101F800006C010F007C011F008C012F009C013F02D
:101F900006C00BF007C00CF008C00DF009C00EF031
:101FA000F90EDBCF06F0FA0EDBCF07F0FB0EDBCF2E
:101FB00008F0FC0EDBCF09F05AEC23F006500710B6
:101FC0000810091041E0010EDF6EDB04186E196A7B
:101FD00018BE196818C0E6FF19C0E6FF0A0EE66EC3
:101FE000E66A0FDCE552E552E552E55206C014F010
:101FF00007C015F008C016F009C017F006C00BF0B6
:1020000007C00CF008C00DF009C00EF0F90EDBCFD0
:1020100006F0FA0EDBCF07F0FB0EDBCF08F0FC0E6C
:10202000DBCF09F05AEC23F006C010F007C011F026
:1020300008C012F009C013F0300E1026000E112255
:1020400012221322105003D0DF5004E0300EE66E4F
:10205000A2DDE552010EDB04146E156A14BE15688C
:1020600014C0E6FF15C0E6FF0A0EE66EE66A01EC54
:102070000CF0E552E552E552E55206C010F007C0FB
:1020800011F008C012F009C013F0D950F90FE96E31
:10209000FF0EDA20EA6E06C00BF007C00CF008C095
:1020A0000DF009C00EF0EECF06F0EECF07F0EECF48
:1020B00008F0EFCF09F05AEC23F005C0EDFF04C0A3
:1020C000EDFF03C0EDFF02C0EFFF010EDB0637D7C7
:1020D000020EE15C02E2E16AE552E16EE552E7CF11
:1020E000D9FF1200D9CFE6FFE1CFD9FFFE0EDB50BA
:1020F000010B0F017B6F7C6BFD0EDB500F0B7D6FB7
:102100007E6BFB0EDBCFF6FFFC0EDBCFF7FF08008C
:10211000F5500FE0FB0EDBCFF6FFDB2AFC0EDBCF2A
:10212000F7FF01E3DB2A0800F550E66E34DDE552E7
:10213000E8D7E552E7CFD9FF1200D9CFE6FFE1CFCC
:10214000D9FF020EE126DE6ADD6AFE0EDB50010BCE
:102150000F017B6F7C6B7D6B7E6BDE6ADD6ADECF91
:1021600010F0DDCF11F0D890115004E6100E105C85
:10217000000E11581EE2FC0EDBCFF6FFFD0EDBCF8A
:10218000F7FF0800F5500CE0FC0EDBCFF6FFDB2A72
:10219000FD0EDBCFF7FF01E3DB2A0800F55001D08D
:1021A000200EE66EF8DCE552DF2A010ED8E3DB2ACA
:1021B000D6D7020EE15C02E2E16AE552E16EE55239
:1021C000E7CFD9FF1200D9CFE6FFE1CFD9FF040E48
:1021D000E126DE6ADD6A020EDB6A030EDB6AFC0EB4
:1021E000DB50080DF350E66ED950020FE96EDACFDE
:1021F000EAFFE552E750EE6EED6A400EE76E020E22
:10220000DBCF10F0030EDBCF11F0E7501012020EFF
:1022100010C0DBFF030E11C0DBFF020EDBCFE6FFB9
:1022200063EC0BF0E552DE6ADD6ADECF10F0DDCF45
:1022300011F0080E105C000E115828E2FD0EDBCFE5
:1022400010F0FE0EDBCF11F0DE501024E96EDD50F1
:102250001120EA6EEF50E66E81EC0BF0E552010EB4
:10226000E76E020EDBCF10F0030EDBCF11F0E7506C
:102270001026000E1122020E10C0DBFF030E11C04B
:10228000DBFFDF2A010ED1E3DB2ACFD7040EE15CAE
:1022900002E2E16AE552E16EE552E7CFD9FF1200B2
:1022A000E66A000EE66E0F0EE66E8DDFE552E55231
:1022B000E552010EE66E080EE66E0F0EE66E83DF47
:1022C000E552E552E552020EE66E100EE66E0F0E76
:1022D000E66E79DFE552E552E552030EE66E180E22
:1022E000E66E0F0EE66E6FDFE552E552E552120024
:1022F0000101320EB66F3B0EB76F170EB86F1200AA
:1023000078EF11F00101B629106E3C0E116E0E6EC1
:1023100010C009F0EBEC23F005C0B6F10101055047
:1023200019E1B729106E3C0E116E0E6E10C009F047
:10233000EBEC23F005C0B7F1010105500BE1B82922
:10234000106E180E116E0E6E10C009F0EBEC23F03B
:1023500005C0B8F112000A0E0101B85D1CE2A00E22
:10236000E66E400EE66E040EE66EE66A72EC10F063
:10237000E552E552E552E552B8C110F0116A126A11
:10238000136AB8C1E6FF11C0E6FF12C0E6FF13C032
:10239000E6FF050E0ED0B8C110F0116A126A136A7A
:1023A000B8C1E6FF11C0E6FF12C0E6FF13C0E6FFAA
:1023B000040EE66EE66A4BEC0FF0146E060EE15E5C
:1023C00014509E0EE66E400EE66E060EE66EE66A4F
:1023D00072EC10F0E552E552E552E5520A0E0101A9
:1023E000B75D1CE2A00EE66E400EE66E070EE66ECE
:1023F000E66A72EC10F0E552E552E552E552B7C1DB
:1024000010F0116A126A136AB7C1E6FF11C0E6FF45
:1024100012C0E6FF13C0E6FF080E0ED0B7C110F0E1
:10242000116A126A136AB7C1E6FF11C0E6FF12C053
:10243000E6FF13C0E6FF070EE66EE66A4BEC0FF010
:10244000146E060EE15E14509E0EE66E400EE66EB1
:10245000090EE66EE66A72EC10F0E552E552E552BE
:10246000E5520A0E0101B65D1CE2A00EE66E400EBA
:10247000E66E0A0EE66EE66A72EC10F0E552E55280
:10248000E552E552B6C110F0116A126A136AB6C17C
:10249000E6FF11C0E6FF12C0E6FF13C0E6FF0B0E19
:1024A0000ED0B6C110F0116A126A136AB6C1E6FF07
:1024B00011C0E6FF12C0E6FF13C0E6FF0A0EE66E8B
:1024C000E66A4BEC0FF0146E060EE15E145012003B
:1024D000D9CFE6FFE1CFD9FF0A0EF36EFE0EDBCFB8
:1024E000F4FFF350F45C1DE2A00EE66E400EE66EC3
:1024F000040EE66EE66A72EC10F0E552E552E55223
:10250000E552FE0EDBCF10F0116A126A136A10C09A
:10251000E6FF11C0E6FF12C0E6FF13C0E6FF050E9E
:102520000FD0FE0EDBCF10F0116A126A136A10C0D2
:10253000E6FF11C0E6FF12C0E6FF13C0E6FF040E7F
:10254000E66EE66A4BEC0FF0146E060EE15E145078
:102550009E0EE66E400EE66E060EE66EE66A72ECC3
:1025600010F0E552E552E552E5520A0EF36EFD0E0B
:10257000DBCFF4FFF350F45C1DE2A00EE66E400EDC
:10258000E66E070EE66EE66A72EC10F0E552E55272
:10259000E552E552FD0EDBCF10F0116A126A136AA4
:1025A00010C0E6FF11C0E6FF12C0E6FF13C0E6FF51
:1025B000080E0FD0FD0EDBCF10F0116A126A136AFD
:1025C00010C0E6FF11C0E6FF12C0E6FF13C0E6FF31
:1025D000070EE66EE66A4BEC0FF0146E060EE15E37
:1025E00014509E0EE66E400EE66E090EE66EE66A2A
:1025F00072EC10F0E552E552E552E5520A0EF36E28
:10260000FC0EDBCFF4FFF350F45C1DE2A00EE66E8F
:10261000400EE66E0A0EE66EE66A72EC10F0E552C7
:10262000E552E552E552FC0EDBCF10F0116A126A5A
:10263000136A10C0E6FF11C0E6FF12C0E6FF13C028
:10264000E6FF0B0E0FD0FC0EDBCF10F0116A126A02
:10265000136A10C0E6FF11C0E6FF12C0E6FF13C008
:10266000E6FF0A0EE66EE66A4BEC0FF0146E060EFD
:10267000E15E1450E552E7CFD9FF12000101B551D8
:10268000060A01E1FBD0030A01E1B2D0010A6AE0C7
:10269000070A21E0010A17E0030A01E0F7D08D0ED6
:1026A000E66E400EE66E010EE66E9DEC10F0E55211
:1026B000E552E55250DEE6EC00F0000901E1E8D019
:1026C0000101020EE4D0B6C1BBF1B7C1BAF1B8C185
:1026D000B9F1030EDCD0BBC1E6FFBAC1E6FFB9C158
:1026E000E6FFF6DEE552E552E552010137513811B9
:1026F00016E139513A1113E101010A0EBF5D000ED6
:10270000C0590DE28A0EE66E400EE66E040EE66ECD
:10271000E66A72EC10F0E552E552E552E552AAEC99
:1027200000F000090CE00101B929106E180E116EBD
:102730000E6E10C009F0EBEC23F005C0B9F1C8EC47
:1027400000F0000907E00101B907B951170802E2DA
:10275000170EB96FE6EC00F0000901E199D0010114
:10276000040E95D0BBC1E6FFBAC1E6FFB9C1E6FFD2
:10277000AFDEE552E552E55201013751381116E15D
:1027800039513A1113E101010A0EBF5D000EC05923
:102790000DE28A0EE66E400EE66E070EE66EE66A03
:1027A00072EC10F0E552E552E552E552AAEC00F069
:1027B00000090CE00101BA29106E3C0E116E0E6E7C
:1027C00010C009F0EBEC23F005C0BAF1C8EC00F042
:1027D000000907E00101BA07BA513B0802E23B0ECB
:1027E000BA6FE6EC00F0000953E00101050E4FD08E
:1027F000BBC1E6FFBAC1E6FFB9C1E6FF69DEE5523B
:10280000E552E55201013751381116E139513A11BB
:1028100013E101010A0EBF5D000EC0590DE28A0EE0
:10282000E66E400EE66E0A0EE66EE66A72EC10F098
:10283000E552E552E552E552AAEC00F000090CE041
:102840000101BB29106E3C0E116E0E6E10C009F016
:10285000EBEC23F005C0BBF1C8EC00F0000907E089
:102860000101BB07BB513B0802E23B0EBB6FE6EC2C
:1028700000F000090DE00101060E09D0BBC1B6F160
:10288000BAC1B7F1B9C1B8F1010E01D0010EB56FEF
:10289000010E0101BF25BF6F000EC021C06F140ED5
:1028A0000D6E0E6ABFC108F0C0C109F0B7EC23F08D
:1028B00004C0BFF105C0C0F112000101B551050A05
:1028C00001E1B1D0010A69E0070A20E0020A01E053
:1028D000F0D08D0EE66E400EE66E010EE66E9DECBB
:1028E00010F0E552E552E552BEC1E6FFBDC1E6FF7C
:1028F000BCC1E6FFEDDDE552E552E552E6EC00F045
:10290000000901E1D8D00101030ED4D0BEC1E6FF19
:10291000BDC1E6FFBCC1E6FFDBDDE552E552E55295
:1029200001013751381116E139513A1113E1010112
:102930000A0EBF5D000EC0590DE28A0EE66E400E13
:10294000E66E040EE66EE66A72EC10F0E552E552B1
:10295000E552E552AAEC00F000090CE00101BC29A7
:10296000106E180E116E0E6E10C009F0EBEC23F015
:1029700005C0BCF1C8EC00F0000907E00101BC078C
:10298000BC51170802E2170EBC6FE6EC00F000091C
:1029900001E191D00101040E8DD0BEC1E6FFBDC1A1
:1029A000E6FFBCC1E6FF94DDE552E552E5520101C8
:1029B0003751381116E139513A1113E101010A0E6C
:1029C000BF5D000EC0590DE28A0EE66E400EE66E47
:1029D000070EE66EE66A72EC10F0E552E552E5523B
:1029E000E552AAEC00F000090CE00101BD29106ECF
:1029F0003C0E116E0E6E10C009F0EBEC23F005C01A
:102A0000BDF1C8EC00F0000907E00101BD07BD51B0
:102A10003B0802E23B0EBD6FE6EC00F000094BE024
:102A20000101050E47D0BEC1E6FFBDC1E6FFBCC136
:102A3000E6FF4EDDE552E552E5520101375138110E
:102A400016E139513A1113E101010A0EBF5D000E82
:102A5000C0590DE28A0EE66E400EE66E0A0EE66E74
:102A6000E66A72EC10F0E552E552E552E552AAEC46
:102A700000F000090CE00101BE29106E3C0E116E41
:102A80000E6E10C009F0EBEC23F005C0BEF1C8ECEF
:102A900000F0000907E00101BE07BE513B0802E259
:102AA0003B0EBE6FE6EC00F0000905E00101010EEF
:102AB00001D0010EB56F010E0101BF25BF6F000EE1
:102AC000C021C06F140E0D6E0E6ABFC108F0C0C1E8
:102AD00009F0B7EC23F004C0BFF105C0C0F112004B
:102AE0000101010E371901E1385116E0140ED880AA
:102AF0003755000E385511E237C110F038C111F0CA
:102B0000050E0D6E0E6A37C108F038C109F0B7EC3A
:102B100023F00450051001E1010C000C0101010E2D
:102B2000391901E13A5116E0140ED8803955000EDA
:102B30003A5511E239C110F03AC111F0050E0D6E8F
:102B40000E6A39C108F03AC109F0B7EC23F004501D
:102B5000051001E1010C000C0101010E3B1903E11C
:082B60003C5101E1010C000CE5
:082B68000F0E946E826812004A
:102B7000070E9410946EDF0E9414946E8268120007
:102B8000D9CFE6FFE1CFD9FF040EE126DE6ADD6A88
:102B9000DECF10F0DDCF11F0D890115004E6040E16
:102BA000105C000E115801E390D0DECFE9FFDDCFBD
:102BB000EAFF570EE926010EEA22EF1C826E020E92
:102BC000DB6A030EDB6A020EDBCF10F0030EDBCFF5
:102BD00011F0D890115004E6040E105C000E11584C
:102BE0006EE2020EDBCFE9FF030EDBCFEAFF5B0EE6
:102BF000E926010EEA22EF5082143FE1DECF14F005
:102C0000DDCF15F0D89014361536D8901436153619
:102C1000020EDB501424E96E030EDB501520EA6E21
:102C2000D890E936EA36370EE926010EEA22EECFD1
:102C300012F0EFCF13F0010E1226000E1322DECF9A
:102C400010F0DDCF11F0D89010361136D890103634
:102C50001136020EDB501024E96E030EDB501120FA
:102C6000EA6ED890E936EA36370EE926010EEA22F6
:102C700012C0EEFF13C0EDFF1BD0DECF10F0DDCF92
:102C800011F0D89010361136D89010361136020E49
:102C9000DB501024E96E030EDB501120EA6ED89051
:102CA000E936EA36370EE926010EEA22EE6AED6AC7
:102CB000020EDB2A030E01E286D7DB2A84D7DF2A45
:102CC000010E01E265D7DB2A63D7040EE15C02E264
:102CD000E16AE552E16EE552E7CFD9FF1200D9CFA4
:102CE000E6FFE1CFD9FF040EE126DE6ADD6ADECF22
:102CF00010F0DDCF11F0D890115004E6020E105CF8
:102D0000000E115801E391D0DECFE9FFDDCFEAFFDD
:102D1000570EE926010EEA22EF1C8214826E020E83
:102D2000DB6A030EDB6A020EDBCF10F0030EDBCF93
:102D300011F0D890115004E6040E105C000E1158EA
:102D40006EE2020EDBCFE9FF030EDBCFEAFF5B0E84
:102D5000E926010EEA22EF5082143FE1DECF14F0A3
:102D6000DDCF15F0D89014361536D89014361536B8
:102D7000020EDB501424E96E030EDB501520EA6EC0
:102D8000D890E936EA36370EE926010EEA22EECF70
:102D900012F0EFCF13F0010E1226000E1322DECF39
:102DA00010F0DDCF11F0D89010361136D8901036D3
:102DB0001136020EDB501024E96E030EDB50112099
:102DC000EA6ED890E936EA36370EE926010EEA2295
:102DD00012C0EEFF13C0EDFF1BD0DECF10F0DDCF31
:102DE00011F0D89010361136D89010361136020EE8
:102DF000DB501024E96E030EDB501120EA6ED890F0
:102E0000E936EA36370EE926010EEA22EE6AED6A65
:102E1000020EDB2A030E01E286D7DB2A84D7DF2AE3
:102E2000010E01E264D7DB2A62D7040EE15C02E204
:102E3000E16AE552E16EE552E7CFD9FF1200D9CF42
:102E4000E6FFE1CFD9FF040EE126DE6ADD6A020E5D
:102E5000DB6A030EDB6A0101571D8214826E020ECB
:102E6000DB6A030EDB6A020EDBCF10F0030EDBCF52
:102E700011F0D890115004E6040E105C000E1158A9
:102E80006EE2020EDBCFE9FF030EDBCFEAFF5B0E43
:102E9000E926010EEA22EF5082143FE1DECF14F062
:102EA000DDCF15F0D89014361536D8901436153677
:102EB000020EDB501424E96E030EDB501520EA6E7F
:102EC000D890E936EA36370EE926010EEA22EECF2F
:102ED00012F0EFCF13F0010E1226000E1322DECFF8
:102EE00010F0DDCF11F0D89010361136D890103692
:102EF0001136020EDB501024E96E030EDB50112058
:102F0000EA6ED890E936EA36370EE926010EEA2253
:102F100012C0EEFF13C0EDFF1BD0DECF10F0DDCFEF
:102F200011F0D89010361136D89010361136020EA6
:102F3000DB501024E96E030EDB501120EA6ED890AE
:102F4000E936EA36370EE926010EEA22EE6AED6A24
:102F5000020EDB2A030E01E286D7DB2A84D7040E99
:102F6000E15C02E2E16AE552E16EE552E7CFD9FFAA
:102F70001200D9CFE6FFE1CFD9FF040EE126DE6AC9
:102F8000DD6A020EDB6A030EDB6A010EDE6EDD6AAD
:102F9000DECFE9FFDDCFEAFF570EE926010EEA2278
:102FA000EF1C8214826E020EDB6A030EDB6A020ED5
:102FB000DBCF10F0030EDBCF11F0D890115004E6F8
:102FC000030E105C000E11586EE2020EDBCFE9FF1B
:102FD000030EDBCFEAFF5B0EE926010EEA22EF507B
:102FE00082143FE1DECF14F0DDCF15F0D890143617
:102FF0001536D89014361536020EDB501424E96EBF
:10300000030EDB501520EA6ED890E936EA36370E0B
:10301000E926010EEA22EECF12F0EFCF13F0010EF7
:103020001226000E1322DECF10F0DDCF11F0D89063
:1030300010361136D89010361136020EDB5010249F
:10304000E96E030EDB501120EA6ED890E936EA36BD
:10305000370EE926010EEA2212C0EEFF13C0EDFF83
:103060001BD0DECF10F0DDCF11F0D8901036113626
:10307000D89010361136020EDB501024E96E030E84
:10308000DB501120EA6ED890E936EA36370EE92691
:10309000010EEA22EE6AED6A020EDB2A030E01E25D
:1030A00086D7DB2A84D7040EE15C02E2E16AE552AE
:1030B000E16EE552E7CFD9FF1200D9CFE6FFE1CFAD
:1030C000D9FF040EE126DE6ADD6ADECF10F0DDCF27
:1030D00011F0FD0EDBCF12F0FE0EDBCF13F011501E
:1030E0001318E8AE02D0133404D01250105C135001
:1030F00011581DE2020EDB6A030EDB6A020EDBCF03
:1031000010F0030EDBCF11F0D890115004E6EE0E54
:10311000105C000E115806E2020EDB2A030EEEE3ED
:10312000DB2AECD7DF2A010ED0E3DB2ACED7040E50
:10313000E15C02E2E16AE552E16EE552E7CFD9FFD8
:103140001200D9CFE6FFE1CFD9FF040EE126DE6AF7
:10315000DD6ADECF10F0DDCF11F0D890115004E61B
:10316000040E105C000E115875E2DECFE9FFDDCFD2
:10317000EAFF570EE926010EEA22EF1C826E020ECC
:10318000DB6A030EDB6A020EDBCF10F0030EDBCF2F
:1031900011F0D890115004E6040E105C000E115886
:1031A0004AE2DECF10F0DDCF11F0D89010361136A4
:1031B000D89010361136020EDB501024E96E030E43
:1031C000DB501120EA6ED890E936EA36370EE92650
:1031D000010EEA22EE6AED6A020EDBCFE9FF030E72
:1031E000DBCFEAFF5B0EE926010EEA22EF508214E4
:1031F0001CE1DECF10F0DDCF11F0D8901036113683
:10320000D89010361136020EDB501024E96E030EF2
:10321000DB501120EA6ED890E936EA36370EE926FF
:10322000010EEA22010EEE6EED6A020EDB2A030E9B
:10323000AAE3DB2AA8D78250816EE80EE66E030E61
:10324000E66E3BDFE552E552DF2A010E01E281D74F
:10325000DB2A7FD7040EE15C02E2E16AE552E16E0F
:10326000E552E7CFD9FF1200D9CFE6FF040EE126E1
:1032700084B005D00101372B000E382303D00101A3
:10328000376B386B84B204D0392B000E3A2302D04E
:10329000396B3A6B84B404D03B2B000E3C2302D034
:1032A0003B6B3C6B82B004D03D2B000E3E2302D022
:1032B0003D6B3E6B82B204D03F2B000E402302D008
:1032C0003F6B406B82B404D0412B000E422302D0EE
:1032D000416B426B82BA04D0432B000E442302D0D0
:1032E000436B446B81B004D0452B000E462302D0C3
:1032F000456B466B040EE15C02E2E16AE552E16E69
:10330000E552E7CFD9FF1200070E9610966E270EF2
:0C3310009410946E010E9310936E120046
:04331C00D9CFE6FF20
:10332000E1CFD9FFD59EFD0EDBCF82F1FE0EDBCFC4
:1033300083F1D59C13681468156A82C116F083C1A5
:1033400017F0186A1650135C106E17501458116E4F
:1033500018501558126E0C6A010E0D6E0E6A10C0D0
:1033600007F011C008F012C009F05EEC22F0035023
:10337000D66E13681468156A82C116F083C117F0FF
:10338000186A1650135C106E17501458116E1850AE
:103390001558126E0C6A010E0D6E0E6A10C007F001
:1033A00011C008F012C009F05EEC22F007C010F066
:1033B00008C011F009C012F00750D76ED59AD58613
:1033C000F28AF294F184D58EE552E7CFD9FF12004C
:1033D000D59E120013681468156A82C116F083C165
:1033E00017F0186A1650135C106E17501458116EAF
:1033F00018501558126E0C6A010E0D6E0E6A10C030
:1034000007F011C008F012C009F05EEC22F0035082
:10341000D66E13681468156A82C116F083C117F05E
:10342000186A1650135C106E17501458116E18500D
:103430001558126E0C6A010E0D6E0E6A10C007F060
:1034400011C008F012C009F05EEC22F007C010F0C5
:1034500008C011F009C012F00750D76ED58E1200C7
:10346000D9CFE6FFE1CFD9FFCD90FD0EDBCF84F1C0
:10347000FE0EDBCF85F113681468156A84C116F05F
:1034800085C117F0186A1650135C106E1750145847
:10349000116E18501558126E0C6A010E0D6E0E6AE0
:1034A00010C007F011C008F012C009F05EEC22F065
:1034B0000750CF6E13681468156A84C116F085C171
:1034C00017F0186A1650135C106E17501458116ECE
:1034D00018501558126E0C6A010E0D6E0E6A10C04F
:1034E00007F011C008F012C009F05EEC22F003C032
:1034F00010F004C011F005C012F00350CE6E9D8094
:103500009E909F90CD8ECD8CCD98CD9ACD96CD921C
:10351000CD80E552E7CFD9FF120013681468156A11
:1035200084C116F085C117F0186A1650135C106E2E
:1035300017501458116E18501558126E0C6A010E5F
:103540000D6E0E6A10C007F011C008F012C009F02D
:103550005EEC22F00750CF6E13681468156A84C1C0
:1035600016F085C117F0186A1650135C106E1750CC
:103570001458116E18501558126E0C6A010E0D6E0B
:103580000E6A10C007F011C008F012C009F05EEC1E
:1035900022F003C010F004C011F005C012F0035077
:1035A000CE6ECD801200CD901200D9CFE6FFE1CFD4
:1035B000D9FFCA94CC6AFE0EDB500101866F876B7F
:1035C000CB6E9D829E929F92CA90CA92CA84E55207
:1035D000E7CFD9FF120086C1CBFFCA841200CA947C
:1035E0001200D9CFE6FFE1CFD9FFB190FD0EDBCFBE
:1035F00088F1FE0EDBCF89F113681468156A88C163
:1036000016F089C117F0186A1650135C106E175027
:103610001458116E18501558126E0C6A010E0D6E6A
:103620000E6A10C007F011C008F012C009F05EEC7D
:1036300022F00750B36E13681468156A88C116F03B
:1036400089C117F0186A1650135C106E1750145881
:10365000116E18501558126E0C6A010E0D6E0E6A1E
:1036600010C007F011C008F012C009F05EEC22F0A3
:1036700003C010F004C011F005C012F00350B26E88
:10368000A082A192A292B18EB198B19AB192B1806A
:10369000E552E7CFD9FF120013681468156A88C194
:1036A00016F089C117F0186A1650135C106E175087
:1036B0001458116E18501558126E0C6A010E0D6ECA
:1036C0000E6A10C007F011C008F012C009F05EECDD
:1036D00022F00350B26E13681468156A88C116F0A0
:1036E00089C117F0186A1650135C106E17501458E1
:1036F000116E18501558126E0C6A010E0D6E0E6A7E
:1037000010C007F011C008F012C009F05EEC22F002
:1037100007C010F008C011F009C012F00750B36ED6
:10372000B1801200B19012000101922B000E932380
:103730009A51925D9B51935904E3926B936B010EE6
:103740008A6F12000101942B000E95239C51945D09
:103750009D51955904E3946B956B010E8B6F12008C
:103760000101962B000E97239E51965D9F5197590C
:1037700004E3966B976B010E8C6F12000101982B7E
:10378000000E9923A051985DA151995904E3986BBB
:10379000996B010E8D6F1200D9CFE6FFE1CFD9FFF3
:1037A000FD0EDBCF9AF1FE0EDBCF9BF10101926B98
:1037B000936B8A6BE552E7CFD9FF1200D9CFE6FFB2
:1037C000E1CFD9FFFD0EDBCF9CF1FE0EDBCF9DF1EB
:1037D000050E0D6E0E6A9CC108F09DC109F038EC13
:1037E00022F008C09CF109C09DF10101946B956B1A
:1037F0008B6BE552E7CFD9FF1200D9CFE6FFE1CFBF
:10380000D9FFFD0EDBCFA0F1FE0EDBCFA1F10A0E3A
:103810000D6E0E6AA0C108F0A1C109F038EC22F0CB
:1038200008C0A0F109C0A1F10101986B996B8D6BE3
:08383000E552E7CFD9FF1200B9
:08383800D9CFE6FFE1CFD9FF73
:10384000020EE126FE0EDB500F0BDF6EFE0EDB38A4
:103850000F0B0A0D010EF3CFDBFFDB50DF24106EE0
:10386000020EE15C02E2E16AE552E16E1050E552BF
:10387000E7CFD9FF1200D9CFE6FFE1CFD9FF020E83
:10388000E1260A0E106E0E6EFE0EDBCF09F0EBEC99
:1038900023F00550DF6E0A0E106E0E6EFE0EDBCFAB
:1038A00009F0EBEC23F00950100D010EF3CFDBFF14
:1038B000DB50DF24106E020EE15C02E2E16AE552A9
:1038C000E16E1050E552E7CFD9FF1200948694883C
:1038D000C79EC79CC690C692C694C686310EC86E57
:1038E000C68A1200D9CFE6FFE1CFD9FF9E96FE0E21
:1038F000DB50D00FC96E9EA6FED7E552E7CFD9FFA9
:103900001200D9CFE6FFE1CFD9FF9E96FE0EDB5025
:10391000A00FC96E9EA6FED7E552E7CFD9FF1200D1
:103920009E96C5809EA6FED712009E96C5849EA632
:10393000FED71200D9CFE6FFE1CFD9FF9E96FE0E4B
:10394000DB50C96E9EA6FED7E552E7CFD9FF120025
:103950009E96C5869EA6FED7C95012009E96C59A11
:10396000C5889EA6FED712009E96C58AC5889EA6CB
:10397000FED71200D9CFE6FFE1CFD9FFD1DFE66A4B
:10398000B1DFE5520101010ED66FE85004E0C550E9
:10399000400BFAE0F8D7FE0EDBCFE6FFCBDFE552B7
:1039A0000101010ED66FE85004E0C550400BFAE06B
:1039B000F8D7FD0EDBCFE6FF5EDFE552E66EBADF3D
:1039C000E5520101010ED66FE85004E0C550400BEE
:1039D000FAE0F8D7AADFE552E7CFD9FF1200D9CF36
:1039E000E6FFE1CFD9FF9CDFE66A8BDFE5520101FC
:1039F000010ED66FE85004E0C550400BFAE0F8D74E
:103A0000FE0EDBCFE6FF96DFE5520101010ED66F19
:103A1000E85004E0C550400BFAE0F8D7FD0EDBCFCC
:103A200010F0FE0EDBCF11F00001116A1050E66EAF
:103A300081DFE5520101010ED66FE85004E0C55068
:103A4000400BFAE0F8D7FC0EDBCFE6FF73DFE55260
:103A50000101010ED66FE85004E0C550400BFAE0BA
:103A6000F8D763DFE552E7CFD9FF1200D9CFE6FFE1
:103A7000E1CFD9FFE65254DFE66A34DFE5520101B7
:103A8000010ED66FE85004E0C550400BFAE0F8D7BD
:103A9000FE0EDBCFE6FF4EDFE5520101010ED66FD1
:103AA000E85004E0C550400BFAE0F8D739DF010ECA
:103AB000E66E18DFE5520101010ED66FE85004E012
:103AC000C550400BFAE0F8D743DFDF6EDFCFE6FFEB
:103AD000B3DEE552DF6EDF50E552E552E7CFD9FFA6
:103AE0001200D9CFE6FFE1CFD9FFE65219DFE66A2F
:103AF00008DFE5520101010ED66FE85004E0C55021
:103B0000400BFAE0F8D7FE0EDBCFE6FF13DFE552FD
:103B10000101010ED66FE85004E0C550400BFAE0F9
:103B2000F8D7FD0EDBCF10F0FE0EDBCF11F0000159
:103B3000116A1050E66EFEDEE5520101010ED66FED
:103B4000E85004E0C550400BFAE0F8D7E9DE010E7A
:103B5000E66ED7DEE5520101010ED66FE85004E0B3
:103B6000C550400BFAE0F8D7F3DEDF6EDF50E552C8
:083B7000E552E7CFD9FF120076
:083B7800D9CFE6FFE1CFD9FF30
:103B8000020EE126DE6ADD6A7BD8E80EE66E030EE1
:103B9000E66E2FD8E552E55201018D51FDE08D6BA7
:103BA0006FEC16F0DECF10F0DDCF11F0010E102615
:103BB000000E1122140E0D6E0E6A10C008F011C016
:103BC00009F0B7EC23F004C010F005C011F004C0F8
:103BD000DEFF05C0DDFFD9CFE9FFDACFEAFFEE5007
:103BE000ED1002E182EC11F0EEEC06F01DEC0EF0AF
:103BF000D3D7D9CFE6FFE1CFD9FF040EE126DE6AA5
:103C0000DD6ADECF10F0DDCF11F0FD0EDBCF12F05C
:103C1000FE0EDBCF13F011501318E8AE02D01334B0
:103C200004D01250105C135011581DE2020EDB6AD2
:103C3000030EDB6A020EDBCF10F0030EDBCF11F0B8
:103C4000D890115004E6EE0E105C000E115806E2FA
:103C5000020EDB2A030EEEE3DB2AECD7DF2A010E8D
:103C6000D0E3DB2ACED7040EE15C02E2E16AE55242
:103C7000E16EE552E7CFD9FF1200956A836A120020
:103C8000FCDF4DEC0AF0B8EC15F041EC1FF0FFEC56
:103C900020F0F7EC0BF0EEEC0DF0F40EE66E010EFA
:103CA000E66EA7DFE552E552570EE66E120EE66E9F
:103CB0008EEC19F0E552E552660EE66EB70EE66E32
:103CC000F1EC1AF0E552E552020EE66EE66ACCEC33
:103CD0001BF0E552E552320EE66EE66AFDEC1BF093
:103CE000E552E55250EF11F0D9CFE6FFE1CFD9FF11
:103CF000FE0EDBCF11F0800E11141AE1FD0EDBCFAA
:103D000012F0FE0EDBCF13F0133404E2125007085A
:103D1000000E13540DE3FD0EDBCFE9FFFE0EDBCFEB
:103D2000EAFF000EE926010EEA22EF508310836EAF
:103D3000E552E7CFD9FF1200D9CFE6FFE1CFD9FF97
:103D4000FE0EDBCF11F0800E11141AE1FD0EDBCF59
:103D500012F0FE0EDBCF13F0133404E2125007080A
:103D6000000E13540DE3FD0EDBCFE9FFFE0EDBCF9B
:103D7000EAFF000EE926010EEA22EF1C8314836E8F
:103D8000E552E7CFD9FF1200D9CFE6FFE1CFD9FF47
:103D9000FD0EDBCFE9FFFE0EDBCFEAFF080EE926C2
:103DA000010EEA22EF0415E1FD0EDBCFE6FFFE0E69
:103DB000DBCFE6FFC1DFE552E552FD0EDBCFE9FFC9
:103DC000FE0EDBCFEAFF080EE926010EEA22EF6ABB
:103DD00015D0FD0EDBCFE6FFFE0EDBCFE6FF84DF66
:103DE000E552E552FD0EDBCFE9FFFE0EDBCFEAFF29
:103DF000080EE926010EEA22010EEF6EE552E7CF2A
:103E0000D9FF1200D9CFE6FFE1CFD9FF020EE1269C
:103E1000DE6ADD6ADECF10F0DDCF11F0D8901150F0
:103E200004E60E0E105C000E115821E2DECFE6FF14
:103E3000DDCFE6FF59DFE552E552F40EE66E010EE6
:103E4000E66ED7DEE552E552DECFE6FFDDCFE6FFD8
:103E500073DFE552E552F40EE66E010EE66EC9DE42
:103E6000E552E552DF2A010ED5E3DB2AD3D7020E55
:103E7000E15C02E2E16AE552E16EE552E7CFD9FF8B
:023E800012002E
:0E3E8200F28ED08EF28C1200F19CF292F28839
:103E90001200D8CFE4FFE0CFE4FFE46EDACFE4FF16
:103EA000E2CFDAFFE9CFE4FFEACFE4FFF6CFE4FFA9
:103EB000F7CFE4FFF5CFE4FFF3CFE4FFF4CFE4FF67
:103EC000FACFE4FF00EE00F0100EE80403E3EECFBB
:103ED000E4FFFBD700EE10F00A0EE80403E3EECF98
:103EE000E4FFFBD7E652F2A407D0E8EC19F0F29415
:103EF000EAEC19F094EC1BF09EA007D0D3EC1AF07A
:103F00009E908DEC1AF0A2EC1BF09EA207D0EFEC75
:103F10001AF09E92EBEC1AF0B0EC1BF0A1A207D0C5
:103F200092EC1BF0A1924CEC1BF0BEEC1BF0F2B239
:103F3000F2929EAA03D09E9AA6EC21F0E55200EEE2
:103F400019F00A0EE80403E3E5CFEDFFFBD700EE1E
:103F50000FF0100EE80403E3E5CFEDFFFBD7E5CF4C
:103F6000FAFFE5CFF4FFE5CFF3FFE5CFF5FFE5CFAF
:103F7000F7FFE5CFF6FFE5CFEAFFE5CFE9FFE5CFB5
:103F8000DAFFE550E5CFE0FFE5CFD8FF1000DACF4C
:103F9000E4FFE2CFDAFFE9CFE4FFEACFE4FFF6CFB8
:103FA000E4FFF7CFE4FFF5CFE4FFF3CFE4FFF4CF76
:103FB000E4FFFACFE4FF00EE00F0100EE80403E3A4
:103FC000EECFE4FFFBD700EE10F00A0EE80403E3A7
:103FD000EECFE4FFFBD7E652F2A407D0E8EC19F0ED
:103FE000F294EAEC19F094EC1BF09EA007D0D3EC0D
:103FF0001AF09E908DEC1AF0A2EC1BF09EA207D056
:10400000EFEC1AF09E92EBEC1AF0B0EC1BF0A1A2D0
:1040100007D092EC1BF0A1924CEC1BF0BEEC1BF015
:10402000F2B2F2929EAA03D09E9AA6EC21F0E5523B
:1040300000EE19F00A0EE80403E3E5CFEDFFFBD72D
:1040400000EE0FF0100EE80403E3E5CFEDFFFBD721
:10405000E5CFFAFFE5CFF4FFE5CFF3FFE5CFF5FFBE
:10406000E5CFF7FFE5CFF6FFE5CFEAFFE5CFE9FFC4
:06407000E5CFDAFF1100AC
:0A4076004F4B0020202020202020C6
:1040800020202020202020202000202000312E551C
:104090005020322E444E20332E4D4F4445003A00DE
:1040A0003000202020322E5048415345203220201D
:1040B000202000202020312E50484153452031201F
:1040C0002020200020322E5255534820534554546E
:1040D000494E47202000312E4E4F524D414C205327
:1040E000455454494E4720002020332E534C4F57FF
:1040F000204D4F4445202020002020322E52555381
:1041000048204D4F44452020200020312E4E4F5254
:104110004D414C204D4F4445202000202020322E80
:1041200053455454494E472020202000312E444905
:1041300053504C4159204C494748545300202020AB
:10414000202020202020202020202000202020535C
:104150004C4F574C592052554E2120200050484179
:104160005345325F59454C4C4F573A202000504838
:10417000415345325F475245454E3A20202000507A
:1041800048415345315F59454C4C4F573A20200028
:104190005048415345315F475245454E3A20202013
:1041A000005048415345322059454C4C4F573A2016
:1041B00020200050484153453220475245454E206B
:1041C0003A20202000504841534531204752454570
:1041D0004E203A20200020200050484153453120F5
:1041E00059454C4C4F573A202020005048415345E8
:0D41F0003120475245454E203A2020200046
:0141FD0000C1
:0241FE00B06AA5
:10420000810EAF6EAC8AAC94B886AC98AB8EAB889E
:104210009E9A9D8A9F9A949C948E1200D9CFE6FF15
:10422000E1CFD9FF040EE126DE6ADD6ADECF10F0B1
:10423000DDCF11F0FD0EDBCF12F0FE0EDBCF13F061
:1042400011501318E8AE02D0133404D01250105C91
:10425000135011581DE2020EDB6A030EDB6A020ED8
:10426000DBCF10F0030EDBCF11F0D890115004E635
:10427000EE0E105C000E115806E2020EDB2A030E51
:10428000EEE3DB2AECD7DF2A010ED0E3DB2ACED720
:10429000040EE15C02E2E16AE552E16EE552E7CF2D
:1042A000D9FF1200D9CFE6FFE1CFD9FF9EA8FED7F4
:1042B000FE0EDB50AD6E9E98E552E7CFD9FF12009F
:1042C000D9CFE6FFE1CFD9FFFD0EDBCFE9FFFE0E30
:1042D000DBCFEAFFEF5010E0FD0EDBCFE9FFFE0E73
:1042E000DBCFEAFFEF50E66EDDDFE552FD0EDB2AA5
:1042F000FE0EEAE3DB2AE8D7E552E7CFD9FF12004A
:10430000D9CFE6FFE1CFD9FFFD0EDBCFF6FFFE0EE2
:10431000DBCFF7FF0800F55015E0FD0EDBCFF6FF11
:10432000FE0EDBCFF7FF0800F550E66EBBDFE5526F
:10433000FD0EDBCFF6FFDB2AFE0EDBCFF7FFE4E35B
:10434000DB2AE2D7E552E7CFD9FF1200A8EF21F030
:10435000D9CFE6FFE1CFD9FFE652AE50DF6EDFCF17
:10436000E6FF52EC21F0E5520101A451050A2AE0D2
:10437000010A21E0070A11E0010A0AE0020A02E04C
:10438000010A2AE1FF0EDF5C28E1A76B020E22D0B2
:10439000FF0EDF5C15E1030E1DD0A751EA6A810F05
:1043A000E96E000EEA22DFCFEFFFA72BA951A75D30
:1043B00014E3040E0FD0FE0EDF5C02E1050E0AD0FE
:1043C000010E08D0FE0EDF5C04E1010EA56FA46BA8
:1043D00004D0010EA46F01D0A46BE552E552E7CFE3
:1043E000D9FF120012000101A50541E1790EE66E28
:1043F000400EE66EE66AE66A72EC10F0E552E552AF
:10440000E552E5520001806B0101A9510001805D78
:1044100021E28051EA6A810FE96E000EEA22EFCFB5
:1044200010F0116A126A136A10C0E6FF11C0E6FFAD
:1044300012C0E6FF13C0E6FF030E8003F350E66EE2
:10444000E66A4BEC0FF0146E060EE15E14500001AC
:10445000802BDAD7760EE66E400EE66E0E0EE66E16
:10446000E66A72EC10F0E552E552E552E5521200B0
:10447000006A0EAE41EF22F00D6C0E1EE86A0E22AD
:10448000001E09AE49EF22F0086C091EE86A0922F5
:10449000001EB7EC23F009BE59EF22F000AE000C6D
:1044A000086C091EE86A0922046C051EE86A0522E8
:1044B000000C00BE50EF22F00188FF0C006A0EAE27
:1044C00069EF22F00C6C0D1E0E1EE86A0D220E2202
:1044D000001E09AE73EF22F0076C081E091EE86A81
:1044E00008220922001E7EEC23F009BE86EF22F08E
:1044F00000AE000C076C081E091EE86A082209229B
:10450000036C041E051E04220522000C00BE7AEF77
:0645100022F00188FF0CFF
:0A4516001E0EF66E000EF76E000E8A
:10452000F86E01010900F550C66F0900F550C76F1C
:1045300003E1C66701D03DD00900F550C16F090005
:10454000F550C26F0900F550C36F09000900F5501E
:10455000E96E0900F550EA6E090009000900F550FE
:10456000C46F0900F550C56F09000900F6CFC8F106
:10457000F7CFC9F1F8CFCAF1C1C1F6FFC2C1F7FF49
:10458000C3C1F8FF0101C45302E1C55307E00900AC
:10459000F550EE6EC407F8E2C507F9D7C8C1F6FFBB
:1045A000C9C1F7FFCAC1F8FF0101C607000EC75B0A
:0445B000BFD712005F
:0C45B400010E926E0E0EC16EC26A040E63
:1045C000C06EC2801200D9CFE6FFE1CFD9FF020E44
:1045D000E126DE6ADD6AC282C2B2FED7C450DE6E58
:1045E000DD6ADECF12F0DDCF13F0D890123613362D
:1045F000D89012361336060EC3CFE7FF070B04E040
:10460000E742E79EE806FCE1E7501224106E000E38
:10461000132010C0DEFFDD6EDECF61FFDDCF62FF55
:10462000DECF10F0DDCF11F010C0F3FF11C0F4FFAA
:10463000020EE15C02E2E16AE552E16EE552E7CF8B
:04464000D9FF12008C
:0C46440006500B02F3CF02F0F4CF03F09D
:104650000C02F3500326000EF420046E06500D02E7
:10466000F3500426000EF420056E06500E02F3509F
:10467000052607500B02F3500326F4500422000EC7
:10468000052207500C02F3500426F450052207506F
:104690000D02F350052608500B02F3500426F45087
:1046A000052208500C02F350052609500B02F35066
:0446B00005261200C9
:0C46B400056A046A036A026A200EE76EC1
:1046C000D8900636073608360936023603360436E1
:1046D00005360B50025C0C5003580D5004580E5018
:1046E000055809E30B50025E0C50035A0D50045A52
:0C46F0000E50055A062AE72EE4D71200EF
:0446FC00056A046ADD
:10470000036A180EE76ED890073608360936033666
:10471000043605360C50035C0D5004580E500558F5
:1047200007E30C50035E0D50045A0E50055A072A39
:06473000E72EEAD712009B
:0A473600CA94CA90CA829B0ECB6E93
:10474000BD98BD9ABE6ABD9CBD9EBD90BD92BD8404
:10475000BD869494CA841200D9CFE6FFE1CFD9FF79
:0E476000FE0EDB50BE6EE552E7CFD9FF120011
:02476E00056ADA
:10477000046A100EE76ED8900836093604360536FE
:104780000D50045C0E50055805E30D50045E0E50AC
:0A479000055A082AE72EF0D71200A0
:06479A00800EF36E00EE3C
:1047A00000F00F0E01D81200EA6002D0EE6AFCD7CA
:0A47B000F350E9601200EE6AFCD736
:0647BA001EEE00F02EEEE1
:1047C00000F0F86A019C8BEC22F003EC00F0BCECEA
:0647D0001DF0FBD71200F2
:0A47D600056A080EE76ED890093658
:1047E00005360E50055C02E3056E092AE72EF7D761
:0247F0001200B5
:0E47F2000000000000000000000000000000B9
:1048000000000000000000000000010001000100A5
:024810000100A5
:0E48120000000000000000050500000000008E
:05482000000000000093
:0B482500010000000000000000000087
:014830000087
:0F48310001020408102040800000000000000079
:10484000000102034104050642070809432A004506
:1048500044010203040207080903030303040806D2
:084860000805414243FF00007E
:084868000103070F0703010023
:1048700010181C1E1C18100000040E1F0E0400004F
:104880000004081F080400001E1E1E1E1E1E1E001F
:104890001F1F1F1F1F1F1F0000000000000000003F
:1048A0000000000000000000000000000000000008
:1048B00000000000000000000000000000000000F8
:0948C000000000000000000000EF
:0748C900000000D0002222D4
:1048D0002207250910000100000000000000000070
:0448E00000000000D4
:0C48E400000000000000000000000000C8
:1048F00000000000000000000000000000000000B8
:0C490000000000001020408001020408AC
:04490C0000000105A1
:10491000000203040006070008090A0B000000FF5C
:0F49200000000000190314030F030A05580000DC
:020000040030CA
:0100010002FC
:0100020003FA
:010003001EDE
:010005008179
:010006008178
:010008000FE8
:01000900C036
:01000A000FE6
:01000B00E014
:01000C000FE4
:01000D0040B2
:00000001FF
