:020000040000FA
:06000000C7EF20F0120022
:020006001200E6
:0600080092EF1CF0120053
:01000E0000F1
:01000F0000F0
:03001000000000ED
:0600180014EF1CF01200C1
:02001E000800D8
:10002000CE4200005901000028000000B342000049
:10003000E50000001B0000000F000000C5010000EB
:100040000400000052420000000F000061000000A8
:10005000F941000000010000590000000E000000FE
:10006000CA01000001000000E6410000A1010000FB
:1000700013000000C64100008101000020000000C4
:10008000D9CFE6FFE1CFD9FF020EE126DE6ADD6AB5
:1000900076D8E80EE66E030EE66E2AD8E552E552F3
:1000A00001018C51FDE08C6BBFEC14F0DECF10F041
:1000B000DDCF11F0010E1026000E1122140E0D6E70
:1000C0000E6A10C008F011C009F0A1EC20F004C0C5
:1000D00010F005C011F004C0DEFF05C0DDFFDDEC4F
:1000E0001EF085EC04F075EC09F0A9EC10F0D8D7FF
:1000F000D9CFE6FFE1CFD9FF040EE126DE6ADD6A43
:10010000DECF10F0DDCF11F0FD0EDBCF12F0FE0ED2
:10011000DBCF13F011501318E8AE02D0133404D023
:100120001250105C135011581DE2020EDB6A030ED0
:10013000DB6A020EDBCF10F0030EDBCF11F0D8909C
:10014000115004E6EE0E105C000E115806E2020E8D
:10015000DB2A030EEEE3DB2AECD7DF2A010ED0E325
:10016000DB2ACED7040EE15C02E2E16AE552E16EE1
:10017000E552E7CFD9FF1200956A836A1200FCDFCF
:10018000D9EC0CF008EC14F00CEC1CF0B6EC1AF006
:10019000E9EC1DF083EC0EF07AEC10F0F40EE66E54
:1001A000010EE66EA5DFE552E552570EE66E120E21
:1001B000E66EDEEC17F0E552E552660EE66EB70E1F
:1001C000E66E41EC19F0E552E552020EE66EE66A83
:1001D0001CEC1AF0E552E552320EE66EE66A4DEC82
:1001E0001AF0E552E552DCEF13F0D9CFE6FFE1CF8C
:1001F000D9FFFE0EDBCF11F0800E11141AE1FD0EB7
:10020000DBCF12F0FE0EDBCF13F0133404E21250FA
:100210000708000E13540DE3FD0EDBCFE9FFFE0EC1
:10022000DBCFEAFF000EE926010EEA22EF50831031
:10023000836EE552E7CFD9FF1200D9CFE6FFE1CFB9
:10024000D9FFFE0EDBCF11F0800E11141AE1FD0E66
:10025000DBCF12F0FE0EDBCF13F0133404E21250AA
:100260000708000E13540DE3FD0EDBCFE9FFFE0E71
:10027000DBCFEAFF000EE926010EEA22EF1C831411
:10028000836EE552E7CFD9FF1200D9CFE6FFE1CF69
:10029000D9FFFD0EDBCFE9FFFE0EDBCFEAFF080E34
:1002A000E926010EEA22EF0415E1FD0EDBCFE6FFA1
:1002B000FE0EDBCFE6FFC1DFE552E552FD0EDBCFE0
:1002C000E9FFFE0EDBCFEAFF080EE926010EEA2267
:1002D000EF6A15D0FD0EDBCFE6FFFE0EDBCFE6FFAB
:1002E00084DFE552E552FD0EDBCFE9FFFE0EDBCFEA
:1002F000EAFF080EE926010EEA22010EEF6EE55232
:10030000E7CFD9FF1200D9CFE6FFE1CFD9FF020E28
:10031000E126DE6ADD6ADECF10F0DDCF11F0D89085
:10032000115004E60E0E105C000E115821E2DECFD3
:10033000E6FFDDCFE6FF59DFE552E552F40EE66E4B
:10034000010EE66ED5DEE552E552DECFE6FFDDCFEB
:10035000E6FF73DFE552E552F40EE66E010EE66E3F
:10036000C7DEE552E552DF2A010ED5E3DB2AD3D7FB
:10037000020EE15C02E2E16AE552E16EE552E7CF8E
:10038000D9FF120001013451040A01E182D0070AA9
:100390006DE0010A60E0030A25E0FE0A01E01200B8
:1003A000AD0EE66E3B0EE66EE66AE66AFEEC12F015
:1003B000E552E552E552E5529C0EE66E3B0EE66EC6
:1003C000E66A010EE66EFEEC12F0E552E552E552E9
:1003D000E55203D965D900096FE00101356B366B31
:1003E000010E42D08B0EE66E3B0EE66EE66AE66AC2
:1003F000FEEC12F0E552E552E552E5520101362BD2
:10040000BCD8000919E0890EE66E3B0EE66E35C1D8
:10041000E6FF010EE66EFEEC12F0E552E552E55203
:10042000E55201013551EA6ABE0FE96E010EEA227A
:10043000C2C1EFFF352B366B040E0101355D02E3BF
:10044000020E346F640E365D01E3346929D9000968
:1004500033E001012FD0366B30D8000903E00101F1
:10046000030E02D00101040E346F1200362B780EF9
:10047000E66E3B0EE66EE66AE66AFEEC12F0E552C8
:10048000E552E552E552A2D8640E0101365D14E34F
:1004900011D0362B670EE66E3B0EE66EE66AE66A14
:1004A000FEEC12F0E552E552E552E552280E01014C
:1004B000365D02E3346912001200D9CFE6FFE1CFC6
:1004C000D9FF040EE126010EF36E020EF3CFDBFF1F
:1004D000030EDB6ADF6A050EDF5C43E2010EF36E9A
:1004E000020EF3CFDBFF030EDB6A010EDB6A040EA4
:1004F000F36E010EDBCFF4FFF350F45C24E2010E47
:10050000DB50EA6ABE0FE96E010EEA22EFCF10F06F
:10051000DF50040DF3CF11F0F4CF12F0200E1126AE
:10052000010E1222010EDB501124E96E000E122082
:10053000EA6EEF50105C04E0020EDB6A030EDB6A29
:10054000010EDB2AD4D7D950020FE96EDACFEAFFC9
:10055000010EEE1804E1ED5002E1DF2802D0DF2A9F
:10056000BAD7106E040EE15C02E2E16AE552E16E78
:100570001050E552E7CFD9FF1200D9CFE6FFE1CF07
:10058000D9FFE652DF6ADF500F081AE3EA6ADF3468
:10059000FE0BEA36E96E590EE926010EEA220A0E32
:1005A000EE180CE1ED500AE1DF50EA6A100FE96E37
:1005B000010EEA22EFCFC2F1010E03D0DF2AE3D70A
:1005C000000EE552E552E7CFD9FF1200000EE66EAD
:1005D000E66A0BDEE552E5521200000EE66EE66AB0
:1005E0002CDEE552E5521200000EE66EE66AFDDDF5
:1005F000E552E5521200000EE66EE66A1EDEE55296
:10060000E5521200040EE66EE66AEFDDE552E552B1
:100610001200040EE66EE66A10DEE552E5521200A4
:10062000060EE66EE66AE1DDE552E5521200060EC0
:10063000E66EE66A02DEE552E5521200010EE66E53
:10064000E66AD3DDE552E5521200010EE66EE66A77
:10065000F4DDE552E5521200050EE66EE66AC5DDF0
:10066000E552E5521200050EE66EE66AE6DDE55259
:10067000E5521200070EE66EE66AB7DDE552E55276
:100680001200070EE66EE66AD8DDE552E55212006A
:100690000101010E651903E1665101E1010C000C35
:1006A0000101010E631903E1645101E1010C000C29
:1006B0000101010E611903E1625101E1010C000C1D
:1006C00001015829106E140E116E0E6E10C009F043
:1006D000D5EC20F005C058F10101055001E15707A4
:1006E0004A51040A01E1EAD0070A01E1B1D0010A46
:1006F00001E176D0030A3CE0010A01E004D174DF95
:1007000096DFB8DF560EE66E3B0EE66EE66AE66AE8
:10071000FEEC12F0E552E552E552E55257C110F0F9
:10072000116A126A136A57C1E6FF11C0E6FF12C0D0
:10073000E6FF13C0E6FF0E0EE66EE66AD7EC11F098
:10074000146E060EE15E1450030EE66EE66A010EAC
:10075000E66E9DEC11F0E552E552E552010157516C
:1007600001E0D2D0010E4A6F46DF4CC157F11200B2
:1007700049DF80DF450EE66E3B0EE66EE66AE66A0E
:10078000FEEC12F0E552E552E552E55257C110F089
:10079000116A126A136A57C1E6FF11C0E6FF12C060
:1007A000E6FF13C0E6FF0E0EE66EE66AD7EC11F028
:1007B000146E060EE15E1450030EE66EE66A010E3C
:1007C000E66E9DEC11F0E552E552E55201015751FC
:1007D00001E09AD0020E4A6F1CDF4DC157F11200A2
:1007E0002DDF4FDF1DDF340EE66E3B0EE66EE66A50
:1007F000E66AFEEC12F0E552E552E552E55257C1C9
:1008000010F0116A126A136A57C1E6FF11C0E6FFC1
:1008100012C0E6FF13C0E6FF0E0EE66EE66AD7ECE6
:1008200011F0146E060EE15E1450030EE66EE66AD9
:10083000010EE66E9DEC11F0E552E552E552010124
:10084000575162E1030E4A6F00DF4EC157F11200AB
:1008500003DFE6DE230EE66E3B0EE66EE66AE66A30
:10086000FEEC12F0E552E552E552E55257C110F0A8
:10087000116A126A136A57C1E6FF11C0E6FF12C07F
:10088000E6FF13C0E6FF0E0EE66EE66AD7EC11F047
:10089000146E060EE15E1450030EE66EE66A010E5B
:1008A000E66E9DEC11F0E552E552E552010157511B
:1008B0002BE14A6BD8DE4BC157F112009CDEC5DE3E
:1008C000B6DEDFDE010158510C0806E39BDEC4DE14
:1008D000120EE66E3B0E05D09CDEC5DE030EE66E04
:1008E0003B0EE66EE66A29EC13F0E552E552E5525E
:1008F000030EE66EE66A010EE66E9DEC11F0E5521F
:10090000E552E55212004A6B12000101A4050CE108
:10091000A46B0001815108E182C04BF183C04CF10E
:1009200084C04DF185C04EF1040E0101A325106E67
:10093000116A126A136AE66E11C0E6FF12C0E6FF82
:1009400013C0E6FF0F0EE66EE66AD7EC11F0146EE8
:10095000060EE15E145012007AEC10F001014A6BB1
:10096000576B586B12000101010E651901E16651C8
:1009700016E0140ED8806555000E665511E265C16B
:1009800010F066C111F0050E0D6E0E6A65C108F01B
:1009900066C109F0A1EC20F00450051001E1010C42
:1009A000000C0101010E611901E1625116E0140E03
:1009B000D8806155000E625511E261C110F062C12C
:1009C00011F0050E0D6E0E6A61C108F062C109F0EA
:1009D000A1EC20F00450051001E1010C000C010114
:1009E000010E631903E1645101E1010C000C0101E6
:1009F0004751010A01E183D0010A01E001D1F10E62
:100A0000E66E3A0EE66EE66AE66AFEEC12F0E55233
:100A1000E552E552E5524FC110F0116A126A136AAD
:100A20004FC1E6FF11C0E6FF12C0E6FF13C0E6FFAC
:100A30000E0EE66EE66AD7EC11F0146E060EE15E5D
:100A40001450DF0EE66E3A0EE66EE66A010EE66EB2
:100A5000FEEC12F0E552E552E552E55250C110F0BD
:100A6000116A126A136A50C1E6FF11C0E6FF12C094
:100A7000E6FF13C0E6FF0E0EE66E010EE66ED7EC43
:100A800011F0146E060EE15E145001016151621105
:100A900016E16551661113E101010A0E485D000E71
:100AA00049590DE2DC0EE66E3A0EE66E0E0EE66E6B
:100AB000E66AFEEC12F0E552E552E552E55253DFEC
:100AC00000090CE001014F29106E640E116E0E6ECC
:100AD00010C009F0D5EC20F005C04FF162DF00092D
:100AE00006E001014F07000E4F5D01E24F6B77DF1B
:100AF000000901E185D00101010E476F81D0CB0EC5
:100B0000E66E3A0EE66EE66AE66AFEEC12F0E55232
:100B1000E552E552E5524FC110F0116A126A136AAC
:100B20004FC1E6FF11C0E6FF12C0E6FF13C0E6FFAB
:100B30000E0EE66EE66AD7EC11F0146E060EE15E5C
:100B40001450DF0EE66E3A0EE66EE66A010EE66EB1
:100B5000FEEC12F0E552E552E552E55250C110F0BC
:100B6000116A126A136A50C1E6FF11C0E6FF12C093
:100B7000E6FF13C0E6FF0E0EE66E010EE66ED7EC42
:100B800011F0146E060EE15E145001016151621104
:100B900017E16551661114E101010A0E485D000E6E
:100BA00049590EE2DC0EE66E3A0EE66E0E0EE66E69
:100BB000010EE66EFEEC12F0E552E552E552E5520A
:100BC000D2DE00090CE001015029106E640E116E96
:100BD0000E6E10C009F0D5EC20F005C050F1E1DE3A
:100BE000000906E001015007000E505D01E2506B64
:100BF000F6DE000905E00101060E376F476BACDE3B
:100C0000010E01014825486F000E4921496F140E5D
:100C10000D6E0E6A48C108F049C109F0A1EC20F040
:100C200004C048F105C049F1120001014751010A11
:100C300001E183D0010A01E001D1B90EE66E3A0E5E
:100C4000E66EE66AE66AFEEC12F0E552E552E5521F
:100C5000E55251C110F0116A126A136A51C1E6FFE0
:100C600011C0E6FF12C0E6FF13C0E6FF0E0EE66EEF
:100C7000E66AD7EC11F0146E060EE15E1450A70E72
:100C8000E66E3A0EE66EE66A010EE66EFEEC12F0D5
:100C9000E552E552E552E55252C110F0116A126A6E
:100CA000136A52C1E6FF11C0E6FF12C0E6FF13C08F
:100CB000E6FF0E0EE66E010EE66ED7EC11F0146E36
:100CC000060EE15E145001016151621116E1655199
:100CD000661113E101010A0E485D000E49590DE24B
:100CE000DC0EE66E3A0EE66E0E0EE66EE66AFEEC80
:100CF00012F0E552E552E552E55235DE00090CE00E
:100D000001015129106E640E116E0E6E10C009F0B3
:100D1000D5EC20F005C051F144DE000906E00101E8
:100D20005107000E515D01E2516B59DE000901E1EE
:100D300085D00101010E476F81D0B90EE66E3A0EE3
:100D4000E66EE66AE66AFEEC12F0E552E552E5521E
:100D5000E55251C110F0116A126A136A51C1E6FFDF
:100D600011C0E6FF12C0E6FF13C0E6FF0E0EE66EEE
:100D7000E66AD7EC11F0146E060EE15E1450A70E71
:100D8000E66E3A0EE66EE66A010EE66EFEEC12F0D4
:100D9000E552E552E552E55252C110F0116A126A6D
:100DA000136A52C1E6FF11C0E6FF12C0E6FF13C08E
:100DB000E6FF0E0EE66E010EE66ED7EC11F0146E35
:100DC000060EE15E145001016151621117E1655197
:100DD000661114E101010A0E485D000E49590EE248
:100DE000DC0EE66E3A0EE66E0E0EE66E010EE66E56
:100DF000FEEC12F0E552E552E552E552B4DD000991
:100E00000CE001015229106E640E116E0E6E10C0BE
:100E100009F0D5EC20F005C052F1C3DD000906E071
:100E200001015207000E525D01E2526BD8DD00094C
:100E300005E00101060E376F476B8EDD010E0101E3
:100E40004825486F000E4921496F140E0D6E0E6A39
:100E500048C108F049C109F0A1EC20F004C048F1F4
:100E600005C049F1120001014751010A01E183D097
:100E7000010A01E001D1F10EE66E3A0EE66EE66A75
:100E8000E66AFEEC12F0E552E552E552E55253C136
:100E900010F0116A126A136A53C1E6FF11C0E6FF2F
:100EA00012C0E6FF13C0E6FF0E0EE66EE66AD7EC50
:100EB00011F0146E060EE15E1450DF0EE66E3A0E6F
:100EC000E66EE66A010EE66EFEEC12F0E552E552C1
:100ED000E552E55254C110F0116A126A136A54C106
:100EE000E6FF11C0E6FF12C0E6FF13C0E6FF0E0EDC
:100EF000E66E010EE66ED7EC11F0146E060EE15EA2
:100F0000145001016151621116E16551661113E13E
:100F100001010A0E485D000E49590DE2DC0EE66E35
:100F20003A0EE66E0E0EE66EE66AFEEC12F0E55242
:100F3000E552E552E55217DD00090CE001015329A5
:100F4000106E640E116E0E6E10C009F0D5EC20F01C
:100F500005C053F126DD000906E001015307000E2C
:100F6000535D01E2536B3BDD000901E185D00101D6
:100F7000010E476F81D0CB0EE66E3A0EE66EE66A42
:100F8000E66AFEEC12F0E552E552E552E55253C135
:100F900010F0116A126A136A53C1E6FF11C0E6FF2E
:100FA00012C0E6FF13C0E6FF0E0EE66EE66AD7EC4F
:100FB00011F0146E060EE15E1450DF0EE66E3A0E6E
:100FC000E66EE66A010EE66EFEEC12F0E552E552C0
:100FD000E552E55254C110F0116A126A136A54C105
:100FE000E6FF11C0E6FF12C0E6FF13C0E6FF0E0EDB
:100FF000E66E010EE66ED7EC11F0146E060EE15EA1
:10100000145001016151621117E16551661114E13B
:1010100001010A0E485D000E49590EE2DC0EE66E33
:101020003A0EE66E0E0EE66E010EE66EFEEC12F065
:10103000E552E552E552E55296DC00090CE001016B
:101040005429106E640E116E0E6E10C009F0D5ECAE
:1010500020F005C054F1A5DC000906E001015407A9
:10106000000E545D01E2546BBADC000905E0010199
:10107000070E376F476B70DC010E01014825486F82
:10108000000E4921496F140E0D6E0E6A48C108F01A
:1010900049C109F0A1EC20F004C048F105C049F1B4
:1010A000120001014751010A01E185D0010A01E066
:1010B00007D1F10EE66E3A0EE66EE66AE66AFEECDF
:1010C00012F0E552E552E552E55255C110F0116AB1
:1010D000126A136A55C1E6FF11C0E6FF12C0E6FFAF
:1010E00013C0E6FF0E0EE66EE66AD7EC11F0146E42
:1010F000060EE15E1450DF0EE66E3A0EE66EE66A0C
:10110000010EE66EFEEC12F0E552E552E552E552B4
:1011100056C110F0116A126A136A56C1E6FF11C077
:10112000E6FF12C0E6FF13C0E6FF0E0EE66E010EEC
:10113000E66ED7EC11F0146E060EE15E145001015C
:101140006151621116E16551661113E101010A0E48
:10115000485D000E49590DE2DC0EE66E3A0EE66E71
:101160000E0EE66EE66AFEEC12F0E552E552E5522E
:10117000E552B3EC04F000090CE001015529106EB2
:10118000640E116E0E6E10C009F0D5EC20F005C093
:1011900055F1D1EC04F0000906E001015507000EFD
:1011A000555D01E2556B1BDC000901E189D00101AD
:1011B000010E476F85D0CB0EE66E3A0EE66EE66AFC
:1011C000E66AFEEC12F0E552E552E552E55255C1F1
:1011D00010F0116A126A136A55C1E6FF11C0E6FFEA
:1011E00012C0E6FF13C0E6FF0E0EE66EE66AD7EC0D
:1011F00011F0146E060EE15E1450DF0EE66E3A0E2C
:10120000E66EE66A010EE66EFEEC12F0E552E5527D
:10121000E552E55256C110F0116A126A136A56C1BE
:10122000E6FF11C0E6FF12C0E6FF13C0E6FF0E0E98
:10123000E66E010EE66ED7EC11F0146E060EE15E5E
:10124000145001016151621117E16551661114E1F9
:1012500001010A0E485D000E49590EE2DC0EE66EF1
:101260003A0EE66E0E0EE66E010EE66EFEEC12F023
:10127000E552E552E552E552B3EC04F000090CE00A
:1012800001015629106E640E116E0E6E10C009F029
:10129000D5EC20F005C056F1D1EC04F0000906E0D1
:1012A00001015607000E565D01E2566BEFEC04F0AB
:1012B000000906E00101070E376F476BACEC04F044
:1012C000010E01014825486F000E4921496F140E97
:1012D0000D6E0E6A48C108F049C109F0A1EC20F07A
:1012E00004C048F105C049F11200010137510B0A51
:1012F00001E18DD2010A01E188D20D0A01E112D289
:101300000E0A01E10DD2010A01E108D20E0A01E143
:1013100095D1030A01E123D1010A01E10FD1070AA6
:1013200001E1F9D0010A01E1E6D0030A67E0010A10
:1013300001E012003851010A1BE0010A38E1960E63
:10134000E66E3A0EE66EE66A29EC13F0E552E552D7
:10135000E552020EE66E070EE66E010EE66E9DEC9D
:1013600011F0E552E552E552010EE66E0E0E16D072
:10137000850EE66E3A0EE66EE66A29EC13F0E5524B
:10138000E552E552E66AE66A010EE66E9DEC11F062
:10139000E552E552E552020EE66E070EE66E010ECC
:1013A000E66E9DEC11F0E552E552E55201D0386B46
:1013B00048EC03F0000909E00101382B020E385D0A
:1013C00002E3010E386FACEC04F058EC03F00009B6
:1013D00009E001013851000802E3386B03D03807F7
:1013E000ACEC04F050EC03F0000901E111D2010172
:1013F0003851EA6A390FE96E010E02D23B51020AF6
:1014000033E0030A0FE0010A4EE1740EE66E3A0E75
:10141000E66EE66A29EC13F0E552E552E552030E5A
:10142000E66E0BD0630EE66E3A0EE66EE66A29ECC7
:1014300013F0E552E552E552E66AE66A010EE66E01
:101440009DEC11F0E552E552E552020EE66E070EF4
:10145000E66E010EE66E9DEC11F0E552E552E552A6
:10146000010EE66E0E0E16D0520EE66E3A0EE66EC7
:10147000E66A29EC13F0E552E552E552E66AE66ABF
:10148000010EE66E9DEC11F0E552E552E552020EBA
:10149000E66E070EE66E010EE66E9DEC11F0E5526B
:1014A000E552E55201D03B6B48EC03F0000909E03E
:1014B00001013B2B030E3B5D02E3020E3B6FACECE4
:1014C00004F058EC03F000090AE001013B51000868
:1014D00003E33B6B376B01D03B07ACEC04F050EC03
:1014E00003F0000901E194D101013B51EA6A3C0F8C
:1014F000E96E010E85D14FC14BF150C14CF151C184
:101500004DF152C14EF160EC03F058EC03F00009CC
:1015100001E17ED10FD053C14BF154C14CF155C103
:101520004DF156C14EF160EC03F058EC03F00009A8
:1015300001E16ED10101010E376F65D1040E4A6FD2
:1015400060EC03F058EC03F0000901E161D1010106
:10155000010E376FACEC04F001014A6B12003F51F1
:10156000010A25E0010A42E1400EE66E3A0EE66EFF
:10157000E66A29EC13F0E552E552E552030EE66EF9
:10158000E66A010EE66E9DEC11F0E552E552E55279
:10159000020EE66E070EE66E010EE66E9DEC11F091
:1015A000E552E552E552010EE66E0E0E16D02E0EF5
:1015B000E66E3A0EE66EE66A29EC13F0E552E55265
:1015C000E552E66AE66A010EE66E9DEC11F0E55220
:1015D000E552E552020EE66E070EE66E010EE66E6D
:1015E0009DEC11F0E552E552E55201D03F6B48EC1D
:1015F00003F0000909E001013F2B020E3F5D02E309
:10160000010E3F6FACEC04F058EC03F000090AE067
:1016100001013F51000803E33F6B376B01D03F07E7
:10162000ACEC04F050EC03F0000901E1F1D0010151
:101630003F51EA6A400FE96E010EE2D04251010AC1
:1016400025E0010A42E11D0EE66E3A0EE66EE66AFC
:1016500029EC13F0E552E552E552030EE66EE66A18
:10166000010EE66E9DEC11F0E552E552E552020ED8
:10167000E66E070EE66E010EE66E9DEC11F0E55289
:10168000E552E552010EE66E0E0E16D00C0EE66E19
:101690003A0EE66EE66A29EC13F0E552E552E552A1
:1016A000E66AE66A010EE66E9DEC11F0E552E5523F
:1016B000E552020EE66E070EE66E010EE66E9DEC3A
:1016C00011F0E552E552E55201D0426B48EC03F0CF
:1016D000000909E00101422B020E425D02E3010E06
:1016E000426FACEC04F058EC03F000090BE0010190
:1016F0004251000804E3426B050E376F01D04207E8
:10170000ACEC04F050EC03F0000901E181D00101E0
:101710004251EA6A430FE96E010E72D0F7EF04F00E
:1017200015EF06F04251010A25E0010A42E11D0EC3
:10173000E66E3A0EE66EE66A29EC13F0E552E552E3
:10174000E552030EE66EE66A010EE66E9DEC11F0C0
:10175000E552E552E552020EE66E070EE66E010E08
:10176000E66E9DEC11F0E552E552E552010EE66E93
:101770000E0E16D00C0EE66E3A0EE66EE66A29ECF8
:1017800013F0E552E552E552E66AE66A010EE66EAE
:101790009DEC11F0E552E552E552020EE66E070EA1
:1017A000E66E010EE66E9DEC11F0E552E552E55253
:1017B00001D0426B48EC03F0000909E00101422B23
:1017C000020E425D02E3010E426FACEC04F058ECF5
:1017D00003F000090BE001014251000804E3426BF1
:1017E000050E376F01D04207ACEC04F050EC03F06B
:1017F00000090EE001014251EA6A450FE96E010E4F
:10180000EA22EFCF37F1ACEF04F033EF07F049DC19
:021810001200C4
:0E181200D9CFE6FFE1CFD9FF040EE126DE6A52
:10182000DD6ADECF10F0DDCF11F0126A136A11AE5F
:1018300002D012681368D950FB0FE96EFF0EDA2050
:10184000EA6EEE50105CEE501158EE501258EE5009
:1018500013581DE2020EDB6A030EDB6A020EDBCFB9
:1018600010F0030EDBCF11F0D890115004E6050EF6
:10187000105C000E115806E2020EDB2A030EEEE3A6
:10188000DB2AECD7DF2A010ECCE3DB2ACAD7040E11
:10189000E15C02E2E16AE552E16EE552E7CFD9FF91
:1018A0001200D9CFE6FFE1CFD9FF040EE126DE6AB0
:1018B000DD6ADECF10F0DDCF11F0126A136A11AECF
:1018C00002D012681368D950FB0FE96EFF0EDA20C0
:1018D000EA6EEE50105CEE501158EE501258EE5079
:1018E00013581DE2020EDB6A030EDB6A020EDBCF29
:1018F00010F0030EDBCF11F0D890115004E6EE0E7D
:10190000105C000E115806E2020EDB2A030EEEE315
:10191000DB2AECD7DF2A010ECCE3DB2ACAD7040E80
:10192000E15C02E2E16AE552E16EE552E7CFD9FF00
:101930001200D9CFE6FFE1CFD9FF0F0E8116FE0EC0
:10194000DB50F00B81128186010EE66EE66AE66AD4
:10195000E66AA7DFE552E552E552E5528196010EAF
:10196000E66EE66AE66AE66A9CDFE552E552E55213
:10197000E5520F0E8116FE0EDB38F00B81128186C8
:10198000010EE66EE66AE66AE66A8BDFE552E5522C
:10199000E552E5528196010EE66EE66AE66AE66A6F
:1019A00080DFE552E552E552E552E552E7CFD9FF37
:1019B0001200D9CFE6FFE1CFD9FFE652936A190EA4
:1019C000E66EE66AE66AE66A6CDFE552E552E552E3
:1019D000E5520F0E8116F80E81160F0E8116300E8D
:1019E00081128186010EE66EE66AE66AE66A59DFD2
:1019F000E552E552E552E5528196010EE66EE66A41
:101A0000E66AE66A4EDFE552E552E552E5520F0E10
:101A10008116300E81128186010EE66EE66AE66A54
:101A2000E66A3FDFE552E552E552E5528196010E46
:101A3000E66EE66AE66AE66A34DFE552E552E552AA
:101A4000E5520F0E8116300E81128186010EE66E70
:101A5000E66AE66AE66A25DFE552E552E552E552B6
:101A60008196010EE66EE66AE66AE66A1ADFE552DC
:101A7000E552E552E5520F0E8116818A8186010EEC
:101A8000E66EE66AE66AE66A0CDFE552E552E55282
:101A9000E5528196010EE66EE66AE66AE66A01DFC5
:101AA000E552E552E552E552280EE66E42DFE55278
:101AB0000C0EE66E3EDFE552E552E552E7CFD9FF68
:101AC0001200D9CFE6FFE1CFD9FF020EE126DF6A8F
:101AD000010EDB6A81940F0EE66EE66AE66AE66A3C
:101AE00098DEE552E552E552E5520F0E81128186ED
:101AF000E66EE66AE66AE66A8CDEE552E552E55293
:101B0000E5520F0E8114E76E010EE7CFDBFF8196E1
:101B10000F0EE66EE66AE66AE66A7BDEE552E5529D
:101B2000E552E5520F0E81128186E66EE66AE66A9C
:101B3000E66A6FDEE552E552E552E5520F0E81147A
:101B4000DF6E010EDB50DF128196010EE66EE66A53
:101B5000E66AE66A5EDEE552E552E552E552DF509E
:101B6000106E020EE15C02E2E16AE552E16E105095
:101B7000E552E7CFD9FF1200D9CFE6FFE1CFD9FF79
:101B8000E652DF6A9EDFDF6EDFBEFCD7DF50E55234
:101B9000E552E7CFD9FF1200D9CFE6FFE1CFD9FF59
:101BA0000F0E8116FE0EDB5081128186050EE66E49
:101BB000E66AE66AE66A2DDEE552E552E552E5524E
:101BC0008196050EE66EE66AE66AE66A22DEE55270
:101BD000E552E552E552E552E7CFD9FF1200D9CFE1
:101BE000E6FFE1CFD9FF8194050EE66EE66AE66A6C
:101BF000E66A0FDEE552E552E552E552FE0EDBCF16
:101C0000E6FFCADFE552FE0EDB38F00BE66EC4DFFE
:101C1000E552E552E7CFD9FF1200D9CFE6FFE1CF79
:101C2000D9FF8184050EE66EE66AE66AE66AF1DDB2
:101C3000E552E552E552E552FE0EDBCFE6FFACDFA2
:101C4000E552FE0EDB38F00BE66EA6DFE55281941E
:101C5000E552E7CFD9FF1200D9CFE6FFE1CFD9FF98
:101C6000FE0EDBCFE6FFD9DFE552E552E7CFD9FF25
:101C70001200D9CFE6FFE1CFD9FFFE0EDBCFE6FFA2
:101C8000CCDFE552E552E7CFD9FF1200D9CFE6FF0E
:101C9000E1CFD9FFFD0EDBCFF6FFFE0EDBCFF7FF66
:101CA0000800F5500FE0FD0EDBCFF6FFDB2AFE0E3D
:101CB000DBCFF7FF01E3DB2A0800F550E66ED9DF42
:101CC000E552E8D7E552E7CFD9FF1200D9CFE6FFBA
:101CD000E1CFD9FFE652FD0EDB500F0B106EFE0E6A
:101CE000DB50010B400DF3501024DF6E7F0EDF142C
:101CF000800FDF6EDFCFE6FF72DFE552E552E5527F
:101D0000E7CFD9FF1200010EE66E69DFE552E66A01
:101D1000E66ADCDFE552E5521200D9CFE6FFE1CFFB
:101D2000D9FF050EE126010EF36EDB6E020EDB6AB3
:101D3000030EDB6A040EDB6ADF6ADFCF10F0116A84
:101D400010BE1168FB0EDBCF12F0FC0EDBCF13F0E0
:101D500011501318E8AE02D0133404D01250105CA6
:101D6000135011582DE2FD0EDBCF10F0FE0EDBCF2D
:101D700011F0126A136A11AE02D012681368D950BA
:101D8000010FE96EDACFEAFF10C00BF011C00CF0C2
:101D900012C00DF013C00EF0EECF06F0EECF07F03C
:101DA000EECF08F0EFCF09F00CEC20F005C0EDFF0E
:101DB00004C0EDFF03C0EDFF02C0EFFFDF2ABDD777
:101DC000010EDBCF10F0020EDBCF11F0030EDBCFE4
:101DD00012F0040EDBCF13F010C006F011C007F0B4
:101DE00012C008F013C009F0050EE15C02E2E16ADE
:101DF000E552E16EE552E7CFD9FF1200D9CFE6FFF9
:101E0000E1CFD9FF020EE126DF6AFB0EDBCF10F037
:101E1000FC0EDBCF11F0FD0EDBCF12F0FE0EDBCFA0
:101E200013F0105011101210131005E1300EE66E71
:101E300020DFE552F4D0D950FB0FE96EFF0EDA2017
:101E4000EA6ED890030EEB50000A08E6000EEE5C36
:101E5000000EEE58000EEE58000EEE5815E22D0E54
:101E6000E66E07DFE552D950FB0FE96EFF0EDA2070
:101E7000EA6E000EEE6CEF1EEE22EF1EEE22EF1E5B
:101E8000EF22ED52ED52ED52DE52070EDD6E010EE5
:101E9000DBCF10F0000EE76E1018E8AE02D0103461
:101EA00003D0E750D880105401E3B9D0010EDB0411
:101EB000146E156A14BE156814C0E6FF15C0E6FF5F
:101EC0000A0EE66EE66A29DFE552E552E552E55272
:101ED00006C010F007C011F008C012F009C013F0DE
:101EE00006C00BF007C00CF008C00DF009C00EF0E2
:101EF000FB0EDBCF06F0FC0EDBCF07F0FD0EDBCFD9
:101F000008F0FE0EDBCF09F044EC20F0065007107D
:101F10000810091041E0010EDF6EDB04186E196A2B
:101F200018BE196818C0E6FF19C0E6FF0A0EE66E73
:101F3000E66AF3DEE552E552E552E55206C014F0DA
:101F400007C015F008C016F009C017F006C00BF066
:101F500007C00CF008C00DF009C00EF0FB0EDBCF7F
:101F600006F0FC0EDBCF07F0FD0EDBCF08F0FE0E17
:101F7000DBCF09F044EC20F006C010F007C011F0F0
:101F800008C012F009C013F0300E1026000E112206
:101F900012221322105003D0DF5004E0300EE66E00
:101FA00068DEE552010EDB04146E156A14BE156876
:101FB00014C0E6FF15C0E6FF0A0EE66EE66AADDE67
:101FC000E552E552E552E55206C010F007C011F0A7
:101FD00008C012F009C013F0D950FB0FE96EFF0ED4
:101FE000DA20EA6E06C00BF007C00CF008C00DF056
:101FF00009C00EF0EECF06F0EECF07F0EECF08F0FE
:10200000EFCF09F044EC20F005C0EDFF04C0EDFF78
:1020100003C0EDFF02C0EFFF010EDB0638D7020E52
:10202000E15C02E2E16AE552E16EE552E7CFD9FFF9
:102030001200D9CFE6FFE1CFD9FFFD0EDBCFE6FFDF
:10204000FE0EDBCFE6FF42DEE552E552D950F90F36
:10205000E96EFF0EDA20EA6EEECFE6FFEECFE6FF86
:10206000EECFE6FFEFCFE6FFC9DEE552E552E552DF
:10207000E552E552E7CFD9FF1200D9CFE6FFE1CF15
:10208000D9FFFD0EDBCFE6FFFE0EDBCFE6FF1EDE47
:10209000E552E552FB0EDBCFE6FFFC0EDBCFE6FFA1
:1020A000F5DDE552E552E552E7CFD9FF1200D9CF71
:1020B000E6FFE1CFD9FF7BCF10F07CCF11F0040E0B
:1020C000D89010361136E806FBE1410E10260F0EAF
:1020D000112210500F017D25E96E11507E21EA6E0C
:1020E000FE0EDBCFEFFF7D2B000E7E23E552E7CF08
:1020F000D9FF1200D9CFE6FFE1CFD9FFE652DF6A60
:10210000DFCF10F0100EE76E1018E8AE02D0E73403
:1021100002D0E750105C18E2DFCFE9FFEA6AE9BEBF
:10212000EA68410EE9260F0EEA22200EEF6EDFCF9D
:10213000E9FFEA6AE9BEEA68510EE9260F0EEA22D3
:10214000200EEF6EDF2ADCD7E552E552E7CFD9FF4C
:102150001200D9CFE6FFE1CFD9FFE6520F0140517F
:10216000030A52E0010A36E0030A1AE0010A67E1B5
:10217000E66AE66AABDDE552E552DF6A080EDF5C2F
:102180000CE2DF50EA6A410FE96E0F0EEA22EF50CF
:10219000E66E6FDDE552DF2AF1D70F01010E32D076
:1021A000080EE66EE66A92DDE552E552DF6A080E39
:1021B000DF5C0DE2080EDF24EA6A410FE96E0F0EC4
:1021C000EA22EF50E66E55DDE552DF2AF0D70F0127
:1021D000020E18D0E66A010EE66E78DDE552E55291
:1021E000DF6A080EDF5C0CE2DF50EA6A510FE96E2D
:1021F0000F0EEA22EF50E66E3CDDE552DF2AF1D702
:102200000F01030E406F1CD0080EE66E010EE66E45
:102210005DDDE552E552DF6A080EDF5C0DE2080E77
:10222000DF24EA6A510FE96E0F0EEA22EF50E66EE4
:1022300020DDE552DF2AF0D70F01406B01D0406B63
:10224000E552E552E7CFD9FF1200D9CFE6FFE1CF43
:10225000D9FFE6520F014051010A1BE0010A32E1A9
:10226000E66AE66A33DDE552E552DF6A100EDF5CAE
:102270000CE2DF50EA6A410FE96E0F0EEA22EF50DE
:10228000E66EF7DCE552DF2AF1D70F01010E406F51
:102290001AD0E66A010EE66E19DDE552E552DF6AF4
:1022A000100EDF5C0CE2DF50EA6A510FE96E0F0E90
:1022B000EA22EF50E66EDDDCE552DF2AF1D70F01AE
:1022C000406B01D0406BE552E552E7CFD9FF1200D9
:1022D000D9CFE6FFE1CFD9FFE652E66AE66AF6DC3F
:1022E000E552E552DF6A100EDF5C0CE2DF50EA6A6D
:1022F000410FE96E0F0EEA22EF50E66EBADCE552AE
:10230000DF2AF1D7E66A010EE66EE0DCE552E5521F
:10231000DF6A100EDF5C0CE2DF50EA6A510FE96EF3
:102320000F0EEA22EF50E66EA4DCE552DF2AF1D769
:10233000E552E552E7CFD9FF1200D9CFE6FFE1CF52
:10234000D9FFFE0EDB50010B0F017B6F7C6BFD0E86
:10235000DB500F0B7D6F7E6BFC0EDB500A0802E139
:10236000610E05D0FC0EDB500D0805E1640EF36E26
:10237000FC0EF3CFDBFF7BCF10F07CCF11F0040E0F
:10238000D89010361136E806FBE1410E10260F0EEC
:10239000112210500F017D25E96E11507E21EA6E49
:1023A000FC0EDBCFEFFFE552E7CFD9FF1200D9CF0C
:1023B000E6FFE1CFD9FF020EE126DF6AFE0EDB5019
:1023C000010B0F017B6F7C6BFD0EDB500F0B7D6FE4
:1023D0007E6BF90EDBCF10F0FA0EDBCF11F0FB0EA7
:1023E000DBCF12F0FC0EDBCF13F0105011101210E7
:1023F000131005E1300EE66E5ADEE552F5D0D950E5
:10240000F90FE96EFF0EDA20EA6ED890030EEB505A
:10241000000A08E6000EEE5C000EEE58000EEE58C4
:10242000000EEE5815E22D0EE66E41DEE552D95053
:10243000F90FE96EFF0EDA20EA6E000EEE6CEF1E69
:10244000EE22EF1EEE22EF1EEF22ED52ED52ED5284
:10245000DE52070EDD6E010EDBCF10F0000EE76ED0
:102460001018E8AE02D0103403D0E750D8801054D2
:1024700001E3BAD0010EDB04146E156A14BE1568B0
:1024800014C0E6FF15C0E6FF0A0EE66EE66A45DCFC
:10249000E552E552E552E55206C010F007C011F0D2
:1024A00008C012F009C013F006C00BF007C00CF012
:1024B00008C00DF009C00EF0F90EDBCF06F0FA0EE1
:1024C000DBCF07F0FB0EDBCF08F0FC0EDBCF09F013
:1024D00044EC20F0065007100810091041E0010EEE
:1024E000DF6EDB04186E196A18BE196818C0E6FFA3
:1024F00019C0E6FF0A0EE66EE66A0FDCE552E55209
:10250000E552E55206C014F007C015F008C016F0F9
:1025100009C017F006C00BF007C00CF008C00DF0A2
:1025200009C00EF0F90EDBCF06F0FA0EDBCF07F094
:10253000FB0EDBCF08F0FC0EDBCF09F044EC20F003
:1025400006C010F007C011F008C012F009C013F067
:10255000300E1026000E112212221322105003D02A
:10256000DF5004E0300EE66EA2DDE552010EDB0422
:10257000146E156A14BE156814C0E6FF15C0E6FF98
:102580000A0EE66EE66A8DEC0EF0E552E552E55273
:10259000E55206C010F007C011F008C012F009C0E3
:1025A00013F0D950F90FE96EFF0EDA20EA6E06C07B
:1025B0000BF007C00CF008C00DF009C00EF0EECF14
:1025C00006F0EECF07F0EECF08F0EFCF09F044ECC5
:1025D00020F005C0EDFF04C0EDFF03C0EDFF02C019
:1025E000EFFF010EDB0637D7020EE15C02E2E16A83
:1025F000E552E16EE552E7CFD9FF1200D9CFE6FFF1
:10260000E1CFD9FFFE0EDB50010B0F017B6F7C6B1E
:10261000FD0EDB500F0B7D6F7E6BFB0EDBCFF6FFED
:10262000FC0EDBCFF7FF0800F5500FE0FB0EDBCF11
:10263000F6FFDB2AFC0EDBCFF7FF01E3DB2A080005
:10264000F550E66E34DDE552E8D7E552E7CFD9FF25
:102650001200D9CFE6FFE1CFD9FF020EE126DE6AF4
:10266000DD6AFE0EDB50010B0F017B6F7C6B7D6B17
:102670007E6BDE6ADD6ADECF10F0DDCF11F0D89020
:10268000115004E6100E105C000E11581EE2FC0EF4
:10269000DBCFF6FFFD0EDBCFF7FF0800F5500CE0B7
:1026A000FC0EDBCFF6FFDB2AFD0EDBCFF7FF01E3ED
:1026B000DB2A0800F55001D0200EE66EF8DCE5526A
:1026C000DF2A010ED8E3DB2AD6D7020EE15C02E254
:1026D000E16AE552E16EE552E7CFD9FF1200D9CFAA
:1026E000E6FFE1CFD9FF040EE126DE6ADD6A020EC5
:1026F000DB6A030EDB6AFC0EDB50080DF350E66E5E
:10270000D950020FE96EDACFEAFFE552E750EE6EDC
:10271000ED6A400EE76E020EDBCF10F0030EDBCF4A
:1027200011F0E7501012020E10C0DBFF030E11C0B3
:10273000DBFF020EDBCFE6FFEFEC0DF0E552DE6AC9
:10274000DD6ADECF10F0DDCF11F0080E105C000E58
:10275000115828E2FD0EDBCF10F0FE0EDBCF11F09A
:10276000DE501024E96EDD501120EA6EEF50E66E67
:102770000DEC0EF0E552010EE76E020EDBCF10F00D
:10278000030EDBCF11F0E7501026000E1122020ECF
:1027900010C0DBFF030E11C0DBFFDF2A010ED1E307
:1027A000DB2ACFD7040EE15C02E2E16AE552E16E7A
:1027B000E552E7CFD9FF1200E66A000EE66E0F0E73
:1027C000E66E8DDFE552E552E552010EE66E080E2B
:1027D000E66E0F0EE66E83DFE552E552E552020E1D
:1027E000E66E100EE66E0F0EE66E79DFE552E552EC
:1027F000E552030EE66E180EE66E0F0EE66E6FDF04
:08280000E552E552E552120019
:082808000F0E946E82681200AD
:10281000070E9410946EDF0E9414946E826812006A
:10282000D9CFE6FFE1CFD9FF040EE126DE6ADD6AEB
:10283000DECF10F0DDCF11F0D890115004E6040E79
:10284000105C000E115801E390D0DECFE9FFDDCF20
:10285000EAFF790EE926010EEA22EF1C826E020ED3
:10286000DB6A030EDB6A020EDBCF10F0030EDBCF58
:1028700011F0D890115004E6040E105C000E1158AF
:102880006EE2020EDBCFE9FF030EDBCFEAFF7D0E27
:10289000E926010EEA22EF5082143FE1DECF14F068
:1028A000DDCF15F0D89014361536D890143615367D
:1028B000020EDB501424E96E030EDB501520EA6E85
:1028C000D890E936EA36590EE926010EEA22EECF13
:1028D00012F0EFCF13F0010E1226000E1322DECFFE
:1028E00010F0DDCF11F0D89010361136D890103698
:1028F0001136020EDB501024E96E030EDB5011205E
:10290000EA6ED890E936EA36590EE926010EEA2237
:1029100012C0EEFF13C0EDFF1BD0DECF10F0DDCFF5
:1029200011F0D89010361136D89010361136020EAC
:10293000DB501024E96E030EDB501120EA6ED890B4
:10294000E936EA36590EE926010EEA22EE6AED6A08
:10295000020EDB2A030E01E286D7DB2A84D7DF2AA8
:10296000010E01E265D7DB2A63D7040EE15C02E2C7
:10297000E16AE552E16EE552E7CFD9FF1200D9CF07
:10298000E6FFE1CFD9FF040EE126DE6ADD6ADECF85
:1029900010F0DDCF11F0D890115004E6020E105C5B
:1029A000000E115801E391D0DECFE9FFDDCFEAFF41
:1029B000790EE926010EEA22EF1C8214826E020EC5
:1029C000DB6A030EDB6A020EDBCF10F0030EDBCFF7
:1029D00011F0D890115004E6040E105C000E11584E
:1029E0006EE2020EDBCFE9FF030EDBCFEAFF7D0EC6
:1029F000E926010EEA22EF5082143FE1DECF14F007
:102A0000DDCF15F0D89014361536D890143615361B
:102A1000020EDB501424E96E030EDB501520EA6E23
:102A2000D890E936EA36590EE926010EEA22EECFB1
:102A300012F0EFCF13F0010E1226000E1322DECF9C
:102A400010F0DDCF11F0D89010361136D890103636
:102A50001136020EDB501024E96E030EDB501120FC
:102A6000EA6ED890E936EA36590EE926010EEA22D6
:102A700012C0EEFF13C0EDFF1BD0DECF10F0DDCF94
:102A800011F0D89010361136D89010361136020E4B
:102A9000DB501024E96E030EDB501120EA6ED89053
:102AA000E936EA36590EE926010EEA22EE6AED6AA7
:102AB000020EDB2A030E01E286D7DB2A84D7DF2A47
:102AC000010E01E264D7DB2A62D7040EE15C02E268
:102AD000E16AE552E16EE552E7CFD9FF1200D9CFA6
:102AE000E6FFE1CFD9FF040EE126DE6ADD6A020EC1
:102AF000DB6A030EDB6A0101791D8214826E020E0D
:102B0000DB6A030EDB6A020EDBCF10F0030EDBCFB5
:102B100011F0D890115004E6040E105C000E11580C
:102B20006EE2020EDBCFE9FF030EDBCFEAFF7D0E84
:102B3000E926010EEA22EF5082143FE1DECF14F0C5
:102B4000DDCF15F0D89014361536D89014361536DA
:102B5000020EDB501424E96E030EDB501520EA6EE2
:102B6000D890E936EA36590EE926010EEA22EECF70
:102B700012F0EFCF13F0010E1226000E1322DECF5B
:102B800010F0DDCF11F0D89010361136D8901036F5
:102B90001136020EDB501024E96E030EDB501120BB
:102BA000EA6ED890E936EA36590EE926010EEA2295
:102BB00012C0EEFF13C0EDFF1BD0DECF10F0DDCF53
:102BC00011F0D89010361136D89010361136020E0A
:102BD000DB501024E96E030EDB501120EA6ED89012
:102BE000E936EA36590EE926010EEA22EE6AED6A66
:102BF000020EDB2A030E01E286D7DB2A84D7040EFD
:102C0000E15C02E2E16AE552E16EE552E7CFD9FF0D
:102C10001200D9CFE6FFE1CFD9FF040EE126DE6A2C
:102C2000DD6A020EDB6A030EDB6A010EDE6EDD6A10
:102C3000DECFE9FFDDCFEAFF790EE926010EEA22B9
:102C4000EF1C8214826E020EDB6A030EDB6A020E38
:102C5000DBCF10F0030EDBCF11F0D890115004E65B
:102C6000030E105C000E11586EE2020EDBCFE9FF7E
:102C7000030EDBCFEAFF7D0EE926010EEA22EF50BC
:102C800082143FE1DECF14F0DDCF15F0D89014367A
:102C90001536D89014361536020EDB501424E96E22
:102CA000030EDB501520EA6ED890E936EA36590E4D
:102CB000E926010EEA22EECF12F0EFCF13F0010E5B
:102CC0001226000E1322DECF10F0DDCF11F0D890C7
:102CD00010361136D89010361136020EDB50102403
:102CE000E96E030EDB501120EA6ED890E936EA3621
:102CF000590EE926010EEA2212C0EEFF13C0EDFFC5
:102D00001BD0DECF10F0DDCF11F0D8901036113689
:102D1000D89010361136020EDB501024E96E030EE7
:102D2000DB501120EA6ED890E936EA36590EE926D2
:102D3000010EEA22EE6AED6A020EDB2A030E01E2C0
:102D400086D7DB2A84D7040EE15C02E2E16AE55211
:102D5000E16EE552E7CFD9FF1200D9CFE6FFE1CF10
:102D6000D9FF040EE126DE6ADD6ADECF10F0DDCF8A
:102D700011F0FD0EDBCF12F0FE0EDBCF13F0115081
:102D80001318E8AE02D0133404D01250105C135064
:102D900011581DE2020EDB6A030EDB6A020EDBCF66
:102DA00010F0030EDBCF11F0D890115004E6EE0EB8
:102DB000105C000E115806E2020EDB2A030EEEE351
:102DC000DB2AECD7DF2A010ED0E3DB2ACED7040EB4
:102DD000E15C02E2E16AE552E16EE552E7CFD9FF3C
:102DE0001200D9CFE6FFE1CFD9FF040EE126DE6A5B
:102DF000DD6ADECF10F0DDCF11F0D890115004E67F
:102E0000040E105C000E115875E2DECFE9FFDDCF35
:102E1000EAFF790EE926010EEA22EF1C826E020E0D
:102E2000DB6A030EDB6A020EDBCF10F0030EDBCF92
:102E300011F0D890115004E6040E105C000E1158E9
:102E40004AE2DECF10F0DDCF11F0D8901036113607
:102E5000D89010361136020EDB501024E96E030EA6
:102E6000DB501120EA6ED890E936EA36590EE92691
:102E7000010EEA22EE6AED6A020EDBCFE9FF030ED5
:102E8000DBCFEAFF7D0EE926010EEA22EF50821425
:102E90001CE1DECF10F0DDCF11F0D89010361136E6
:102EA000D89010361136020EDB501024E96E030E56
:102EB000DB501120EA6ED890E936EA36590EE92641
:102EC000010EEA22010EEE6EED6A020EDB2A030EFF
:102ED000AAE3DB2AA8D78250816EE80EE66E030EC5
:102EE000E66E3BDFE552E552DF2A010E01E281D7B3
:102EF000DB2A7FD7040EE15C02E2E16AE552E16E73
:102F0000E552E7CFD9FF1200D9CFE6FF040EE12644
:102F100084B005D00101592B000E5A2303D00101C2
:102F2000596B5A6B84B204D05B2B000E5C2302D029
:102F30005B6B5C6B84B404D05D2B000E5E2302D00F
:102F40005D6B5E6B82B004D05F2B000E602302D0FD
:102F50005F6B606B82B204D0612B000E622302D0E3
:102F6000616B626B82B404D0632B000E642302D0C9
:102F7000636B646B82BA04D0652B000E662302D0AB
:102F8000656B666B81B004D0672B000E682302D09E
:102F9000676B686B040EE15C02E2E16AE552E16E88
:102FA000E552E7CFD9FF1200070E9610966E270E56
:0C2FB0009410946E010E9310936E1200AA
:042FBC00D9CFE6FF84
:102FC000E1CFD9FFD59EFD0EDBCF81F1FE0EDBCF29
:102FD00082F1D59C13681468156A81C116F082C10C
:102FE00017F0186A1650135C106E17501458116EB3
:102FF00018501558126E0C6A010E0D6E0E6A10C034
:1030000007F011C008F012C009F048EC1FF003509F
:10301000D66E13681468156A81C116F082C117F064
:10302000186A1650135C106E17501458116E185011
:103030001558126E0C6A010E0D6E0E6A10C007F064
:1030400011C008F012C009F048EC1FF007C010F0E2
:1030500008C011F009C012F00750D76ED59AD58676
:10306000F28AF294F184D58EE552E7CFD9FF1200AF
:10307000D59E120013681468156A81C116F082C1CA
:1030800017F0186A1650135C106E17501458116E12
:1030900018501558126E0C6A010E0D6E0E6A10C093
:1030A00007F011C008F012C009F048EC1FF00350FF
:1030B000D66E13681468156A81C116F082C117F0C4
:1030C000186A1650135C106E17501458116E185071
:1030D0001558126E0C6A010E0D6E0E6A10C007F0C4
:1030E00011C008F012C009F048EC1FF007C010F042
:1030F00008C011F009C012F00750D76ED58E12002B
:10310000D9CFE6FFE1CFD9FFCD90FD0EDBCF83F124
:10311000FE0EDBCF84F113681468156A83C116F0C4
:1031200084C117F0186A1650135C106E17501458AB
:10313000116E18501558126E0C6A010E0D6E0E6A43
:1031400010C007F011C008F012C009F048EC1FF0E1
:103150000750CF6E13681468156A83C116F084C1D6
:1031600017F0186A1650135C106E17501458116E31
:1031700018501558126E0C6A010E0D6E0E6A10C0B2
:1031800007F011C008F012C009F048EC1FF003C0AE
:1031900010F004C011F005C012F00350CE6E9D80F7
:1031A0009E909F90CD8ECD8CCD98CD9ACD96CD9280
:1031B000CD80E552E7CFD9FF120013681468156A75
:1031C00083C116F084C117F0186A1650135C106E94
:1031D00017501458116E18501558126E0C6A010EC3
:1031E0000D6E0E6A10C007F011C008F012C009F091
:1031F00048EC1FF00750CF6E13681468156A83C13E
:1032000016F084C117F0186A1650135C106E175030
:103210001458116E18501558126E0C6A010E0D6E6E
:103220000E6A10C007F011C008F012C009F048EC97
:103230001FF003C010F004C011F005C012F00350DD
:10324000CE6ECD801200CD901200D9CFE6FFE1CF37
:10325000D9FFCA94CC6AFE0EDB500101856F866BE4
:10326000CB6E9D829E929F92CA90CA92CA84E5526A
:10327000E7CFD9FF120085C1CBFFCA841200CA94E0
:103280001200D9CFE6FFE1CFD9FFB190FD0EDBCF21
:1032900087F1FE0EDBCF88F113681468156A87C1C9
:1032A00016F088C117F0186A1650135C106E17508C
:1032B0001458116E18501558126E0C6A010E0D6ECE
:1032C0000E6A10C007F011C008F012C009F048ECF7
:1032D0001FF00750B36E13681468156A87C116F0A3
:1032E00088C117F0186A1650135C106E17501458E6
:1032F000116E18501558126E0C6A010E0D6E0E6A82
:1033000010C007F011C008F012C009F048EC1FF01F
:1033100003C010F004C011F005C012F00350B26EEB
:10332000A082A192A292B18EB198B19AB192B180CD
:10333000E552E7CFD9FF120013681468156A87C1F8
:1033400016F088C117F0186A1650135C106E1750EB
:103350001458116E18501558126E0C6A010E0D6E2D
:103360000E6A10C007F011C008F012C009F048EC56
:103370001FF00350B26E13681468156A87C116F007
:1033800088C117F0186A1650135C106E1750145845
:10339000116E18501558126E0C6A010E0D6E0E6AE1
:1033A00010C007F011C008F012C009F048EC1FF07F
:1033B00007C010F008C011F009C012F00750B36E3A
:1033C000B1801200B19012000101912B000E9223E6
:1033D0009951915D9A51925904E3916B926B010E50
:1033E000896F12000101932B000E94239B51935D72
:1033F0009C51945904E3936B946B010E8A6F1200F5
:103400000101952B000E96239D51955D9E51965975
:1034100004E3956B966B010E8B6F12000101972BE5
:10342000000E98239F51975DA051985904E3976B24
:10343000986B010E8C6F1200D9CFE6FFE1CFD9FF58
:10344000FD0EDBCF99F1FE0EDBCF9AF10101916BFE
:10345000926B896BE552E7CFD9FF1200D9CFE6FF17
:10346000E1CFD9FFFD0EDBCF9BF1FE0EDBCF9CF150
:10347000050E0D6E0E6A9BC108F09CC109F022EC8E
:103480001FF008C09BF109C09CF10101936B946B84
:103490008A6BE552E7CFD9FF1200D9CFE6FFE1CF23
:1034A000D9FFFD0EDBCF9FF1FE0EDBCFA0F10A0EA0
:1034B0000D6E0E6A9FC108F0A0C109F022EC1FF04A
:1034C00008C09FF109C0A0F10101976B986B8C6B4C
:0834D000E552E7CFD9FF12001D
:0834D800D9CFE6FFE1CFD9FFD7
:1034E000020EE126FE0EDB500F0BDF6EFE0EDB3808
:1034F0000F0B0A0D010EF3CFDBFFDB50DF24106E44
:10350000020EE15C02E2E16AE552E16E1050E55222
:10351000E7CFD9FF1200D9CFE6FFE1CFD9FF020EE6
:10352000E1260A0E106E0E6EFE0EDBCF09F0D5EC12
:1035300020F00550DF6E0A0E106E0E6EFE0EDBCF11
:1035400009F0D5EC20F00950100D010EF3CFDBFF90
:10355000DB50DF24106E020EE15C02E2E16AE5520C
:10356000E16E1050E552E7CFD9FF1200948694889F
:10357000C79EC79CC690C692C694C686310EC86EBA
:10358000C68A1200D9CFE6FFE1CFD9FF9E96FE0E84
:10359000DB50D00FC96E9EA6FED7E552E7CFD9FF0C
:1035A0001200D9CFE6FFE1CFD9FF9E96FE0EDB5089
:1035B000A00FC96E9EA6FED7E552E7CFD9FF120035
:1035C0009E96C5809EA6FED712009E96C5849EA696
:1035D000FED71200D9CFE6FFE1CFD9FF9E96FE0EAF
:1035E000DB50C96E9EA6FED7E552E7CFD9FF120089
:1035F0009E96C5869EA6FED7C95012009E96C59A75
:10360000C5889EA6FED712009E96C58AC5889EA62E
:10361000FED71200D9CFE6FFE1CFD9FFD1DFE66AAE
:10362000B1DFE5520101010EC96FE85004E0C55059
:10363000400BFAE0F8D7FE0EDBCFE6FFCBDFE5521A
:103640000101010EC96FE85004E0C550400BFAE0DB
:10365000F8D7FD0EDBCFE6FF5EDFE552E66EBADFA0
:10366000E5520101010EC96FE85004E0C550400B5E
:10367000FAE0F8D7AADFE552E7CFD9FF1200D9CF99
:10368000E6FFE1CFD9FF9CDFE66A8BDFE55201015F
:10369000010EC96FE85004E0C550400BFAE0F8D7BE
:1036A000FE0EDBCFE6FF96DFE5520101010EC96F8A
:1036B000E85004E0C550400BFAE0F8D7FD0EDBCF30
:1036C00010F0FE0EDBCF11F00001116A1050E66E13
:1036D00081DFE5520101010EC96FE85004E0C550D9
:1036E000400BFAE0F8D7FC0EDBCFE6FF73DFE552C4
:1036F0000101010EC96FE85004E0C550400BFAE02B
:10370000F8D763DFE552E7CFD9FF1200D9CFE6FF44
:10371000E1CFD9FFE65254DFE66A34DFE55201011A
:10372000010EC96FE85004E0C550400BFAE0F8D72D
:10373000FE0EDBCFE6FF4EDFE5520101010EC96F41
:10374000E85004E0C550400BFAE0F8D739DF010E2D
:10375000E66E18DFE5520101010EC96FE85004E082
:10376000C550400BFAE0F8D743DFDF6EDFCFE6FF4E
:10377000B3DEE552DF6EDF50E552E552E7CFD9FF09
:103780001200D9CFE6FFE1CFD9FFE65219DFE66A92
:1037900008DFE5520101010EC96FE85004E0C55091
:1037A000400BFAE0F8D7FE0EDBCFE6FF13DFE55261
:1037B0000101010EC96FE85004E0C550400BFAE06A
:1037C000F8D7FD0EDBCF10F0FE0EDBCF11F00001BD
:1037D000116A1050E66EFEDEE5520101010EC96F5E
:1037E000E85004E0C550400BFAE0F8D7E9DE010EDE
:1037F000E66ED7DEE5520101010EC96FE85004E024
:10380000C550400BFAE0F8D7F3DEDF6EDF50E5522B
:08381000E552E7CFD9FF1200D9
:08381800F28ED08EF28C12003A
:10382000F19CF292F2881200D8CFE4FFE0CFE4FFDF
:10383000E46EDACFE4FFE2CFDAFFE9CFE4FFEACFCC
:10384000E4FFF6CFE4FFF7CFE4FFF5CFE4FFF3CFDB
:10385000E4FFF4CFE4FFFACFE4FF00EE00F0100E37
:10386000E80403E3EECFE4FFFBD700EE10F00A0E0E
:10387000E80403E3EECFE4FFFBD7E652F2A407D05F
:1038800038EC18F0F2943AEC18F0E4EC19F09EA041
:1038900007D023EC19F09E90DDEC18F0F2EC19F053
:1038A0009EA207D03FEC19F09E923BEC19F000EC81
:1038B0001AF0A1A207D0E2EC19F0A1929CEC19F049
:1038C0000EEC1AF0F2B2F2929EAA03D09E9A90ECFD
:1038D0001EF0E55200EE19F00A0EE80403E3E5CF0E
:1038E000EDFFFBD700EE0FF0100EE80403E3E5CF89
:1038F000EDFFFBD7E5CFFAFFE5CFF4FFE5CFF3FF10
:10390000E5CFF5FFE5CFF7FFE5CFF6FFE5CFEAFF1F
:10391000E5CFE9FFE5CFDAFFE550E5CFE0FFE5CF02
:10392000D8FF1000DACFE4FFE2CFDAFFE9CFE4FFFF
:10393000EACFE4FFF6CFE4FFF7CFE4FFF5CFE4FFF3
:10394000F3CFE4FFF4CFE4FFFACFE4FF00EE00F0A2
:10395000100EE80403E3EECFE4FFFBD700EE10F017
:103960000A0EE80403E3EECFE4FFFBD7E652F2A42D
:1039700007D038EC18F0F2943AEC18F0E4EC19F0B7
:103980009EA007D023EC19F09E90DDEC18F0F2EC2D
:1039900019F09EA207D03FEC19F09E923BEC19F073
:1039A00000EC1AF0A1A207D0E2EC19F0A1929CEC75
:1039B00019F00EEC1AF0F2B2F2929EAA03D09E9A7F
:1039C00090EC1EF0E55200EE19F00A0EE80403E355
:1039D000E5CFEDFFFBD700EE0FF0100EE80403E398
:1039E000E5CFEDFFFBD7E5CFFAFFE5CFF4FFE5CF5D
:1039F000F3FFE5CFF5FFE5CFF7FFE5CFF6FFE5CF26
:0C3A0000EAFFE5CFE9FFE5CFDAFF110097
:043A0C002020203224
:103A10002E504841534520322020202000202020D5
:103A2000312E5048415345203120202020002032A3
:103A30002E525553482053455454494E4720200098
:103A4000312E4E4F524D414C2053455454494E4710
:103A500020002020332E534C4F57204D4F444520FB
:103A60002020002020322E52555348204D4F4445EF
:103A70002020200020312E4E4F524D414C204D4FE2
:103A80004445202000202020322E53455454494ED6
:103A9000472020202000312E444953504C415920CA
:103AA0004C494748545300504841534532205945EA
:103AB0004C4C4F573A20202000504841534532206B
:103AC000475245454E203A2020200050484153455A
:103AD0003120475245454E203A20200020200050FA
:103AE00048415345312059454C4C4F573A202020EE
:103AF0000050484153453120475245454E203A2019
:103B000020200020202020202020202020202020D5
:103B10002000202020534C4F574C592052554E2105
:103B20002020005048415345325F59454C4C4F5777
:103B30003A2020005048415345325F475245454E98
:103B40003A202020005048415345315F59454C4CA4
:103B50004F573A2020005048415345315F47524566
:103B6000454E3A2020200050415353574F52442095
:103B700057524F4E472020004F50454E494E472048
:103B8000444F4F5220202020002A00454E544552D9
:103B90002050415353574F524420200020202020D2
:103BA00020202020202020202020202000505245AE
:103BB0005353202320464F522050415353004F4B24
:103BC0000020202020202020202020202020202015
:023BD0002000D3
:0E3BD200B06A810EAF6EAC8AAC94B886AC9827
:103BE000AB8EAB889E9A9D8A9F9A949C948E12006D
:103BF000D9CFE6FFE1CFD9FF040EE126DE6ADD6A08
:103C0000DECF10F0DDCF11F0FD0EDBCF12F0FE0E97
:103C1000DBCF13F011501318E8AE02D0133404D0E8
:103C20001250105C135011581DE2020EDB6A030E95
:103C3000DB6A020EDBCF10F0030EDBCF11F0D89061
:103C4000115004E6EE0E105C000E115806E2020E52
:103C5000DB2A030EEEE3DB2AECD7DF2A010ED0E3EA
:103C6000DB2ACED7040EE15C02E2E16AE552E16EA6
:103C7000E552E7CFD9FF1200D9CFE6FFE1CFD9FF58
:103C80009EA8FED7FE0EDB50AD6E9E98E552E7CFA4
:103C9000D9FF1200D9CFE6FFE1CFD9FFFD0EDBCF70
:103CA000E9FFFE0EDBCFEAFFEF5010E0FD0EDBCFA9
:103CB000E9FFFE0EDBCFEAFFEF50E66EDDDFE552F7
:103CC000FD0EDB2AFE0EEAE3DB2AE8D7E552E7CF5A
:103CD000D9FF1200D9CFE6FFE1CFD9FFFD0EDBCF30
:103CE000F6FFFE0EDBCFF7FF0800F55015E0FD0EE6
:103CF000DBCFF6FFFE0EDBCFF7FF0800F550E66ED8
:103D0000BBDFE552FD0EDBCFF6FFDB2AFE0EDBCF7D
:103D1000F7FFE4E3DB2AE2D7E552E7CFD9FF120051
:043D200092EF1EF010
:0C3D2400D9CFE6FFE1CFD9FFE652AE5048
:103D3000DF6EDFCFE6FF3CEC1EF0E5520101A35140
:103D4000050A2AE0010A21E0070A11E0010A0AE057
:103D5000020A02E0010A2AE1FF0EDF5C28E1A66BFD
:103D6000020E22D0FF0EDF5C15E1030E1DD0A6511E
:103D7000EA6A810FE96E000EEA22DFCFEFFFA62B81
:103D8000A851A65D14E3040E0FD0FE0EDF5C02E125
:103D9000050E0AD0010E08D0FE0EDF5C04E1010E14
:103DA000A46FA36B04D0010EA36F01D0A36BE552E7
:103DB000E552E7CFD9FF120012000101A40541E14D
:103DC000C10EE66E3B0EE66EE66AE66AFEEC12F0A7
:103DD000E552E552E552E5520001806B0101A85120
:103DE0000001805D21E28051EA6A810FE96E000ED8
:103DF000EA22EFCF10F0116A126A136A10C0E6FFD0
:103E000011C0E6FF12C0E6FF13C0E6FF030E8003F9
:103E1000F350E66EE66AD7EC11F0146E060EE15E22
:103E200014500001802BDAD7BE0EE66E3B0EE66E14
:103E30000E0EE66EE66AFEEC12F0E552E552E55231
:043E4000E552120035
:0C3E4400006A0EAE2BEF1FF00D6C0E1E7E
:103E5000E86A0E22001E09AE33EF1FF0086C091E3F
:103E6000E86A0922001EA1EC20F009BE43EF1FF012
:103E700000AE000C086C091EE86A0922046C051EDD
:103E8000E86A0522000C00BE3AEF1FF00188FF0C23
:103E9000006A0EAE53EF1FF00C6C0D1E0E1EE86A8A
:103EA0000D220E22001E09AE5DEF1FF0076C081EEA
:103EB000091EE86A08220922001E68EC20F009BEEB
:103EC00070EF1FF000AE000C076C081E091EE86AB8
:103ED00008220922036C041E051E04220522000C80
:0A3EE00000BE64EF1FF00188FF0C24
:063EEA001E0EF66E000E34
:103EF000F76E000EF86E01010900F550B96F090068
:103F0000F550BA6F03E1B96701D03DD00900F55013
:103F1000B46F0900F550B56F0900F550B66F090090
:103F20000900F550E96E0900F550EA6E0900090034
:103F30000900F550B76F0900F550B86F0900090086
:103F4000F6CFBBF1F7CFBCF1F8CFBDF1B4C1F6FFAE
:103F5000B5C1F7FFB6C1F8FF0101B75302E1B8538D
:103F600007E00900F550EE6EB707F8E2B807F9D799
:103F7000BBC1F6FFBCC1F7FFBDC1F8FF0101B90726
:083F8000000EBA5BBFD712006E
:083F8800010E926E0E0EC16ED7
:103F9000C26A040EC06EC2801200D9CFE6FFE1CF24
:103FA000D9FF020EE126DE6ADD6AC282C2B2FED706
:103FB000C450DE6EDD6ADECF12F0DDCF13F0D89094
:103FC00012361336D89012361336060EC3CFE7FFDB
:103FD000070B04E0E742E79EE806FCE1E750122405
:103FE000106E000E132010C0DEFFDD6EDECF61FF0D
:103FF000DDCF62FFDECF10F0DDCF11F010C0F3FF98
:1040000011C0F4FF020EE15C02E2E16AE552E16EEA
:08401000E552E7CFD9FF1200D1
:0840180006500B02F3CF02F089
:10402000F4CF03F00C02F3500326000EF420046ECC
:1040300006500D02F3500426000EF420056E0650C3
:104040000E02F350052607500B02F3500326F450DE
:104050000422000E052207500C02F3500426F450EF
:10406000052207500D02F350052608500B02F350AD
:104070000426F450052208500C02F350052609507E
:084080000B02F35005261200AB
:08408800056A046A036A026A7A
:10409000200EE76ED8900636073608360936023607
:1040A0000336043605360B50025C0C5003580D5095
:1040B00004580E50055809E30B50025E0C50035A89
:1040C0000D50045A0E50055A062AE72EE4D7120066
:1040D000056A046A036A180EE76ED8900736083638
:1040E00009360336043605360C50035C0D5004586F
:1040F0000E50055807E30C50035E0D50045A0E5045
:0A410000055A072AE72EEAD712003D
:06410A00CA94CA90CA82AB
:104110009B0ECB6EBD98BD9ABE6ABD9CBD9EBD90E8
:10412000BD92BD84BD869494CA841200D9CFE6FFA7
:10413000E1CFD9FFFE0EDB50BE6EE552E7CFD9FFCF
:0241400012006B
:0E414200056A046A100EE76ED890083609363A
:10415000043605360D50045C0E50055805E30D502D
:0E416000045E0E50055A082AE72EF0D7120012
:02416E00800EC1
:10417000F36E00EE00F00F0E01D81200EA6002D0DC
:0E418000EE6AFCD7F350E9601200EE6AFCD73D
:02418E001EEE23
:1041900000F02EEE00F0F86A019C75EC1FF003ECC5
:0A41A00000F040EC00F0FBD7120025
:0641AA00056A080EE76E35
:1041B000D890093605360E50055C02E3056E092AD3
:0641C000E72EF7D7120004
:0A41C60000000000000000000000EF
:1041D00000000000000000000000000000000100DE
:0641E000010001000100D6
:0A41E60000000000000000050500C5
:0941F000000000000000000000C6
:0741F9000102040810204040
:1042000080000000000000000001020341040506D8
:1042100042070809432A0045440102030402070833
:1042200009030303030408060805414243FF000095
:1042300000000105000203040006070008090A0B3C
:10424000000000FF00000000190314030F030A051B
:0242500000006C
:0E4252000103070F0703010010181C1E1C18A3
:10426000100000040E1F0E0400000004081F0804C4
:1042700000001E1E1E1E1E1E1E001F1F1F1F1F1FB2
:104280001F0000000000000000000000000000000F
:10429000000000000000000000000000000000001E
:1042A000000000000000000000000000000000000E
:0342B0000000000B
:0D42B300000000D000222222072509100083
:0E42C0000100000000000000000000000000EF
:0242CE000000EE
:1042D00000000000000000000000000000000000DE
:1042E000000000000000000000000000000010209E
:0642F000408001020408F9
:020000040030CA
:0100010002FC
:0100020003FA
:010003001EDE
:010005008179
:010006008178
:010008000FE8
:01000900C036
:01000A000FE6
:01000B00E014
:01000C000FE4
:01000D0040B2
:00000001FF
