:020000040000FA
:06000000C9EF25F012001B
:020006001200E6
:0600080088EF21F0120058
:01000E0000F1
:01000F0000F0
:03001000000000ED
:060018000AEF21F01200C6
:02001E000900D7
:10002000DF4C00005A01000028000000C44C000012
:10003000E50000001B0000000F000000D2010000DE
:1000400004000000634C0000000F0000610000008D
:10005000094C0000000100005A0000000E000000E2
:10006000D701000001000000FD4B0000B5010000B9
:100070000C000000EA4B0000A20100001300000089
:0C008000CA4B00008201000020000000BC
:04008C00D9CFE6FFE3
:10009000E1CFD9FF020EE126DE6ADD6A7FD8E80EE5
:1000A000E66E030EE66E33D8E552E55201018D513E
:1000B000FDE08D6BB5EC19F0DECF10F0DDCF11F067
:1000C000010E1026000E1122140E0D6E0E6A10C0C5
:1000D00008F011C009F0A3EC25F004C010F005C031
:1000E00011F004C0DEFF05C0DDFFD9CFE9FFDACF94
:1000F000EAFFEE50ED1002E162EC14F0DFEC23F0C9
:10010000D3EC04F0C3EC09F0FDEC10F0CFD7D9CF5D
:10011000E6FFE1CFD9FF040EE126DE6ADD6ADECF1D
:1001200010F0DDCF11F0FD0EDBCF12F0FE0EDBCFB5
:1001300013F011501318E8AE02D0133404D012504B
:10014000105C135011581DE2020EDB6A030EDB6ACD
:10015000020EDBCF10F0030EDBCF11F0D890115060
:1001600004E6EE0E105C000E115806E2020EDB2AC9
:10017000030EEEE3DB2AECD7DF2A010ED0E3DB2A05
:10018000CED7040EE15C02E2E16AE552E16EE5528F
:10019000E7CFD9FF1200956A836A1200FCDF2DECCD
:1001A0000DF0FEEC18F002EC21F0EBEC22F0D7ECB5
:1001B0000EF0CEEC10F0F40EE66E010EE66EA7DF48
:1001C000E552E552570EE66E120EE66ED4EC1CF0C8
:1001D000E552E552660EE66EB70EE66E37EC1EF09F
:1001E000E552E552020EE66EE66A12EC1FF0E552A9
:1001F000E552320EE66EE66A43EC1FF0E552E55238
:1002000030EF14F0D9CFE6FFE1CFD9FFFE0EDBCF00
:1002100011F0800E11141AE1FD0EDBCF12F0FE0E6C
:10022000DBCF13F0133404E212500708000E13540E
:100230000DE3FD0EDBCFE9FFFE0EDBCFEAFF000E84
:10024000E926010EEA22EF508310836EE552E7CFD4
:10025000D9FF1200D9CFE6FFE1CFD9FFFE0EDBCFE9
:1002600011F0800E11141AE1FD0EDBCF12F0FE0E1C
:10027000DBCF13F0133404E212500708000E1354BE
:100280000DE3FD0EDBCFE9FFFE0EDBCFEAFF000E34
:10029000E926010EEA22EF1C8314836EE552E7CFB4
:1002A000D9FF1200D9CFE6FFE1CFD9FFFD0EDBCF9A
:1002B000E9FFFE0EDBCFEAFF080EE926010EEA2277
:1002C000EF0415E1FD0EDBCFE6FFFE0EDBCFE6FF10
:1002D000C1DFE552E552FD0EDBCFE9FFFE0EDBCFBD
:1002E000EAFF080EE926010EEA22EF6A15D0FD0E9C
:1002F000DBCFE6FFFE0EDBCFE6FF84DFE552E55203
:10030000FD0EDBCFE9FFFE0EDBCFEAFF080EE9268C
:10031000010EEA22010EEF6EE552E7CFD9FF12007F
:10032000D9CFE6FFE1CFD9FF020EE126DE6ADD6A12
:10033000DECF10F0DDCF11F0D890115004E60E0E94
:10034000105C000E115821E2DECFE6FFDDCFE6FFA4
:1003500059DFE552E552F40EE66E010EE66ED7DE89
:10036000E552E552DECFE6FFDDCFE6FF73DFE55273
:10037000E552F40EE66E010EE66EC9DEE552E55278
:10038000DF2A010ED5E3DB2AD3D7020EE15C02E2BD
:10039000E16AE552E16EE552E7CFD9FF12000101B3
:1003A0003451040A01E182D0070A6DE0010A60E0DD
:1003B000030A25E0FE0A01E01200990EE66E450EE2
:1003C000E66EE66AE66A52EC13F0E552E552E55253
:1003D000E552880EE66E450EE66EE66A010EE66EA2
:1003E00052EC13F0E552E552E552E55203D965D9D6
:1003F00000096FE00101356B366B010E42D0770EBC
:10040000E66E450EE66EE66AE66A52EC13F0E552D9
:10041000E552E552E5520101362BBCD8000919E03E
:10042000750EE66E450EE66E35C1E6FF010EE66E10
:1004300052EC13F0E552E552E552E5520101355117
:10044000EA6ACB0FE96E010EEA22CFC1EFFF352B2E
:10045000366B040E0101355D02E3020E346F640E4B
:10046000365D01E3346929D9000933E001012FD059
:10047000366B30D8000903E00101030E02D0010100
:10048000040E346F1200362B640EE66E450EE66ED7
:10049000E66AE66A52EC13F0E552E552E552E5529F
:1004A000A2D8640E0101365D14E311D0362B530E31
:1004B000E66E450EE66EE66AE66A52EC13F0E55229
:1004C000E552E552E552280E0101365D02E334693A
:1004D00012001200D9CFE6FFE1CFD9FF040EE126CA
:1004E000010EF36E020EF3CFDBFF030EDB6ADF6A51
:1004F000050EDF5C43E2010EF36E020EF3CFDBFF6D
:10050000030EDB6A010EDB6A040EF36E010EDBCF15
:10051000F4FFF350F45C24E2010EDB50EA6ACB0FE7
:10052000E96E010EEA22EFCF10F0DF50040DF3CF99
:1005300011F0F4CF12F0200E1126010E1222010E3E
:10054000DB501124E96E000E1220EA6EEF50105CB1
:1005500004E0020EDB6A030EDB6A010EDB2AD4D74D
:10056000D950020FE96EDACFEAFF010EEE1804E16E
:10057000ED5002E1DF2802D0DF2ABAD7106E040E58
:10058000E15C02E2E16AE552E16E1050E552E7CF2C
:10059000D9FF1200D9CFE6FFE1CFD9FFE652DF6ADB
:1005A000DF500F081AE3EA6ADF34FE0BEA36E96E21
:1005B0005A0EE926010EEA220A0EEE180CE1ED5061
:1005C0000AE1DF50EA6A100FE96E010EEA22EFCF6E
:1005D000CFF1010E03D0DF2AE3D7000EE552E5523A
:1005E000E7CFD9FF1200000EE66EE66A0BDEE55299
:1005F000E5521200000EE66EE66A2CDEE552E55288
:100600001200000EE66EE66AFDDDE552E5521200CC
:10061000000EE66EE66A1EDEE552E5521200040E9A
:10062000E66EE66AEFDDE552E5521200040EE66E74
:10063000E66A10DEE552E5521200060EE66EE66A44
:10064000E1DDE552E5521200060EE66EE66A02DED4
:10065000E552E5521200010EE66EE66AD3DDE55280
:10066000E5521200010EE66EE66AF4DDE552E5524F
:100670001200050EE66EE66AC5DDE552E55212008F
:10068000050EE66EE66AE6DDE552E5521200070E5B
:10069000E66EE66AB7DDE552E5521200070EE66E39
:1006A000E66AD8DDE552E55212000101010E661935
:1006B00003E1675101E1010C000C0101010E641915
:1006C00003E1655101E1010C000C0101010E621909
:1006D00003E1635101E1010C000C01015929106E85
:1006E000140E116E0E6E10C009F0D7EC25F005C087
:1006F00059F10101055001E158074A51040A01E18D
:100700001FD1070A01E1D9D0010A01E190D0030A03
:1007100049E0010A01E045D174DF96DFB8DF420EFF
:10072000E66E450EE66EE66A010EE66E52EC13F0DA
:10073000E552E552E552E55258C110F0116A126ACD
:10074000136A58C1E6FF11C0E6FF12C0E6FF13C0EE
:10075000E6FF0E0EE66E010EE66E2BEC12F0146E46
:10076000060EE15E1450030EE66EE66AE66AF1ECF0
:1007700011F0E552E552E5528BEC14F057C1E6FF5B
:100780000F0EE66EE66AF1EC11F0E552E552E55225
:100790000101585101E006D1010E4A6F39DF4CC109
:1007A00058F112003CDF73DF310EE66E450EE66E47
:1007B000E66A010EE66E52EC13F0E552E552E552A0
:1007C000E55258C110F0116A126A136A58C1E6FF67
:1007D00011C0E6FF12C0E6FF13C0E6FF0E0EE66E84
:1007E000010EE66E2BEC12F0146E060EE15E145054
:1007F000030EE66EE66AE66AF1EC11F0E552E552A8
:10080000E5528BEC14F057C1E6FF0F0EE66EE66A78
:10081000F1EC11F0E552E552E5520101585101E0C9
:10082000C1D0020E4A6F02DF4DC158F1120013DF32
:1008300035DF03DF200EE66E450EE66EE66A010E3A
:10084000E66E52EC13F0E552E552E552E55258C11E
:1008500010F0116A126A136A58C1E6FF11C0E6FF70
:1008600012C0E6FF13C0E6FF0E0EE66E010EE66E46
:100870002BEC12F0146E060EE15E1450030EE66EC1
:10088000E66AE66AF1EC11F0E552E552E5528BECCE
:1008900014F057C1E6FF0F0EE66EE66AF1EC11F0B8
:1008A000E552E552E5520101585101E07BD0030EBB
:1008B0004A6FD8DE4EC158F11200DBDEBEDE0F0EED
:1008C000E66E450EE66EE66A010EE66E52EC13F039
:1008D000E552E552E552E55258C110F0116A126A2C
:1008E000136A58C1E6FF11C0E6FF12C0E6FF13C04D
:1008F000E6FF0E0EE66E010EE66E2BEC12F0146EA5
:10090000060EE15E1450030EE66EE66AE66AF1EC4E
:1009100011F0E552E552E5528BEC14F057C1E6FFB9
:100920000F0EE66EE66AF1EC11F0E552E552E55283
:100930000101585137E14A6BA3DE4BC158F1120057
:1009400067DE90DE81DEAADE010159510C0806E364
:1009500066DE8FDEFE0EE66E440E05D067DE90DEAC
:10096000EF0EE66E440EE66E010EE66E7DEC13F0C1
:10097000E552E552E552030EE66EE66AE66AF1ECF0
:1009800011F0E552E552E5528BEC14F057C1E6FF49
:100990000F0EE66EE66AF1EC11F0E552E552E55213
:1009A00012004A6B12000101A5050CE1A56B0001C4
:1009B000815108E182C04BF183C04CF184C04DF1FC
:1009C00085C04EF1040E0101A425106E116A126A51
:1009D000136AE66E11C0E6FF12C0E6FF13C0E6FF21
:1009E0000F0EE66EE66A2BEC12F0146E060EE15E58
:1009F00014501200CEEC10F001014A6B586B596B89
:100A000012000101010E661901E1675116E0140E92
:100A1000D8806655000E675511E266C110F067C1B7
:100A200011F0050E0D6E0E6A66C108F067C109F07F
:100A3000A3EC25F00450051001E1010C000C0101AC
:100A4000010E621901E1635116E0140ED88062555F
:100A5000000E635511E262C110F063C111F0050E82
:100A60000D6E0E6A62C108F063C109F0A3EC25F0B7
:100A70000450051001E1010C000C0101010E641984
:100A800003E1655101E1010C000C01014751010A2C
:100A900001E183D0010A01E001D1DD0EE66E440ED2
:100AA000E66EE66AE66A52EC13F0E552E552E5526C
:100AB000E5524FC110F0116A126A136A4FC1E6FF86
:100AC00011C0E6FF12C0E6FF13C0E6FF0E0EE66E91
:100AD000E66A2BEC12F0146E060EE15E1450CB0E9B
:100AE000E66E440EE66EE66A010EE66E52EC13F018
:100AF000E552E552E552E55250C110F0116A126A12
:100B0000136A50C1E6FF11C0E6FF12C0E6FF13C032
:100B1000E6FF0E0EE66E010EE66E2BEC12F0146E82
:100B2000060EE15E145001016251631116E1665137
:100B3000671113E101010A0E485D000E49590DE2EB
:100B4000C80EE66E440EE66E0E0EE66EE66A52ECD7
:100B500013F0E552E552E552E55253DF00090CE08F
:100B600001014F29106E640E116E0E6E10C009F057
:100B7000D7EC25F005C04FF162DF000906E0010166
:100B80004F07000E4F5D01E24F6B77DF000901E177
:100B900085D00101010E476F81D0B70EE66E440E7D
:100BA000E66EE66AE66A52EC13F0E552E552E5526B
:100BB000E5524FC110F0116A126A136A4FC1E6FF85
:100BC00011C0E6FF12C0E6FF13C0E6FF0E0EE66E90
:100BD000E66A2BEC12F0146E060EE15E1450CB0E9A
:100BE000E66E440EE66EE66A010EE66E52EC13F017
:100BF000E552E552E552E55250C110F0116A126A11
:100C0000136A50C1E6FF11C0E6FF12C0E6FF13C031
:100C1000E6FF0E0EE66E010EE66E2BEC12F0146E81
:100C2000060EE15E145001016251631117E1665135
:100C3000671114E101010A0E485D000E49590EE2E8
:100C4000C80EE66E440EE66E0E0EE66E010EE66E01
:100C500052EC13F0E552E552E552E552D2DE0009BE
:100C60000CE001015029106E640E116E0E6E10C062
:100C700009F0D7EC25F005C050F1E1DE000906E0EF
:100C800001015007000E505D01E2506BF6DE0009D5
:100C900005E00101060E376F476BACDE010E010166
:100CA0004825486F000E4921496F140E0D6E0E6ADB
:100CB00048C108F049C109F0A3EC25F004C048F18F
:100CC00005C049F1120001014751010A01E183D039
:100CD000010A01E001D1A50EE66E440EE66EE66A59
:100CE000E66A52EC13F0E552E552E552E55251C185
:100CF00010F0116A126A136A51C1E6FF11C0E6FFD3
:100D000012C0E6FF13C0E6FF0E0EE66EE66A2BEC9D
:100D100012F0146E060EE15E1450930EE66E440E51
:100D2000E66EE66A010EE66E52EC13F0E552E5520D
:100D3000E552E55252C110F0116A126A136A52C1AB
:100D4000E6FF11C0E6FF12C0E6FF13C0E6FF0E0E7D
:100D5000E66E010EE66E2BEC12F0146E060EE15EEE
:100D6000145001016251631116E16651671113E1DC
:100D700001010A0E485D000E49590DE2C80EE66EEB
:100D8000440EE66E0E0EE66EE66A52EC13F0E55285
:100D9000E552E552E55235DE00090CE0010151292A
:100DA000106E640E116E0E6E10C009F0D7EC25F0B7
:100DB00005C051F144DE000906E001015107000EB3
:100DC000515D01E2516B59DE000901E185D001015D
:100DD000010E476F81D0A50EE66E440EE66EE66A00
:100DE000E66A52EC13F0E552E552E552E55251C184
:100DF00010F0116A126A136A51C1E6FF11C0E6FFD2
:100E000012C0E6FF13C0E6FF0E0EE66EE66A2BEC9C
:100E100012F0146E060EE15E1450930EE66E440E50
:100E2000E66EE66A010EE66E52EC13F0E552E5520C
:100E3000E552E55252C110F0116A126A136A52C1AA
:100E4000E6FF11C0E6FF12C0E6FF13C0E6FF0E0E7C
:100E5000E66E010EE66E2BEC12F0146E060EE15EED
:100E6000145001016251631117E16651671114E1D9
:100E700001010A0E485D000E49590EE2C80EE66EE9
:100E8000440EE66E0E0EE66E010EE66E52EC13F0A8
:100E9000E552E552E552E552B4DD00090CE00101EE
:100EA0005229106E640E116E0E6E10C009F0D7EC50
:100EB00025F005C052F1C3DD000906E0010152072B
:100EC000000E525D01E2526BD8DD000905E0010120
:100ED000060E376F476B8EDD010E01014825486F06
:100EE000000E4921496F140E0D6E0E6A48C108F0BC
:100EF00049C109F0A3EC25F004C048F105C049F14F
:100F0000120001014751010A01E183D0010A01E009
:100F100001D1DD0EE66E440EE66EE66AE66A52EC3C
:100F200013F0E552E552E552E55253C110F0116A53
:100F3000126A136A53C1E6FF11C0E6FF12C0E6FF52
:100F400013C0E6FF0E0EE66EE66A2BEC12F0146E8E
:100F5000060EE15E1450CB0EE66E440EE66EE66AB7
:100F6000010EE66E52EC13F0E552E552E552E55201
:100F700054C110F0116A126A136A54C1E6FF11C01D
:100F8000E6FF12C0E6FF13C0E6FF0E0EE66E010E8E
:100F9000E66E2BEC12F0146E060EE15E14500101A9
:100FA0006251631116E16651671113E101010A0EE6
:100FB000485D000E49590DE2C80EE66E440EE66E1D
:100FC0000E0EE66EE66A52EC13F0E552E552E5527B
:100FD000E55217DD00090CE001015329106E640E83
:100FE000116E0E6E10C009F0D7EC25F005C053F15C
:100FF00026DD000906E001015307000E535D01E202
:10100000536B3BDD000901E185D00101010E476F03
:1010100081D0B70EE66E440EE66EE66AE66A52ECE2
:1010200013F0E552E552E552E55253C110F0116A52
:10103000126A136A53C1E6FF11C0E6FF12C0E6FF51
:1010400013C0E6FF0E0EE66EE66A2BEC12F0146E8D
:10105000060EE15E1450CB0EE66E440EE66EE66AB6
:10106000010EE66E52EC13F0E552E552E552E55200
:1010700054C110F0116A126A136A54C1E6FF11C01C
:10108000E6FF12C0E6FF13C0E6FF0E0EE66E010E8D
:10109000E66E2BEC12F0146E060EE15E14500101A8
:1010A0006251631117E16651671114E101010A0EE3
:1010B000485D000E49590EE2C80EE66E440EE66E1B
:1010C0000E0EE66E010EE66E52EC13F0E552E5529E
:1010D000E552E55296DC00090CE001015429106E3E
:1010E000640E116E0E6E10C009F0D7EC25F005C02D
:1010F00054F1A5DC000906E001015407000E545D1F
:1011000001E2546BBADC000905E00101070E376FFC
:10111000476B70DC010E01014825486F000E492124
:10112000496F140E0D6E0E6A48C108F049C109F0EE
:10113000A3EC25F004C048F105C049F112000101FB
:101140004751010A01E185D0010A01E007D1DD0E16
:10115000E66E440EE66EE66AE66A52EC13F0E5527D
:10116000E552E552E55255C110F0116A126A136A50
:1011700055C1E6FF11C0E6FF12C0E6FF13C0E6FF4F
:101180000E0EE66EE66A2BEC12F0146E060EE15EB1
:101190001450CB0EE66E440EE66EE66A010EE66E65
:1011A00052EC13F0E552E552E552E55256C110F00B
:1011B000116A126A136A56C1E6FF11C0E6FF12C037
:1011C000E6FF13C0E6FF0E0EE66E010EE66E2BEC98
:1011D00012F0146E060EE15E1450010162516311AB
:1011E00016E16651671113E101010A0E485D000E18
:1011F00049590DE2C80EE66E440EE66E0E0EE66E1E
:10120000E66A52EC13F0E552E552E552E55201EC84
:1012100005F000090CE001015529106E640E116EF5
:101220000E6E10C009F0D7EC25F005C055F11FEC8B
:1012300005F0000906E001015507000E555D01E2C9
:10124000556B1BDC000901E189D00101010E476FDC
:1012500085D0B70EE66E440EE66EE66AE66A52EC9C
:1012600013F0E552E552E552E55255C110F0116A0E
:10127000126A136A55C1E6FF11C0E6FF12C0E6FF0D
:1012800013C0E6FF0E0EE66EE66A2BEC12F0146E4B
:10129000060EE15E1450CB0EE66E440EE66EE66A74
:1012A000010EE66E52EC13F0E552E552E552E552BE
:1012B00056C110F0116A126A136A56C1E6FF11C0D6
:1012C000E6FF12C0E6FF13C0E6FF0E0EE66E010E4B
:1012D000E66E2BEC12F0146E060EE15E1450010166
:1012E0006251631117E16651671114E101010A0EA1
:1012F000485D000E49590EE2C80EE66E440EE66ED9
:101300000E0EE66E010EE66E52EC13F0E552E5525B
:10131000E552E55201EC05F000090CE00101562907
:10132000106E640E116E0E6E10C009F0D7EC25F031
:1013300005C056F11FEC05F0000906E00101560753
:10134000000E565D01E2566B3DEC05F0000906E02B
:101350000101070E376F476BFAEC04F0010E010133
:101360004825486F000E4921496F140E0D6E0E6A14
:1013700048C108F049C109F0A3EC25F004C048F1C8
:1013800005C049F11200010137510B0A01E193D266
:10139000010A01E18ED20D0A01E118D20E0A01E123
:1013A00013D2010A01E10ED20E0A01E19BD1030A18
:1013B00001E129D1010A01E113D1070A01E1FBD0C2
:1013C000010A01E1E6D0030A67E0010A01E0120028
:1013D0003851010A1BE0010A38E1820EE66E440E24
:1013E000E66EE66A7DEC13F0E552E552E552020E38
:1013F000E66E070EE66E010EE66EF1EC11F0E552B8
:10140000E552E552010EE66E0E0E16D0710EE66E36
:10141000440EE66EE66A7DEC13F0E552E552E552C5
:10142000E66AE66A010EE66EF1EC11F0E552E5526D
:10143000E552020EE66E070EE66E010EE66EF1EC68
:1014400011F0E552E552E55201D0386B55EC03F04E
:10145000000909E00101382B020E385D02E3010E9C
:10146000386FFAEC04F065EC03F0000909E00101C3
:101470003851000802E3386B03D03807FAEC04F067
:101480005DEC03F0000901E117D201013851EA6A6D
:10149000390FE96E010E08D23B51020A33E0030A0C
:1014A0000FE0010A4EE1600EE66E440EE66EE66A5B
:1014B0007DEC13F0E552E552E552030EE66E0BD0DB
:1014C0004F0EE66E440EE66EE66A7DEC13F0E552D2
:1014D000E552E552E66AE66A010EE66EF1EC11F0BD
:1014E000E552E552E552020EE66E070EE66E010E7B
:1014F000E66EF1EC11F0E552E552E552010EE66EB2
:101500000E0E16D03E0EE66E440EE66EE66A7DECDA
:1015100013F0E552E552E552E66AE66A010EE66E20
:10152000F1EC11F0E552E552E552020EE66E070EBF
:10153000E66E010EE66EF1EC11F0E552E552E55271
:1015400001D03B6B55EC03F0000909E001013B2B96
:10155000030E3B5D02E3020E3B6FFAEC04F065EC18
:1015600003F000090AE001013B51000803E33B6B73
:10157000376B01D03B07FAEC04F05DEC03F0000997
:1015800001E19AD101013B51EA6A3C0FE96E010E7B
:101590008BD14FC14BF150C14CF151C14DF152C1F2
:1015A0004EF14E0E576F6DEC03F065EC03F0000941
:1015B00001E182D111D053C14BF154C14CF155C15D
:1015C0004DF156C14EF1520E576F6DEC03F065ECC4
:1015D00003F0000901E170D10101010E376F67D1FD
:1015E000530E576F040E4A6F6DEC03F065EC03F079
:1015F000000901E161D10101010E376FFAEC04F03D
:1016000001014A6B12003F51010A25E0010A42E143
:101610002C0EE66E440EE66EE66A7DEC13F0E552A3
:10162000E552E552030EE66EE66A010EE66EF1EC57
:1016300011F0E552E552E552020EE66E070EE66E37
:10164000010EE66EF1EC11F0E552E552E552010EA5
:10165000E66E0E0E16D01A0EE66E440EE66EE66AC2
:101660007DEC13F0E552E552E552E66AE66A010EBA
:10167000E66EF1EC11F0E552E552E552020EE66E2F
:10168000070EE66E010EE66EF1EC11F0E552E55242
:10169000E55201D03F6B55EC03F0000909E0010170
:1016A0003F2B020E3F5D02E3010E3F6FFAEC04F0A8
:1016B00065EC03F000090AE001013F51000803E373
:1016C0003F6B376B01D03F07FAEC04F05DEC03F0A1
:1016D000000901E1F1D001013F51EA6A400FE96ED2
:1016E000010EE2D04251010A25E0010A42E1090E51
:1016F000E66E440EE66EE66A7DEC13F0E552E552C6
:10170000E552030EE66EE66A010EE66EF1EC11F0AC
:10171000E552E552E552020EE66E070EE66E010E48
:10172000E66EF1EC11F0E552E552E552010EE66E7F
:101730000E0E16D0F80EE66E430EE66EE66A7DECEF
:1017400013F0E552E552E552E66AE66A010EE66EEE
:10175000F1EC11F0E552E552E552020EE66E070E8D
:10176000E66E010EE66EF1EC11F0E552E552E5523F
:1017700001D0426B55EC03F0000909E00101422B56
:10178000020E425D02E3010E426FFAEC04F065ECDA
:1017900003F000090BE001014251000804E3426B31
:1017A000050E376F01D04207FAEC04F05DEC03F050
:1017B000000901E181D001014251EA6A430FE96E5B
:1017C000010E72D045EF05F063EF06F04251010AB9
:1017D00025E0010A42E1090EE66E440EE66EE66A75
:1017E0007DEC13F0E552E552E552030EE66EE66A33
:1017F000010EE66EF1EC11F0E552E552E552020EF3
:10180000E66E070EE66E010EE66EF1EC11F0E552A3
:10181000E552E552010EE66E0E0E16D0F80EE66E9B
:10182000430EE66EE66A7DEC13F0E552E552E552B2
:10183000E66AE66A010EE66EF1EC11F0E552E55259
:10184000E552020EE66E070EE66E010EE66EF1EC54
:1018500011F0E552E552E55201D0426B55EC03F030
:10186000000909E00101422B020E425D02E3010E74
:10187000426FFAEC04F065EC03F000090BE00101A3
:101880004251000804E3426B050E376F01D0420756
:10189000FAEC04F05DEC03F000090EE001014251A6
:1018A000EA6A450FE96E010EEA22EFCF37F1FAEF4F
:0A18B00004F081EF07F043DC1200A2
:0618BA00D9CFE6FFE1CFEB
:1018C000D9FF040EE126DE6ADD6ADECF10F0DDCF3F
:1018D00011F0126A136A11AE02D012681368D9505F
:1018E000FB0FE96EFF0EDA20EA6EEE50105CEE5050
:1018F0001158EE501258EE5013581DE2020EDB6ADA
:10190000030EDB6A020EDBCF10F0030EDBCF11F00B
:10191000D890115004E6050E105C000E115806E236
:10192000020EDB2A030EEEE3DB2AECD7DF2A010EE0
:10193000CCE3DB2ACAD7040EE15C02E2E16AE5529D
:10194000E16EE552E7CFD9FF1200D9CFE6FFE1CF34
:10195000D9FF040EE126DE6ADD6ADECF10F0DDCFAE
:1019600011F0126A136A11AE02D012681368D950CE
:10197000FB0FE96EFF0EDA20EA6EEE50105CEE50BF
:101980001158EE501258EE5013581DE2020EDB6A49
:10199000030EDB6A020EDBCF10F0030EDBCF11F07B
:1019A000D890115004E6EE0E105C000E115806E2BD
:1019B000020EDB2A030EEEE3DB2AECD7DF2A010E50
:1019C000CCE3DB2ACAD7040EE15C02E2E16AE5520D
:1019D000E16EE552E7CFD9FF1200D9CFE6FFE1CFA4
:1019E000D9FF0F0E8116FE0EDB50F00B811281869F
:1019F000010EE66EE66AE66AE66AA7DFE552E552A0
:101A0000E552E5528196010EE66EE66AE66AE66AFE
:101A10009CDFE552E552E552E5520F0E8116FE0EAF
:101A2000DB38F00B81128186010EE66EE66AE66A0B
:101A3000E66A8BDFE552E552E552E5528196010EEA
:101A4000E66EE66AE66AE66A80DFE552E552E5524E
:101A5000E552E552E7CFD9FF1200D9CFE6FFE1CF3B
:101A6000D9FFE652936A190EE66EE66AE66AE66AFE
:101A70006CDFE552E552E552E5520F0E8116F80E85
:101A800081160F0E8116300E81128186010EE66ED0
:101A9000E66AE66AE66A59DFE552E552E552E55242
:101AA0008196010EE66EE66AE66AE66A4EDFE55268
:101AB000E552E552E5520F0E8116300E81128186F5
:101AC000010EE66EE66AE66AE66A3FDFE552E55237
:101AD000E552E5528196010EE66EE66AE66AE66A2E
:101AE00034DFE552E552E552E5520F0E8116300E15
:101AF00081128186010EE66EE66AE66AE66A25DFF5
:101B0000E552E552E552E5528196010EE66EE66A2F
:101B1000E66AE66A1ADFE552E552E552E5520F0E33
:101B20008116818A8186010EE66EE66AE66AE66AB9
:101B30000CDFE552E552E552E5528196010EE66E64
:101B4000E66AE66AE66A01DFE552E552E552E552E9
:101B5000280EE66E42DFE5520C0EE66E3EDFE552E1
:101B6000E552E552E7CFD9FF1200D9CFE6FFE1CF2A
:101B7000D9FF020EE126DF6A010EDB6A81940F0EA7
:101B8000E66EE66AE66AE66A98DEE552E552E552F6
:101B9000E5520F0E81128186E66EE66AE66AE66A13
:101BA0008CDEE552E552E552E5520F0E8114E76EE8
:101BB000010EE7CFDBFF81960F0EE66EE66AE66A5E
:101BC000E66A7BDEE552E552E552E5520F0E8112E0
:101BD0008186E66EE66AE66AE66A6FDEE552E552FF
:101BE000E552E5520F0E8114DF6E010EDB50DF125D
:101BF0008196010EE66EE66AE66AE66A5EDEE55208
:101C0000E552E552E552DF50106E020EE15C02E251
:101C1000E16AE552E16E1050E552E7CFD9FF1200BC
:101C2000D9CFE6FFE1CFD9FFE652DF6A9EDFDF6E54
:101C3000DFBEFCD7DF50E552E552E7CFD9FF1200F7
:101C4000D9CFE6FFE1CFD9FF0F0E8116FE0EDB5094
:101C500081128186050EE66EE66AE66AE66A2DDE88
:101C6000E552E552E552E5528196050EE66EE66ACA
:101C7000E66AE66A22DEE552E552E552E552E552B1
:101C8000E7CFD9FF1200D9CFE6FFE1CFD9FF81948A
:101C9000050EE66EE66AE66AE66A0FDEE552E55292
:101CA000E552E552FE0EDBCFE6FFCADFE552FE0E3F
:101CB000DB38F00BE66EC4DFE552E552E7CFD9FF23
:101CC0001200D9CFE6FFE1CFD9FF8184050EE66E81
:101CD000E66AE66AE66AF1DDE552E552E552E5526A
:101CE000FE0EDBCFE6FFACDFE552FE0EDB38F00B7D
:101CF000E66EA6DFE5528194E552E7CFD9FF1200E8
:101D0000D9CFE6FFE1CFD9FFFE0EDBCFE6FFD9DF6B
:101D1000E552E552E7CFD9FF1200D9CFE6FFE1CF78
:101D2000D9FFFE0EDBCFE6FFCCDFE552E552E7CF71
:101D3000D9FF1200D9CFE6FFE1CFD9FFFD0EDBCFEF
:101D4000F6FFFE0EDBCFF7FF0800F5500FE0FD0EAB
:101D5000DBCFF6FFDB2AFE0EDBCFF7FF01E3DB2A4A
:101D60000800F550E66ED9DFE552E8D7E552E7CF37
:101D7000D9FF1200D9CFE6FFE1CFD9FFE652FD0E21
:101D8000DB500F0B106EFE0EDB50010B400DF350BD
:101D90001024DF6E7F0EDF14800FDF6EDFCFE6FFD3
:101DA00072DFE552E552E552E7CFD9FF1200010E8E
:101DB000E66E69DFE552E66AE66ADCDFE552E55287
:101DC0001200D9CFE6FFE1CFD9FF050EE126010EC3
:101DD000F36EDB6E020EDB6A030EDB6A040EDB6A57
:101DE000DF6ADFCF10F0116A10BE1168FB0EDBCF87
:101DF00012F0FC0EDBCF13F011501318E8AE02D036
:101E0000133404D01250105C135011582DE2FD0E03
:101E1000DBCF10F0FE0EDBCF11F0126A136A11AEA9
:101E200002D012681368D950010FE96EDACFEAFFC9
:101E300010C00BF011C00CF012C00DF013C00EF06A
:101E4000EECF06F0EECF07F0EECF08F0EFCF09F0BF
:101E50000EEC25F005C0EDFF04C0EDFF03C0EDFF63
:101E600002C0EFFFDF2ABDD7010EDBCF10F0020E5C
:101E7000DBCF11F0030EDBCF12F0040EDBCF13F03B
:101E800010C006F011C007F012C008F013C009F02E
:101E9000050EE15C02E2E16AE552E16EE552E7CF50
:101EA000D9FF1200D9CFE6FFE1CFD9FF020EE1261C
:101EB000DF6AFB0EDBCF10F0FC0EDBCF11F0FD0E66
:101EC000DBCF12F0FE0EDBCF13F01050111012100A
:101ED000131005E1300EE66E20DFE552F4D0D95044
:101EE000FB0FE96EFF0EDA20EA6ED890030EEB507E
:101EF000000A08E6000EEE5C000EEE58000EEE58EA
:101F0000000EEE5815E22D0EE66E07DFE552D950B1
:101F1000FB0FE96EFF0EDA20EA6E000EEE6CEF1E8C
:101F2000EE22EF1EEE22EF1EEF22ED52ED52ED52A9
:101F3000DE52070EDD6E010EDBCF10F0000EE76EF5
:101F40001018E8AE02D0103403D0E750D8801054F7
:101F500001E3B9D0010EDB04146E156A14BE1568D6
:101F600014C0E6FF15C0E6FF0A0EE66EE66A29DF3A
:101F7000E552E552E552E55206C010F007C011F0F7
:101F800008C012F009C013F006C00BF007C00CF037
:101F900008C00DF009C00EF0FB0EDBCF06F0FC0E02
:101FA000DBCF07F0FD0EDBCF08F0FE0EDBCF09F034
:101FB00046EC25F0065007100810091041E0010E0C
:101FC000DF6EDB04186E196A18BE196818C0E6FFC8
:101FD00019C0E6FF0A0EE66EE66AF3DEE552E55248
:101FE000E552E55206C014F007C015F008C016F01F
:101FF00009C017F006C00BF007C00CF008C00DF0C8
:1020000009C00EF0FB0EDBCF06F0FC0EDBCF07F0B5
:10201000FD0EDBCF08F0FE0EDBCF09F046EC25F01D
:1020200006C010F007C011F008C012F009C013F08C
:10203000300E1026000E112212221322105003D04F
:10204000DF5004E0300EE66E68DEE552010EDB0480
:10205000146E156A14BE156814C0E6FF15C0E6FFBD
:102060000A0EE66EE66AADDEE552E552E552E5524D
:1020700006C010F007C011F008C012F009C013F03C
:10208000D950FB0FE96EFF0EDA20EA6E06C00BF0A6
:1020900007C00CF008C00DF009C00EF0EECF06F03E
:1020A000EECF07F0EECF08F0EFCF09F046EC25F0C9
:1020B00005C0EDFF04C0EDFF03C0EDFF02C0EFFF60
:1020C000010EDB0638D7020EE15C02E2E16AE5525E
:1020D000E16EE552E7CFD9FF1200D9CFE6FFE1CF9D
:1020E000D9FFFD0EDBCFE6FFFE0EDBCFE6FF42DEC3
:1020F000E552E552D950F90FE96EFF0EDA20EA6E8B
:10210000EECFE6FFEECFE6FFEECFE6FFEFCFE6FF46
:10211000C9DEE552E552E552E552E552E7CFD9FF77
:102120001200D9CFE6FFE1CFD9FFFD0EDBCFE6FFEE
:10213000FE0EDBCFE6FF1EDEE552E552FB0EDBCFE7
:10214000E6FFFC0EDBCFE6FFF5DDE552E552E5529A
:10215000E7CFD9FF1200D9CFE6FFE1CFD9FF7BCF80
:1021600010F07CCF11F0040ED89010361136E8062E
:10217000FBE1410E10260F0E112210500F017D259C
:10218000E96E11507E21EA6EFE0EDBCFEFFF7D2B54
:10219000000E7E23E552E7CFD9FF1200D9CFE6FF2C
:1021A000E1CFD9FFE652DF6ADFCF10F0100EE76E05
:1021B0001018E8AE02D0E73402D0E750105C18E205
:1021C000DFCFE9FFEA6AE9BEEA68410EE9260F0EB1
:1021D000EA22200EEF6EDFCFE9FFEA6AE9BEEA6885
:1021E000510EE9260F0EEA22200EEF6EDF2ADCD711
:1021F000E552E552E7CFD9FF1200D9CFE6FFE1CF94
:10220000D9FFE6520F014051030A52E0010A36E0BD
:10221000030A1AE0010A67E1E66AE66AABDDE55205
:10222000E552DF6A080EDF5C0CE2DF50EA6A410F1C
:10223000E96E0F0EEA22EF50E66E6FDDE552DF2AFF
:10224000F1D70F01010E32D0080EE66EE66A92DD7C
:10225000E552E552DF6A080EDF5C0DE2080EDF246E
:10226000EA6A410FE96E0F0EEA22EF50E66E55DD85
:10227000E552DF2AF0D70F01020E18D0E66A010EF0
:10228000E66E78DDE552E552DF6A080EDF5C0CE2AF
:10229000DF50EA6A510FE96E0F0EEA22EF50E66E48
:1022A0003CDDE552DF2AF1D70F01030E406F1CD051
:1022B000080EE66E010EE66E5DDDE552E552DF6A60
:1022C000080EDF5C0DE2080EDF24EA6A510FE96EAA
:1022D0000F0EEA22EF50E66E20DDE552DF2AF0D73E
:1022E0000F01406B01D0406BE552E552E7CFD9FFBB
:1022F0001200D9CFE6FFE1CFD9FFE6520F014051DE
:10230000010A1BE0010A32E1E66AE66A33DDE552C2
:10231000E552DF6A100EDF5C0CE2DF50EA6A410F23
:10232000E96E0F0EEA22EF50E66EF7DCE552DF2A87
:10233000F1D70F01010E406F1AD0E66A010EE66E6A
:1023400019DDE552E552DF6A100EDF5C0CE2DF506A
:10235000EA6A510FE96E0F0EEA22EF50E66EDDDCFD
:10236000E552DF2AF1D70F01406B01D0406BE552F7
:10237000E552E7CFD9FF1200D9CFE6FFE1CFD9FF71
:10238000E652E66AE66AF6DCE552E552DF6A100ECE
:10239000DF5C0CE2DF50EA6A410FE96E0F0EEA22C1
:1023A000EF50E66EBADCE552DF2AF1D7E66A010E9D
:1023B000E66EE0DCE552E552DF6A100EDF5C0CE20F
:1023C000DF50EA6A510FE96E0F0EEA22EF50E66E17
:1023D000A4DCE552DF2AF1D7E552E552E7CFD9FF79
:1023E0001200D9CFE6FFE1CFD9FFFE0EDB50010B83
:1023F0000F017B6F7C6BFD0EDB500F0B7D6F7E6BD7
:10240000FC0EDB500A0802E1610E05D0FC0EDB5029
:102410000D0805E1640EF36EFC0EF3CFDBFF7BCFFE
:1024200010F07CCF11F0040ED89010361136E8066B
:10243000FBE1410E10260F0E112210500F017D25D9
:10244000E96E11507E21EA6EFC0EDBCFEFFFE55204
:10245000E7CFD9FF1200D9CFE6FFE1CFD9FF020EB7
:10246000E126DF6AFE0EDB50010B0F017B6F7C6BF8
:10247000FD0EDB500F0B7D6F7E6BF90EDBCF10F086
:10248000FA0EDBCF11F0FB0EDBCF12F0FC0EDBCF30
:1024900013F0105011101210131005E1300EE66EFB
:1024A0005ADEE552F5D0D950F90FE96EFF0EDA2069
:1024B000EA6ED890030EEB50000A08E6000EEE5CC0
:1024C000000EEE58000EEE58000EEE5815E22D0EDE
:1024D000E66E41DEE552D950F90FE96EFF0EDA20C3
:1024E000EA6E000EEE6CEF1EEE22EF1EEE22EF1EE5
:1024F000EF22ED52ED52ED52DE52070EDD6E010E6F
:10250000DBCF10F0000EE76E1018E8AE02D01034EA
:1025100003D0E750D880105401E3BAD0010EDB0499
:10252000146E156A14BE156814C0E6FF15C0E6FFE8
:102530000A0EE66EE66A45DCE552E552E552E552E2
:1025400006C010F007C011F008C012F009C013F067
:1025500006C00BF007C00CF008C00DF009C00EF06B
:10256000F90EDBCF06F0FA0EDBCF07F0FB0EDBCF68
:1025700008F0FC0EDBCF09F046EC25F00650071002
:102580000810091041E0010EDF6EDB04186E196AB5
:1025900018BE196818C0E6FF19C0E6FF0A0EE66EFD
:1025A000E66A0FDCE552E552E552E55206C014F04A
:1025B00007C015F008C016F009C017F006C00BF0F0
:1025C00007C00CF008C00DF009C00EF0F90EDBCF0B
:1025D00006F0FA0EDBCF07F0FB0EDBCF08F0FC0EA7
:1025E000DBCF09F046EC25F006C010F007C011F073
:1025F00008C012F009C013F0300E1026000E112290
:1026000012221322105003D0DF5004E0300EE66E89
:10261000A2DDE552010EDB04146E156A14BE1568C6
:1026200014C0E6FF15C0E6FF0A0EE66EE66AE1ECAE
:102630000EF0E552E552E552E55206C010F007C033
:1026400011F008C012F009C013F0D950F90FE96E6B
:10265000FF0EDA20EA6E06C00BF007C00CF008C0CF
:102660000DF009C00EF0EECF06F0EECF07F0EECF82
:1026700008F0EFCF09F046EC25F005C0EDFF04C0EF
:10268000EDFF03C0EDFF02C0EFFF010EDB0637D701
:10269000020EE15C02E2E16AE552E16EE552E7CF4B
:1026A000D9FF1200D9CFE6FFE1CFD9FFFE0EDB50F4
:1026B000010B0F017B6F7C6BFD0EDB500F0B7D6FF1
:1026C0007E6BFB0EDBCFF6FFFC0EDBCFF7FF0800C7
:1026D000F5500FE0FB0EDBCFF6FFDB2AFC0EDBCF65
:1026E000F7FF01E3DB2A0800F550E66E34DDE55222
:1026F000E8D7E552E7CFD9FF1200D9CFE6FFE1CF07
:10270000D9FF020EE126DE6ADD6AFE0EDB50010B08
:102710000F017B6F7C6B7D6B7E6BDE6ADD6ADECFCB
:1027200010F0DDCF11F0D890115004E6100E105CBF
:10273000000E11581EE2FC0EDBCFF6FFFD0EDBCFC4
:10274000F7FF0800F5500CE0FC0EDBCFF6FFDB2AAC
:10275000FD0EDBCFF7FF01E3DB2A0800F55001D0C7
:10276000200EE66EF8DCE552DF2A010ED8E3DB2A04
:10277000D6D7020EE15C02E2E16AE552E16EE55273
:10278000E7CFD9FF1200D9CFE6FFE1CFD9FF040E82
:10279000E126DE6ADD6A020EDB6A030EDB6AFC0EEE
:1027A000DB50080DF350E66ED950020FE96EDACF18
:1027B000EAFFE552E750EE6EED6A400EE76E020E5C
:1027C000DBCF10F0030EDBCF11F0E7501012020E3A
:1027D00010C0DBFF030E11C0DBFF020EDBCFE6FFF4
:1027E00043EC0EF0E552DE6ADD6ADECF10F0DDCF9D
:1027F00011F0080E105C000E115828E2FD0EDBCF20
:1028000010F0FE0EDBCF11F0DE501024E96EDD502B
:102810001120EA6EEF50E66E61EC0EF0E552010E0B
:10282000E76E020EDBCF10F0030EDBCF11F0E750A6
:102830001026000E1122020E10C0DBFF030E11C085
:10284000DBFFDF2A010ED1E3DB2ACFD7040EE15CE8
:1028500002E2E16AE552E16EE552E7CFD9FF1200EC
:10286000E66A000EE66E0F0EE66E8DDFE552E5526B
:10287000E552010EE66E080EE66E0F0EE66E83DF81
:10288000E552E552E552020EE66E100EE66E0F0EB0
:10289000E66E79DFE552E552E552030EE66E180E5C
:1028A000E66E0F0EE66E6FDFE552E552E55212005E
:1028B0000101320EB66F3B0EB76F170EB86F1200E4
:1028C00058EF14F00101B629106E3C0E116E0E6E19
:1028D00010C009F0D7EC25F005C0B6F10101055094
:1028E00019E1B729106E3C0E116E0E6E10C009F082
:1028F000D7EC25F005C0B7F1010105500BE1B8296F
:10290000106E180E116E0E6E10C009F0D7EC25F087
:1029100005C0B8F112000A0E0101B85D1CE2D40E28
:10292000E66E450EE66E040EE66EE66A52EC13F0B5
:10293000E552E552E552E552B8C110F0116A126A4B
:10294000136AB8C1E6FF11C0E6FF12C0E6FF13C06C
:10295000E6FF050E0ED0B8C110F0116A126A136AB4
:10296000B8C1E6FF11C0E6FF12C0E6FF13C0E6FFE4
:10297000040EE66EE66A2BEC12F0146E060EE15EB3
:102980001450D20EE66E450EE66E060EE66EE66A50
:1029900052EC13F0E552E552E552E5520A0E010100
:1029A000B75D1CE2D40EE66E450EE66E070EE66ECF
:1029B000E66A52EC13F0E552E552E552E552B7C132
:1029C00010F0116A126A136AB7C1E6FF11C0E6FF80
:1029D00012C0E6FF13C0E6FF080E0ED0B7C110F01C
:1029E000116A126A136AB7C1E6FF11C0E6FF12C08E
:1029F000E6FF13C0E6FF070EE66EE66A2BEC12F068
:102A0000146E060EE15E1450D20EE66E450EE66EB2
:102A1000090EE66EE66A52EC13F0E552E552E55215
:102A2000E5520A0E0101B65D1CE2D40EE66E450EBB
:102A3000E66E0A0EE66EE66A52EC13F0E552E552D7
:102A4000E552E552B6C110F0116A126A136AB6C1B6
:102A5000E6FF11C0E6FF12C0E6FF13C0E6FF0B0E53
:102A60000ED0B6C110F0116A126A136AB6C1E6FF41
:102A700011C0E6FF12C0E6FF13C0E6FF0A0EE66EC5
:102A8000E66A2BEC12F0146E060EE15E1450120092
:102A9000D9CFE6FFE1CFD9FF0A0EF36EFE0EDBCFF2
:102AA000F4FFF350F45C1DE2D40EE66E450EE66EC4
:102AB000040EE66EE66A52EC13F0E552E552E5527A
:102AC000E552FE0EDBCF10F0116A126A136A10C0D5
:102AD000E6FF11C0E6FF12C0E6FF13C0E6FF050ED9
:102AE0000FD0FE0EDBCF10F0116A126A136A10C00D
:102AF000E6FF11C0E6FF12C0E6FF13C0E6FF040EBA
:102B0000E66EE66A2BEC12F0146E060EE15E1450CF
:102B1000D20EE66E450EE66E060EE66EE66A52ECE4
:102B200013F0E552E552E552E5520A0EF36EFD0E42
:102B3000DBCFF4FFF350F45C1DE2D40EE66E450EDD
:102B4000E66E070EE66EE66A52EC13F0E552E552C9
:102B5000E552E552FD0EDBCF10F0116A126A136ADE
:102B600010C0E6FF11C0E6FF12C0E6FF13C0E6FF8B
:102B7000080E0FD0FD0EDBCF10F0116A126A136A37
:102B800010C0E6FF11C0E6FF12C0E6FF13C0E6FF6B
:102B9000070EE66EE66A2BEC12F0146E060EE15E8E
:102BA0001450D20EE66E450EE66E090EE66EE66A2B
:102BB00052EC13F0E552E552E552E5520A0EF36E7F
:102BC000FC0EDBCFF4FFF350F45C1DE2D40EE66E96
:102BD000450EE66E0A0EE66EE66A52EC13F0E5521A
:102BE000E552E552E552FC0EDBCF10F0116A126A95
:102BF000136A10C0E6FF11C0E6FF12C0E6FF13C063
:102C0000E6FF0B0E0FD0FC0EDBCF10F0116A126A3C
:102C1000136A10C0E6FF11C0E6FF12C0E6FF13C042
:102C2000E6FF0A0EE66EE66A2BEC12F0146E060E54
:102C3000E15E1450E552E7CFD9FF12000101B55112
:102C4000060A01E12ED1030A01E1D6D0010A01E111
:102C50007ED0070A26E0010A1CE0030A01E029D120
:102C6000C10EE66E450EE66E010EE66E7DEC13F0CB
:102C7000E552E552E5524FDE3DEC05F0F3CF10F0A2
:102C8000F4CF11F0F350F41001E115D10101020E5F
:102C900011D1B6C1BBF1B7C1BAF1B8C1B9F1030ED8
:102CA00009D1BBC1E6FFBAC1E6FFB9C1E6FFF0DE5C
:102CB000E552E552E55201015A515B1116E15C51B2
:102CC0005D1113E101010A0EBF5D000EC0590DE256
:102CD000BE0EE66E450EE66E040EE66EE66A52EC39
:102CE00013F0E552E552E552E55201EC05F0F3CF61
:102CF00010F0F4CF11F0F350F4100CE00101B929F9
:102D0000106E180E116E0E6E10C009F0D7EC25F083
:102D100005C0B9F11FEC05F0F3CF10F0F4CF11F0BE
:102D2000F350F41007E00101B907B951170802E2A6
:102D3000170EB96F3DEC05F0F3CF10F0F4CF11F0A2
:102D4000F350F41001E1B7D00101040EB3D0BBC1C0
:102D5000E6FFBAC1E6FFB9C1E6FF9ADEE552E552E9
:102D6000E55201015A515B1116E15C515D1113E10D
:102D700001010A0EBF5D000EC0590DE2BE0EE66EE7
:102D8000450EE66E070EE66EE66A52EC13F0E5526B
:102D9000E552E552E55201EC05F0F3CF10F0F4CF27
:102DA00011F0F350F4100CE00101BA29106E3C0E42
:102DB000116E0E6E10C009F0D7EC25F005C0BAF107
:102DC0001FEC05F0F3CF10F0F4CF11F0F350F41036
:102DD00007E00101BA07BA513B0802E23B0EBA6FA5
:102DE0003DEC05F0F3CF10F0F4CF11F0F350F410F8
:102DF00062E00101050E5ED0BBC1E6FFBAC1E6FF8D
:102E0000B9C1E6FF45DEE552E552E55201015A51EE
:102E10005B1116E15C515D1113E101010A0EBF5D0A
:102E2000000EC0590DE2BE0EE66E450EE66E0A0EAD
:102E3000E66EE66A52EC13F0E552E552E552E552D1
:102E400001EC05F0F3CF10F0F4CF11F0F350F410D3
:102E50000CE00101BB29106E3C0E116E0E6E10C00D
:102E600009F0D7EC25F005C0BBF11FEC05F0F3CF5E
:102E700010F0F4CF11F0F350F41007E00101BB079C
:102E8000BB513B0802E23B0EBB6F3DEC05F0F3CFBC
:102E900010F0F4CF11F0F350F4100DE00101060E24
:102EA00009D0BBC1B6F1BAC1B7F1B9C1B8F1010ED1
:102EB00001D0010EB56F010E0101BF25BF6F000EDD
:102EC000C021C06F140E0D6E0E6ABFC108F0C0C1E4
:102ED00009F0A3EC25F004C0BFF105C0C0F1120059
:102EE0000101B551050A01E1D5D0010A01E17DD00A
:102EF000070A25E0020A01E022D1C10EE66E450E66
:102F0000E66E010EE66E7DEC13F0E552E552E552F9
:102F1000BEC1E6FFBDC1E6FFBCC1E6FFB9DDE552BB
:102F2000E552E5523DEC05F0F3CF10F0F4CF11F08F
:102F3000F350F41001E105D10101030E01D1BEC12E
:102F4000E6FFBDC1E6FFBCC1E6FFA2DDE552E552EA
:102F5000E55201015A515B1116E15C515D1113E11B
:102F600001010A0EBF5D000EC0590DE2BE0EE66EF5
:102F7000450EE66E040EE66EE66A52EC13F0E5527C
:102F8000E552E552E55201EC05F0F3CF10F0F4CF35
:102F900011F0F350F4100CE00101BC29106E180E72
:102FA000116E0E6E10C009F0D7EC25F005C0BCF113
:102FB0001FEC05F0F3CF10F0F4CF11F0F350F41044
:102FC00007E00101BC07BC51170802E2170EBC6FF5
:102FD0003DEC05F0F3CF10F0F4CF11F0F350F41006
:102FE00001E1AFD00101040EABD0BEC1E6FFBDC10F
:102FF000E6FFBCC1E6FF4CDDE552E552E5520101BA
:103000005A515B1116E15C515D1113E101010A0E89
:10301000BF5D000EC0590DE2BE0EE66E450EE66EB7
:10302000070EE66EE66A52EC13F0E552E552E55201
:10303000E55201EC05F0F3CF10F0F4CF11F0F350AE
:10304000F4100CE00101BD29106E3C0E116E0E6EE5
:1030500010C009F0D7EC25F005C0BDF11FEC05F05C
:10306000F3CF10F0F4CF11F0F350F41007E00101AA
:10307000BD07BD513B0802E23B0EBD6F3DEC05F0C4
:10308000F3CF10F0F4CF11F0F350F4105AE0010137
:10309000050E56D0BEC1E6FFBDC1E6FFBCC1E6FFCE
:1030A000F7DCE552E552E55201015A515B1116E198
:1030B0005C515D1113E101010A0EBF5D000EC059A4
:1030C0000DE2BE0EE66E450EE66E0A0EE66EE66A8E
:1030D00052EC13F0E552E552E552E55201EC05F0F1
:1030E000F3CF10F0F4CF11F0F350F4100CE0010125
:1030F000BE29106E3C0E116E0E6E10C009F0D7EC9A
:1031000025F005C0BEF11FEC05F0F3CF10F0F4CFB1
:1031100011F0F350F41007E00101BE07BE513B0867
:1031200002E23B0EBE6F3DEC05F0F3CF10F0F4CFA2
:1031300011F0F350F41005E00101010E01D0010E71
:10314000B56F010E0101BF25BF6F000EC021C06F1A
:10315000140E0D6E0E6ABFC108F0C0C109F0A3ECD9
:1031600025F004C0BFF105C0C0F112000101010E3D
:103170005A1901E15B5116E0140ED8805A55000E21
:103180005B5511E25AC110F05BC111F0050E0D6ED6
:103190000E6A5AC108F05BC109F0A3EC25F0045097
:1031A000051001E1010C000C0101010E5C1901E1A7
:1031B0005D5116E0140ED8805C55000E5D5511E28D
:1031C0005CC110F05DC111F0050E0D6E0E6A5CC1A0
:1031D00008F05DC109F0A3EC25F00450051001E1F1
:1031E000010C000C0101010E5E1903E15F5101E1C8
:0431F000010C000CC2
:0C31F4000F0E946E82681200070E9410FB
:10320000946EDF0E9414946E82681200D9CFE6FF9C
:10321000E1CFD9FF040EE126DE6ADD6ADECF10F0D1
:10322000DDCF11F0D890115004E6040E105C000EB2
:10323000115801E390D0DECFE9FFDDCFEAFF7A0E2F
:10324000E926010EEA22EF1C826E020EDB6A030EF3
:10325000DB6A020EDBCF10F0030EDBCF11F0D8904B
:10326000115004E6040E105C000E11586EE2020EBE
:10327000DBCFE9FF030EDBCFEAFF7E0EE926010E6E
:10328000EA22EF5082143FE1DECF14F0DDCF15F0DB
:10329000D89014361536D89014361536020EDB50F9
:1032A0001424E96E030EDB501520EA6ED890E9363F
:1032B000EA365A0EE926010EEA22EECF12F0EFCFDF
:1032C00013F0010E1226000E1322DECF10F0DDCF18
:1032D00011F0D89010361136D89010361136020EF3
:1032E000DB501024E96E030EDB501120EA6ED890FB
:1032F000E936EA365A0EE926010EEA2212C0EEFF3E
:1033000013C0EDFF1BD0DECF10F0DDCF11F0D89051
:1033100010361136D89010361136020EDB501024BC
:10332000E96E030EDB501120EA6ED890E936EA36DA
:103330005A0EE926010EEA22EE6AED6A020EDB2A37
:10334000030E01E286D7DB2A84D7DF2A010E01E2D1
:1033500065D7DB2A63D7040EE15C02E2E16AE5523D
:10336000E16EE552E7CFD9FF1200D9CFE6FFE1CFFA
:10337000D9FF040EE126DE6ADD6ADECF10F0DDCF74
:1033800011F0D890115004E6020E105C000E115896
:1033900001E391D0DECFE9FFDDCFEAFF7A0EE92627
:1033A000010EEA22EF1C8214826E020EDB6A030E0B
:1033B000DB6A020EDBCF10F0030EDBCF11F0D890EA
:1033C000115004E6040E105C000E11586EE2020E5D
:1033D000DBCFE9FF030EDBCFEAFF7E0EE926010E0D
:1033E000EA22EF5082143FE1DECF14F0DDCF15F07A
:1033F000D89014361536D89014361536020EDB5098
:103400001424E96E030EDB501520EA6ED890E936DD
:10341000EA365A0EE926010EEA22EECF12F0EFCF7D
:1034200013F0010E1226000E1322DECF10F0DDCFB6
:1034300011F0D89010361136D89010361136020E91
:10344000DB501024E96E030EDB501120EA6ED89099
:10345000E936EA365A0EE926010EEA2212C0EEFFDC
:1034600013C0EDFF1BD0DECF10F0DDCF11F0D890F0
:1034700010361136D89010361136020EDB5010245B
:10348000E96E030EDB501120EA6ED890E936EA3679
:103490005A0EE926010EEA22EE6AED6A020EDB2AD6
:1034A000030E01E286D7DB2A84D7DF2A010E01E270
:1034B00064D7DB2A62D7040EE15C02E2E16AE552DE
:1034C000E16EE552E7CFD9FF1200D9CFE6FFE1CF99
:1034D000D9FF040EE126DE6ADD6A020EDB6A030E06
:1034E000DB6A01017A1D8214826E020EDB6A030E12
:1034F000DB6A020EDBCF10F0030EDBCF11F0D890A9
:10350000115004E6040E105C000E11586EE2020E1B
:10351000DBCFE9FF030EDBCFEAFF7E0EE926010ECB
:10352000EA22EF5082143FE1DECF14F0DDCF15F038
:10353000D89014361536D89014361536020EDB5056
:103540001424E96E030EDB501520EA6ED890E9369C
:10355000EA365A0EE926010EEA22EECF12F0EFCF3C
:1035600013F0010E1226000E1322DECF10F0DDCF75
:1035700011F0D89010361136D89010361136020E50
:10358000DB501024E96E030EDB501120EA6ED89058
:10359000E936EA365A0EE926010EEA2212C0EEFF9B
:1035A00013C0EDFF1BD0DECF10F0DDCF11F0D890AF
:1035B00010361136D89010361136020EDB5010241A
:1035C000E96E030EDB501120EA6ED890E936EA3638
:1035D0005A0EE926010EEA22EE6AED6A020EDB2A95
:1035E000030E01E286D7DB2A84D7040EE15C02E2F7
:1035F000E16AE552E16EE552E7CFD9FF1200D9CF7B
:10360000E6FFE1CFD9FF040EE126DE6ADD6A020E95
:10361000DB6A030EDB6A010EDE6EDD6ADECFE9FFD8
:10362000DDCFEAFF7A0EE926010EEA22EF1C8214B2
:10363000826E020EDB6A030EDB6A020EDBCF10F035
:10364000030EDBCF11F0D890115004E6030E105C8E
:10365000000E11586EE2020EDBCFE9FF030EDBCF46
:10366000EAFF7E0EE926010EEA22EF5082143FE1C6
:10367000DECF14F0DDCF15F0D89014361536D89083
:1036800014361536020EDB501424E96E030EDB509F
:103690001520EA6ED890E936EA365A0EE926010E70
:1036A000EA22EECF12F0EFCF13F0010E1226000E39
:1036B0001322DECF10F0DDCF11F0D8901036113686
:1036C000D89010361136020EDB501024E96E030E2E
:1036D000DB501120EA6ED890E936EA365A0EE92618
:1036E000010EEA2212C0EEFF13C0EDFF1BD0DECFA9
:1036F00010F0DDCF11F0D89010361136D89010367A
:103700001136020EDB501024E96E030EDB5011203F
:10371000EA6ED890E936EA365A0EE926010EEA2218
:10372000EE6AED6A020EDB2A030E01E286D7DB2A7F
:1037300084D7040EE15C02E2E16AE552E16EE552F3
:10374000E7CFD9FF1200D9CFE6FFE1CFD9FF040EB2
:10375000E126DE6ADD6ADECF10F0DDCF11F0FD0E6E
:10376000DBCF12F0FE0EDBCF13F011501318E8AED2
:1037700002D0133404D01250105C135011581DE2C3
:10378000020EDB6A030EDB6A020EDBCF10F0030EC3
:10379000DBCF11F0D890115004E6EE0E105C000E55
:1037A000115806E2020EDB2A030EEEE3DB2AECD709
:1037B000DF2A010ED0E3DB2ACED7040EE15C02E261
:1037C000E16AE552E16EE552E7CFD9FF1200D9CFA9
:1037D000E6FFE1CFD9FF040EE126DE6ADD6ADECF27
:1037E00010F0DDCF11F0D890115004E6040E105CFB
:1037F000000E115875E2DECFE9FFDDCFEAFF7A0E49
:10380000E926010EEA22EF1C826E020EDB6A030E2D
:10381000DB6A020EDBCF10F0030EDBCF11F0D89085
:10382000115004E6040E105C000E11584AE2DECF7F
:1038300010F0DDCF11F0D89010361136D890103638
:103840001136020EDB501024E96E030EDB501120FE
:10385000EA6ED890E936EA365A0EE926010EEA22D7
:10386000EE6AED6A020EDBCFE9FF030EDBCFEAFF63
:103870007E0EE926010EEA22EF5082141CE1DECF13
:1038800010F0DDCF11F0D89010361136D8901036E8
:103890001136020EDB501024E96E030EDB501120AE
:1038A000EA6ED890E936EA365A0EE926010EEA2287
:1038B000010EEE6EED6A020EDB2A030EAAE3DB2A8E
:1038C000A8D78250816EE80EE66E030EE66E3BDFEF
:1038D000E552E552DF2A010E01E281D7DB2A7FD7CC
:1038E000040EE15C02E2E16AE552E16EE552E7CFE7
:1038F000D9FF1200D9CFE6FF040EE12684B005D02F
:1039000001015A2B000E5B2303D001015A6B5B6B44
:1039100084B204D05C2B000E5D2302D05C6B5D6B27
:1039200084B404D05E2B000E5F2302D05E6B5F6B0D
:1039300082B004D0602B000E612302D0606B616BFB
:1039400082B204D0622B000E632302D0626B636BE1
:1039500082B404D0642B000E652302D0646B656BC7
:1039600082BA04D0662B000E672302D0666B676BA9
:1039700081B004D0682B000E692302D0686B696B9C
:10398000040EE15C02E2E16AE552E16EE552E7CF46
:10399000D9FF1200070E9610966E270E9410946EA3
:0839A000010E9310936E12005A
:0839A800D9CFE6FFE1CFD9FF02
:1039B000D59EFD0EDBCF82F1FE0EDBCF83F1D59CD1
:1039C00013681468156A82C116F083C117F0186A6B
:1039D0001650135C106E17501458116E185015586D
:1039E000126E0C6A010E0D6E0E6A10C007F011C047
:1039F00008F012C009F04AEC24F00350D66E1368A8
:103A00001468156A82C116F083C117F0186A16503F
:103A1000135C106E17501458116E18501558126E12
:103A20000C6A010E0D6E0E6A10C007F011C008F08E
:103A300012C009F04AEC24F007C010F008C011F0E1
:103A400009C012F00750D76ED59AD586F28AF29443
:103A5000F184D58EE552E7CFD9FF1200D59E120032
:103A600013681468156A82C116F083C117F0186ACA
:103A70001650135C106E17501458116E18501558CC
:103A8000126E0C6A010E0D6E0E6A10C007F011C0A6
:103A900008F012C009F04AEC24F00350D66E136807
:103AA0001468156A82C116F083C117F0186A16509F
:103AB000135C106E17501458116E18501558126E72
:103AC0000C6A010E0D6E0E6A10C007F011C008F0EE
:103AD00012C009F04AEC24F007C010F008C011F041
:103AE00009C012F00750D76ED58E1200D9CFE6FF6D
:103AF000E1CFD9FFCD90FD0EDBCF84F1FE0EDBCF01
:103B000085F113681468156A84C116F085C117F031
:103B1000186A1650135C106E17501458116E185016
:103B20001558126E0C6A010E0D6E0E6A10C007F069
:103B300011C008F012C009F04AEC24F00750CF6E13
:103B400013681468156A84C116F085C117F0186AE5
:103B50001650135C106E17501458116E18501558EB
:103B6000126E0C6A010E0D6E0E6A10C007F011C0C5
:103B700008F012C009F04AEC24F003C010F004C0B1
:103B800011F005C012F00350CE6E9D809E909F9064
:103B9000CD8ECD8CCD98CD9ACD96CD92CD80E5525F
:103BA000E7CFD9FF120013681468156A84C116F0B4
:103BB00085C117F0186A1650135C106E1750145810
:103BC000116E18501558126E0C6A010E0D6E0E6AA9
:103BD00010C007F011C008F012C009F04AEC24F040
:103BE0000750CF6E13681468156A84C116F085C13A
:103BF00017F0186A1650135C106E17501458116E97
:103C000018501558126E0C6A010E0D6E0E6A10C017
:103C100007F011C008F012C009F04AEC24F003C00C
:103C200010F004C011F005C012F00350CE6ECD802C
:103C30001200CD901200D9CFE6FFE1CFD9FFCA9490
:103C4000CC6AFE0EDB500101866F876BCB6E9D82C6
:103C50009E929F92CA90CA92CA84E552E7CFD9FF3A
:103C6000120086C1CBFFCA841200CA941200D9CFB9
:103C7000E6FFE1CFD9FFB190FD0EDBCF88F1FE0E5C
:103C8000DBCF89F113681468156A88C116F089C101
:103C900017F0186A1650135C106E17501458116EF6
:103CA00018501558126E0C6A010E0D6E0E6A10C077
:103CB00007F011C008F012C009F04AEC24F00750D8
:103CC000B36E13681468156A88C116F089C117F0BD
:103CD000186A1650135C106E17501458116E185055
:103CE0001558126E0C6A010E0D6E0E6A10C007F0A8
:103CF00011C008F012C009F04AEC24F003C010F023
:103D000004C011F005C012F00350B26EA082A1925F
:103D1000A292B18EB198B19AB192B180E552E7CF3B
:103D2000D9FF120013681468156A88C116F089C19A
:103D300017F0186A1650135C106E17501458116E55
:103D400018501558126E0C6A010E0D6E0E6A10C0D6
:103D500007F011C008F012C009F04AEC24F003503B
:103D6000B26E13681468156A88C116F089C117F01D
:103D7000186A1650135C106E17501458116E1850B4
:103D80001558126E0C6A010E0D6E0E6A10C007F007
:103D900011C008F012C009F04AEC24F007C010F07E
:103DA00008C011F009C012F00750B36EB1801200C4
:103DB000B19012000101922B000E93239A51925D53
:103DC0009B51935904E3926B936B010E8A6F12001F
:103DD0000101942B000E95239C51945D9D519559A2
:103DE00004E3946B956B010E8B6F12000101962B0F
:103DF000000E97239E51965D9F51975904E3966B51
:103E0000976B010E8C6F12000101982B000E992305
:103E1000A051985DA151995904E3986B996B010EDB
:103E20008D6F1200D9CFE6FFE1CFD9FFFD0EDBCFBA
:103E30009AF1FE0EDBCF9BF10101926B936B8A6BC3
:103E4000E552E7CFD9FF1200D9CFE6FFE1CFD9FF86
:103E5000FD0EDBCF9CF1FE0EDBCF9DF1050E0D6E4E
:103E60000E6A9CC108F09DC109F024EC24F008C042
:103E70009CF109C09DF10101946B956B8B6BE55230
:103E8000E7CFD9FF1200D9CFE6FFE1CFD9FFFD0E72
:103E9000DBCFA0F1FE0EDBCFA1F10A0E0D6E0E6A94
:103EA000A0C108F0A1C109F024EC24F008C0A0F1E1
:103EB00009C0A1F10101986B996B8D6BE552E7CFB9
:043EC000D9FF120014
:0C3EC400D9CFE6FFE1CFD9FF020EE126C6
:103ED000FE0EDB500F0BDF6EFE0EDB380F0B0A0DF4
:103EE000010EF3CFDBFFDB50DF24106E020EE15C2E
:103EF00002E2E16AE552E16E1050E552E7CFD9FFE8
:103F00001200D9CFE6FFE1CFD9FF020EE1260A0E5B
:103F1000106E0E6EFE0EDBCF09F0D7EC25F00550CB
:103F2000DF6E0A0E106E0E6EFE0EDBCF09F0D7ECC0
:103F300025F00950100D010EF3CFDBFFDB50DF241D
:103F4000106E020EE15C02E2E16AE552E16E105091
:103F5000E552E7CFD9FF120094869488C79EC79C8C
:103F6000C690C692C694C686310EC86EC68A120026
:103F7000D9CFE6FFE1CFD9FF9E96FE0EDB50D00FE2
:103F8000C96E9EA6FED7E552E7CFD9FF1200D9CF62
:103F9000E6FFE1CFD9FF9E96FE0EDB50A00FC96E63
:103FA0009EA6FED7E552E7CFD9FF12009E96C580A8
:103FB0009EA6FED712009E96C5849EA6FED712002E
:103FC000D9CFE6FFE1CFD9FF9E96FE0EDB50C96E3A
:103FD0009EA6FED7E552E7CFD9FF12009E96C58672
:103FE0009EA6FED7C95012009E96C59AC5889EA669
:103FF000FED712009E96C58AC5889EA6FED71200DF
:10400000D9CFE6FFE1CFD9FFD1DFE66AB1DFE552D4
:104010000101010ED66FE85004E0C550400BFAE0F4
:10402000F8D7FE0EDBCFE6FFCBDFE5520101010E34
:10403000D66FE85004E0C550400BFAE0F8D7FD0E0B
:10404000DBCFE6FF5EDFE552E66EBADFE552010147
:10405000010ED66FE85004E0C550400BFAE0F8D7E7
:10406000AADFE552E7CFD9FF1200D9CFE6FFE1CFB3
:10407000D9FF9CDFE66A8BDFE5520101010ED66FA6
:10408000E85004E0C550400BFAE0F8D7FE0EDBCF55
:10409000E6FF96DFE5520101010ED66FE85004E01D
:1040A000C550400BFAE0F8D7FD0EDBCF10F0FE0E46
:1040B000DBCF11F00001116A1050E66E81DFE5528E
:1040C0000101010ED66FE85004E0C550400BFAE044
:1040D000F8D7FC0EDBCFE6FF73DFE5520101010EDE
:1040E000D66FE85004E0C550400BFAE0F8D763DF24
:1040F000E552E7CFD9FF1200D9CFE6FFE1CFD9FFD4
:10410000E65254DFE66A34DFE5520101010ED66F54
:10411000E85004E0C550400BFAE0F8D7FE0EDBCFC4
:10412000E6FF4EDFE5520101010ED66FE85004E0D4
:10413000C550400BFAE0F8D739DF010EE66E18DF04
:10414000E5520101010ED66FE85004E0C550400B66
:10415000FAE0F8D743DFDF6EDFCFE6FFB3DEE552EC
:10416000DF6EDF50E552E552E7CFD9FF1200D9CF1D
:10417000E6FFE1CFD9FFE65219DFE66A08DFE55234
:104180000101010ED66FE85004E0C550400BFAE083
:10419000F8D7FE0EDBCFE6FF13DFE5520101010E7B
:1041A000D66FE85004E0C550400BFAE0F8D7FD0E9A
:1041B000DBCF10F0FE0EDBCF11F00001116A1050C2
:1041C000E66EFEDEE5520101010ED66FE85004E016
:1041D000C550400BFAE0F8D7E9DE010EE66ED7DEF7
:1041E000E5520101010ED66FE85004E0C550400BC6
:1041F000FAE0F8D7F3DEDF6EDF50E552E552E7CFA5
:04420000D9FF1200D0
:0C420400F28ED08EF28C1200F19CF2922F
:10421000F2881200D8CFE4FFE0CFE4FFE46EDACFFB
:10422000E4FFE2CFDAFFE9CFE4FFEACFE4FFF6CF25
:10423000E4FFF7CFE4FFF5CFE4FFF3CFE4FFF4CFE3
:10424000E4FFFACFE4FF00EE00F0100EE80403E311
:10425000EECFE4FFFBD700EE10F00A0EE80403E314
:10426000EECFE4FFFBD7E652F2A407D02EEC1DF010
:10427000F29430EC1DF0DAEC1EF09EA007D019ECA1
:104280001EF09E90D3EC1DF0E8EC1EF09EA207D02D
:1042900035EC1EF09E9231EC1EF0F6EC1EF0A1A261
:1042A00007D0D8EC1EF0A19292EC1EF004EC1FF0A7
:1042B000F2B2F2929EAA03D09E9A92EC23F0E552BB
:1042C00000EE19F00A0EE80403E3E5CFEDFFFBD79B
:1042D00000EE0FF0100EE80403E3E5CFEDFFFBD78F
:1042E000E5CFFAFFE5CFF4FFE5CFF3FFE5CFF5FF2C
:1042F000E5CFF7FFE5CFF6FFE5CFEAFFE5CFE9FF32
:10430000E5CFDAFFE550E5CFE0FFE5CFD8FF1000BD
:10431000DACFE4FFE2CFDAFFE9CFE4FFEACFE4FF50
:10432000F6CFE4FFF7CFE4FFF5CFE4FFF3CFE4FFF0
:10433000F4CFE4FFFACFE4FF00EE00F0100EE80443
:1043400003E3EECFE4FFFBD700EE10F00A0EE80423
:1043500003E3EECFE4FFFBD7E652F2A407D02EEC46
:104360001DF0F29430EC1DF0DAEC1EF09EA007D0A8
:1043700019EC1EF09E90D3EC1DF0E8EC1EF09EA20E
:1043800007D035EC1EF09E9231EC1EF0F6EC1EF0DC
:10439000A1A207D0D8EC1EF0A19292EC1EF004EC82
:1043A0001FF0F2B2F2929EAA03D09E9A92EC23F0F2
:1043B000E55200EE19F00A0EE80403E3E5CFEDFF45
:1043C000FBD700EE0FF0100EE80403E3E5CFEDFF9E
:1043D000FBD7E5CFFAFFE5CFF4FFE5CFF3FFE5CF5D
:1043E000F5FFE5CFF7FFE5CFF6FFE5CFEAFFE5CF35
:0843F000E9FFE5CFDAFF11003F
:0843F800202020322E50484124
:10440000534520322020202000202020312E5048EB
:104410004153452031202020200020322E52555378
:10442000482053455454494E47202000312E4E4FCA
:10443000524D414C2053455454494E4720002020B2
:10444000332E534C4F57204D4F4445202020002001
:1044500020322E52555348204D4F444520202000F5
:1044600020312E4E4F524D414C204D4F444520207F
:1044700000202020322E53455454494E47202020FE
:104480002000312E444953504C4159204C49474853
:104490005453005048415345322059454C4C4F57D6
:1044A0003A2020200050484153453220475245458C
:1044B0004E203A2020200050484153453120475299
:1044C00045454E203A2020002020005048415345C9
:1044D000312059454C4C4F573A202020005048413C
:1044E00053453120475245454E203A202020002098
:1044F00020202020202020202020202020002020DC
:1045000020534C4F574C592052554E2120200050DB
:1045100048415345325F59454C4C4F573A20200093
:104520005048415345325F475245454E3A2020207E
:10453000005048415345315F59454C4C4F573A2044
:1045400020005048415345315F475245454E3A207F
:1045500020200050415353574F52442057524F4E42
:10456000472020004F50454E494E4720444F4F5260
:1045700020202020002A00454E544552205041530F
:1045800053574F524420200020202020202020205C
:10459000202020202020202000505245535320234B
:1045A00020464F522050415353004F4B00202020B3
:1045B000202020202020202020202020200020201B
:1045C00000312E555020322E444E20332E4D4F4474
:0645D00045003A00300036
:0A45D600B06A810EAF6EAC8AAC949F
:1045E000B886AC98AB8EAB889E9A9D8A9F9A949C15
:1045F000948E1200D9CFE6FFE1CFD9FF040EE12659
:10460000DE6ADD6ADECF10F0DDCF11F0FD0EDBCF0C
:1046100012F0FE0EDBCF13F011501318E8AE02D0EB
:10462000133404D01250105C135011581DE2020EC6
:10463000DB6A030EDB6A020EDBCF10F0030EDBCF6A
:1046400011F0D890115004E6EE0E105C000E1158D7
:1046500006E2020EDB2A030EEEE3DB2AECD7DF2AAA
:10466000010ED0E3DB2ACED7040EE15C02E2E16A60
:10467000E552E16EE552E7CFD9FF1200D9CFE6FF50
:10468000E1CFD9FF9EA8FED7FE0EDB50AD6E9E98FF
:10469000E552E7CFD9FF1200D9CFE6FFE1CFD9FF2E
:1046A000FD0EDBCFE9FFFE0EDBCFEAFFEF5010E09F
:1046B000FD0EDBCFE9FFFE0EDBCFEAFFEF50E66E2B
:1046C000DDDFE552FD0EDB2AFE0EEAE3DB2AE8D74A
:1046D000E552E7CFD9FF1200D9CFE6FFE1CFD9FFEE
:1046E000FD0EDBCFF6FFFE0EDBCFF7FF0800F55027
:1046F00015E0FD0EDBCFF6FFFE0EDBCFF7FF080067
:10470000F550E66EBBDFE552FD0EDBCFF6FFDB2A90
:10471000FE0EDBCFF7FFE4E3DB2AE2D7E552E7CF7B
:08472000D9FF120094EF23F011
:08472800D9CFE6FFE1CFD9FF74
:10473000E652AE50DF6EDFCFE6FF3EEC23F0E552EF
:104740000101A451050A2AE0010A21E0070A11E04B
:10475000010A0AE0020A02E0010A2AE1FF0EDF5C18
:1047600028E1A76B020E22D0FF0EDF5C15E1030EDD
:104770001DD0A751EA6A810FE96E000EEA22DFCF51
:10478000EFFFA72BA951A75D14E3040E0FD0FE0E77
:10479000DF5C02E1050E0AD0010E08D0FE0EDF5CE0
:1047A00004E1010EA56FA46B04D0010EA46F01D02B
:1047B000A46BE552E552E7CFD9FF120012000101C8
:1047C000A50541E1AD0EE66E450EE66EE66AE66AC7
:1047D00052EC13F0E552E552E552E5520001806BD0
:1047E0000101A9510001805D21E28051EA6A810F37
:1047F000E96E000EEA22EFCF10F0116A126A136A16
:1048000010C0E6FF11C0E6FF12C0E6FF13C0E6FFCE
:10481000030E8003F350E66EE66A2BEC12F0146E82
:10482000060EE15E14500001802BDAD7AA0EE66E68
:10483000450EE66E0E0EE66EE66A52EC13F0E55299
:08484000E552E552E5521200B9
:08484800006A0EAE2DEF24F012
:104850000D6C0E1EE86A0E22001E09AE35EF24F024
:10486000086C091EE86A0922001EA3EC25F009BEA7
:1048700045EF24F000AE000C086C091EE86A09221E
:10488000046C051EE86A0522000C00BE3CEF24F013
:104890000188FF0C006A0EAE55EF24F00C6C0D1E63
:1048A0000E1EE86A0D220E22001E09AE5FEF24F0F4
:1048B000076C081E091EE86A08220922001E6AEC1D
:1048C00025F009BE72EF24F000AE000C076C081E44
:1048D000091EE86A08220922036C041E051E042230
:0E48E0000522000C00BE66EF24F00188FF0CDC
:0248EE001E0E9C
:1048F000F66E000EF76E000EF86E01010900F5501D
:10490000C66F0900F550C76F03E1C66701D03DD0FF
:104910000900F550C16F0900F550C26F0900F5504C
:10492000C36F09000900F550E96E0900F550EA6E01
:10493000090009000900F550C46F0900F550C56F62
:1049400009000900F6CFC8F1F7CFC9F1F8CFCAF1D5
:10495000C1C1F6FFC2C1F7FFC3C1F8FF0101C453D3
:1049600002E1C55307E00900F550EE6EC407F8E216
:10497000C507F9D7C8C1F6FFC9C1F7FFCAC1F8FF1B
:0C4980000101C607000EC75BBFD7120084
:04498C00010E926E18
:104990000E0EC16EC26A040EC06EC2801200D9CF64
:1049A000E6FFE1CFD9FF020EE126DE6ADD6AC282B0
:1049B000C2B2FED7C450DE6EDD6ADECF12F0DDCFAC
:1049C00013F0D89012361336D89012361336060EDE
:1049D000C3CFE7FF070B04E0E742E79EE806FCE1F0
:1049E000E7501224106E000E132010C0DEFFDD6EA3
:1049F000DECF61FFDDCF62FFDECF10F0DDCF11F043
:104A000010C0F3FF11C0F4FF020EE15C02E2E16AA4
:0C4A1000E552E16EE552E7CFD9FF12003D
:044A1C0006500B0233
:104A2000F3CF02F0F4CF03F00C02F3500326000E94
:104A3000F420046E06500D02F3500426000EF420FC
:104A4000056E06500E02F350052607500B02F35078
:104A50000326F4500422000E052207500C02F350E6
:104A60000426F450052207500D02F3500526085085
:104A70000B02F3500426F450052208500C02F350A8
:0C4A8000052609500B02F3500526120019
:044A8C00056A046A49
:104A9000036A026A200EE76ED8900636073608369B
:104AA000093602360336043605360B50025C0C50CC
:104AB00003580D5004580E50055809E30B50025E80
:104AC0000C50035A0D50045A0E50055A062AE72E70
:044AD000E4D7120015
:0C4AD400056A046A036A180EE76ED890A9
:104AE0000736083609360336043605360C50035CA3
:104AF0000D5004580E50055807E30C50035E0D503E
:0E4B0000045A0E50055A072AE72EEAD7120073
:024B0E00CA9447
:104B1000CA90CA829B0ECB6EBD98BD9ABE6ABD9CE0
:104B2000BD9EBD90BD92BD84BD869494CA84120082
:104B3000D9CFE6FFE1CFD9FFFE0EDB50BE6EE552C6
:064B4000E7CFD9FF1200CF
:0A4B4600056A046A100EE76ED890AD
:104B500008360936043605360D50045C0E500558EB
:104B600005E30D50045E0E50055A082AE72EF0D7D3
:024B7000120031
:0E4B7200800EF36E00EE00F00F0E01D8120060
:104B8000EA6002D0EE6AFCD7F350E9601200EE6AE8
:024B9000FCD750
:0E4B92001EEE00F02EEE00F0F86A019C77ECAB
:0E4BA00024F003EC00F046EC00F0FBD712000E
:024BAE00056A96
:104BB000080EE76ED890093605360E50055C02E304
:0A4BC000056E092AE72EF7D7120050
:064BCA00000000000000E5
:104BD00000000000000000000000000000000000D5
:0A4BE00000000100010001000100C7
:064BEA00000000000000C5
:0D4BF00000050500000000000000000000AE
:034BFD00010000B4
:094C0000000000000000000000AB
:074C09000102040810204025
:104C100080000000000000000001020341040506BE
:104C200042070809432A0045440102030402070819
:104C300009030303030408060805414243FF00007B
:104C400000000105000203040006070008090A0B22
:104C5000000000FF00000000190314030F030A0501
:034C6000580000F9
:0D4C63000103070F0703010010181C1E1CA1
:104C700018100000040E1F0E0400000004081F0896
:104C80000400001E1E1E1E1E1E1E001F1F1F1F1FB3
:104C90001F1F0000000000000000000000000000D6
:104CA0000000000000000000000000000000000004
:104CB00000000000000000000000000000000000F4
:044CC00000000000F0
:0C4CC400000000D0002222220725091069
:0F4CD000000100000000000000000000000000D4
:014CDF0000D4
:104CE00000000000000000000000000000000000C4
:104CF00000000000000000000000000000000010A4
:074D000020408001020408BD
:020000040030CA
:0100010002FC
:0100020003FA
:010003001EDE
:010005008179
:010006008178
:010008000FE8
:01000900C036
:01000A000FE6
:01000B00E014
:01000C000FE4
:01000D0040B2
:00000001FF
