:020000040000FA
:0600000051EF1CF012009C
:020006001200E6
:060008006BEF18F012007E
:02000E000000F0
:020010000000EE
:06001800EDEF17F01200ED
:02001E000800D8
:10002000D13900004801000028000000B639000066
:10003000E50000001B0000000E000000B4010000FD
:100040000400000055390000000F000061000000AE
:100050000D390000000100004800000037340000A6
:10006000B901000001000000FA3800009001000012
:1000700013000000DA3800007001000020000000CA
:10008000D9CFE6FFE1CFD9FF040EE126DE6ADD6AB3
:10009000DECF10F0DDCF11F0126A136A11AE02D07C
:1000A00012681368D950FB0FE96EFF0EDA20EA6E72
:1000B000EE50105CEE501158EE501258EE5013589E
:1000C0001DE2020EDB6A030EDB6A020EDBCF10F0CC
:1000D000030EDBCF11F0D890115004E6050E105C32
:1000E000000E115806E2020EDB2A030EEEE3DB2AB5
:1000F000ECD7DF2A010ECCE3DB2ACAD7040EE15C81
:1001000002E2E16AE552E16EE552E7CFD9FF120063
:10011000D9CFE6FFE1CFD9FF040EE126DE6ADD6A22
:10012000DECF10F0DDCF11F0126A136A11AE02D0EB
:1001300012681368D950FB0FE96EFF0EDA20EA6EE1
:10014000EE50105CEE501158EE501258EE5013580D
:100150001DE2020EDB6A030EDB6A020EDBCF10F03B
:10016000030EDBCF11F0D890115004E6EE0E105CB8
:10017000000E115806E2020EDB2A030EEEE3DB2A24
:10018000ECD7DF2A010ECCE3DB2ACAD7040EE15CF0
:1001900002E2E16AE552E16EE552E7CFD9FF1200D3
:1001A000D9CFE6FFE1CFD9FF0F0E8116FE0EDB504F
:1001B000F00B81128186010EE66EE66AE66AE66A57
:1001C000A7DFE552E552E552E5528196010EE66E53
:1001D000E66AE66AE66A9CDFE552E552E552E552D8
:1001E0000F0E8116FE0EDB38F00B81128186010E98
:1001F000E66EE66AE66AE66A8BDFE552E552E552AC
:10020000E5528196010EE66EE66AE66AE66A80DFEE
:10021000E552E552E552E552E552E7CFD9FF12002B
:10022000D9CFE6FFE1CFD9FFE652936A190EE66E09
:10023000E66AE66AE66A6CDFE552E552E552E552A7
:100240000F0E8116F80E81160F0E8116300E8112D8
:100250008186010EE66EE66AE66AE66A59DFE552D5
:10026000E552E552E5528196010EE66EE66AE66ACF
:10027000E66A4EDFE552E552E552E5520F0E811671
:10028000300E81128186010EE66EE66AE66AE66A43
:100290003FDFE552E552E552E5528196010EE66EEA
:1002A000E66AE66AE66A34DFE552E552E552E5526F
:1002B0000F0E8116300E81128186010EE66EE66AFF
:1002C000E66AE66A25DFE552E552E552E552819697
:1002D000010EE66EE66AE66AE66A1ADFE552E55264
:1002E000E552E5520F0E8116818A8186010EE66E77
:1002F000E66AE66AE66A0CDFE552E552E552E55247
:100300008196010EE66EE66AE66AE66A01DFE5526C
:10031000E552E552E552280EE66E42DFE5520C0E3C
:10032000E66E3EDFE552E552E552E7CFD9FF120017
:10033000D9CFE6FFE1CFD9FF020EE126DF6A010E39
:10034000DB6A81940F0EE66EE66AE66AE66A98DE7C
:10035000E552E552E552E5520F0E81128186E66EB6
:10036000E66AE66AE66A8CDEE552E552E552E55257
:100370000F0E8114E76E010EE7CFDBFF81960F0EA3
:10038000E66EE66AE66AE66A7BDEE552E552E5522B
:10039000E5520F0E81128186E66EE66AE66AE66A2B
:1003A0006FDEE552E552E552E5520F0E8114DF6E25
:1003B000010EDB50DF128196010EE66EE66AE66AF8
:1003C000E66A5EDEE552E552E552E552DF50106E18
:1003D000020EE15C02E2E16AE552E16E1050E55284
:1003E000E7CFD9FF1200D9CFE6FFE1CFD9FFE65220
:1003F000DF6A9EDFDF6EDFBEFCD7DF50E552E552DD
:10040000E7CFD9FF1200D9CFE6FFE1CFD9FF0F0E1A
:100410008116FE0EDB5081128186050EE66EE66ABD
:10042000E66AE66A2DDEE552E552E552E55281962E
:10043000050EE66EE66AE66AE66A22DEE552E552F7
:10044000E552E552E552E7CFD9FF1200D9CFE6FFDA
:10045000E1CFD9FF8194050EE66EE66AE66AE66AA8
:100460000FDEE552E552E552E552FE0EDBCFE6FF28
:10047000CADFE552FE0EDB38F00BE66EC4DFE55254
:10048000E552E7CFD9FF1200D9CFE6FFE1CFD9FF80
:100490008184050EE66EE66AE66AE66AF1DDE552FB
:1004A000E552E552E552FE0EDBCFE6FFACDFE5524A
:1004B000FE0EDB38F00BE66EA6DFE5528194E552C6
:1004C000E7CFD9FF1200D9CFE6FFE1CFD9FFFE0E6B
:1004D000DBCFE6FFD9DFE552E552E7CFD9FF1200C7
:1004E000D9CFE6FFE1CFD9FFFE0EDBCFE6FFCCDFB1
:1004F000E552E552E7CFD9FF1200D9CFE6FFE1CFB1
:10050000D9FFFD0EDBCFF6FFFE0EDBCFF7FF0800B5
:10051000F5500FE0FD0EDBCFF6FFDB2AFE0EDBCF42
:10052000F7FF01E3DB2A0800F550E66ED9DFE5525C
:10053000E8D7E552E7CFD9FF1200D9CFE6FFE1CFE8
:10054000D9FFE652FD0EDB500F0B106EFE0EDB5096
:10055000010B400DF3501024DF6E7F0EDF14800F6F
:10056000DF6EDFCFE6FF72DFE552E552E552E7CFFF
:10057000D9FF1200010EE66E69DFE552E66AE66A0F
:10058000DCDFE552E5521200D9CFE6FFE1CFD9FF1B
:10059000050EE126010EF36EDB6E020EDB6A030E22
:1005A000DB6A040EDB6ADF6ADFCF10F0116A10BE6F
:1005B0001168FB0EDBCF12F0FC0EDBCF13F01150F5
:1005C0001318E8AE02D0133404D01250105C13504C
:1005D00011582DE2FD0EDBCF10F0FE0EDBCF11F037
:1005E000126A136A11AE02D012681368D950010F53
:1005F000E96EDACFEAFF10C00BF011C00CF012C0A8
:100600000DF013C00EF0EECF06F0EECF07F0EECFF8
:1006100008F0EFCF09F096EC1BF005C0EDFF04C029
:10062000EDFF03C0EDFF02C0EFFFDF2ABDD7010ED3
:10063000DBCF10F0020EDBCF11F0030EDBCF12F098
:10064000040EDBCF13F010C006F011C007F012C08B
:1006500008F013C009F0050EE15C02E2E16AE55220
:10066000E16EE552E7CFD9FF1200D9CFE6FFE1CF27
:10067000D9FF020EE126DF6AFB0EDBCF10F0FC0E85
:10068000DBCF11F0FD0EDBCF12F0FE0EDBCF13F04F
:10069000105011101210131005E1300EE66E20DF1D
:1006A000E552F4D0D950FB0FE96EFF0EDA20EA6E66
:1006B000D890030EEB50000A08E6000EEE5C000E28
:1006C000EE58000EEE58000EEE5815E22D0EE66EB6
:1006D00007DFE552D950FB0FE96EFF0EDA20EA6E14
:1006E000000EEE6CEF1EEE22EF1EEE22EF1EEF224A
:1006F000ED52ED52ED52DE52070EDD6E010EDBCFF4
:1007000010F0000EE76E1018E8AE02D0103403D0DF
:10071000E750D880105401E3B9D0010EDB04146E09
:10072000156A14BE156814C0E6FF15C0E6FF0A0E70
:10073000E66EE66A29DFE552E552E552E55206C06B
:1007400010F007C011F008C012F009C013F006C085
:100750000BF007C00CF008C00DF009C00EF0FB0E46
:10076000DBCF06F0FC0EDBCF07F0FD0EDBCF08F091
:10077000FE0EDBCF09F0CEEC1BF006500710081080
:10078000091041E0010EDF6EDB04186E196A18BE15
:10079000196818C0E6FF19C0E6FF0A0EE66EE66AA1
:1007A000F3DEE552E552E552E55206C014F007C00B
:1007B00015F008C016F009C017F006C00BF007C00E
:1007C0000CF008C00DF009C00EF0FB0EDBCF06F0F8
:1007D000FC0EDBCF07F0FD0EDBCF08F0FE0EDBCF0B
:1007E00009F0CEEC1BF006C010F007C011F008C0F5
:1007F00012F009C013F0300E1026000E1122122242
:100800001322105003D0DF5004E0300EE66E68DE95
:10081000E552010EDB04146E156A14BE156814C08F
:10082000E6FF15C0E6FF0A0EE66EE66AADDEE552AB
:10083000E552E552E55206C010F007C011F008C0BD
:1008400012F009C013F0D950FB0FE96EFF0EDA2049
:10085000EA6E06C00BF007C00CF008C00DF009C02E
:100860000EF0EECF06F0EECF07F0EECF08F0EFCFB0
:1008700009F0CEEC1BF005C0EDFF04C0EDFF03C096
:10088000EDFF02C0EFFF010EDB0638D7020EE15C80
:1008900002E2E16AE552E16EE552E7CFD9FF1200CC
:1008A000D9CFE6FFE1CFD9FFFD0EDBCFE6FFFE0E8D
:1008B000DBCFE6FF42DEE552E552D950F90FE96E93
:1008C000FF0EDA20EA6EEECFE6FFEECFE6FFEECFC8
:1008D000E6FFEFCFE6FFC9DEE552E552E552E5520D
:1008E000E552E7CFD9FF1200D9CFE6FFE1CFD9FF1C
:1008F000FD0EDBCFE6FFFE0EDBCFE6FF1EDEE55290
:10090000E552FB0EDBCFE6FFFC0EDBCFE6FFF5DDAD
:10091000E552E552E552E7CFD9FF1200D9CFE6FF05
:10092000E1CFD9FF7BCF10F07CCF11F0040ED8902F
:1009300010361136E806FBE1410E10260F0E11228B
:1009400010500F017D25E96E11507E21EA6EFE0EDA
:10095000DBCFEFFF7D2B000E7E23E552E7CFD9FFE3
:100960001200D9CFE6FFE1CFD9FFE652DF6ADFCF31
:1009700010F0100EE76E1018E8AE02D0E73402D087
:10098000E750105C18E2DFCFE9FFEA6AE9BEEA68E7
:10099000410EE9260F0EEA22200EEF6EDFCFE9FFAF
:1009A000EA6AE9BEEA68510EE9260F0EEA22200E35
:1009B000EF6EDF2ADCD7E552E552E7CFD9FF120010
:1009C000D9CFE6FFE1CFD9FFE6520F014051030A2C
:1009D00052E0010A36E0030A1AE0010A67E1E66A1A
:1009E000E66AABDDE552E552DF6A080EDF5C0CE239
:1009F000DF50EA6A410FE96E0F0EEA22EF50E66E11
:100A00006FDDE552DF2AF1D70F01010E32D0080E5B
:100A1000E66EE66A92DDE552E552DF6A080EDF5CBB
:100A20000DE2080EDF24EA6A410FE96E0F0EEA229A
:100A3000EF50E66E55DDE552DF2AF0D70F01020ECA
:100A400018D0E66A010EE66E78DDE552E552DF6AFF
:100A5000080EDF5C0CE2DF50EA6A510FE96E0F0E00
:100A6000EA22EF50E66E3CDDE552DF2AF1D70F01B6
:100A7000030E406F1CD0080EE66E010EE66E5DDDC3
:100A8000E552E552DF6A080EDF5C0DE2080EDF2456
:100A9000EA6A510FE96E0F0EEA22EF50E66E20DD92
:100AA000E552DF2AF0D70F01406B01D0406BE552D1
:100AB000E552E7CFD9FF1200D9CFE6FFE1CFD9FF4A
:100AC000E6520F014051010A1BE0010A32E1E66AD9
:100AD000E66A33DDE552E552DF6A100EDF5C0CE2B8
:100AE000DF50EA6A410FE96E0F0EEA22EF50E66E20
:100AF000F7DCE552DF2AF1D70F01010E406F1AD063
:100B0000E66A010EE66E19DDE552E552DF6A100E67
:100B1000DF5C0CE2DF50EA6A510FE96E0F0EEA2249
:100B2000EF50E66EDDDCE552DF2AF1D70F01406BB6
:100B300001D0406BE552E552E7CFD9FF1200D9CF83
:100B4000E6FFE1CFD9FFE652E66AE66AF6DCE55257
:100B5000E552DF6A100EDF5C0CE2DF50EA6A410FFB
:100B6000E96E0F0EEA22EF50E66EBADCE552DF2A9C
:100B7000F1D7E66A010EE66EE0DCE552E552DF6A87
:100B8000100EDF5C0CE2DF50EA6A510FE96E0F0EC7
:100B9000EA22EF50E66EA4DCE552DF2AF1D7E552F7
:100BA000E552E7CFD9FF1200D9CFE6FFE1CFD9FF59
:100BB000FE0EDB50010B0F017B6F7C6BFD0EDB50DB
:100BC0000F0B7D6F7E6BFC0EDB500A0802E1610E9D
:100BD00005D0FC0EDB500D0805E1640EF36EFC0E33
:100BE000F3CFDBFF7BCF10F07CCF11F0040ED89059
:100BF00010361136E806FBE1410E10260F0E1122C9
:100C000010500F017D25E96E11507E21EA6EFC0E19
:100C1000DBCFEFFFE552E7CFD9FF1200D9CFE6FFD8
:100C2000E1CFD9FF020EE126DF6AFE0EDB50010B99
:100C30000F017B6F7C6BFD0EDB500F0B7D6F7E6BAE
:100C4000F90EDBCF10F0FA0EDBCF11F0FB0EDBCF8D
:100C500012F0FC0EDBCF13F0105011101210131015
:100C600005E1300EE66E5ADEE552F5D0D950F90FA7
:100C7000E96EFF0EDA20EA6ED890030EEB50000A00
:100C800008E6000EEE5C000EEE58000EEE58000E68
:100C9000EE5815E22D0EE66E41DEE552D950F90F01
:100CA000E96EFF0EDA20EA6E000EEE6CEF1EEE2209
:100CB000EF1EEE22EF1EEF22ED52ED52ED52DE520C
:100CC000070EDD6E010EDBCF10F0000EE76E101880
:100CD000E8AE02D0103403D0E750D880105401E3BE
:100CE000BAD0010EDB04146E156A14BE156814C068
:100CF000E6FF15C0E6FF0A0EE66EE66A45DCE55241
:100D0000E552E552E55206C010F007C011F008C0E8
:100D100012F009C013F006C00BF007C00CF008C0B9
:100D20000DF009C00EF0F90EDBCF06F0FA0EDBCFA6
:100D300007F0FB0EDBCF08F0FC0EDBCF09F0CEECAA
:100D40001BF0065007100810091041E0010EDF6E7D
:100D5000DB04186E196A18BE196818C0E6FF19C0BE
:100D6000E6FF0A0EE66EE66A0FDCE552E552E55252
:100D7000E55206C014F007C015F008C016F009C00F
:100D800017F006C00BF007C00CF008C00DF009C04A
:100D90000EF0F90EDBCF06F0FA0EDBCF07F0FB0EFC
:100DA000DBCF08F0FC0EDBCF09F0CEEC1BF006C069
:100DB00010F007C011F008C012F009C013F0300E97
:100DC0001026000E112212221322105003D0DF50E1
:100DD00004E0300EE66EA2DDE552010EDB04146E77
:100DE000156A14BE156814C0E6FF15C0E6FF0A0EAA
:100DF000E66EE66AC4EC02F0E552E552E552E552D1
:100E000006C010F007C011F008C012F009C013F0BE
:100E1000D950F90FE96EFF0EDA20EA6E06C00BF02A
:100E200007C00CF008C00DF009C00EF0EECF06F0C0
:100E3000EECF07F0EECF08F0EFCF09F0CEEC1BF0CD
:100E400005C0EDFF04C0EDFF03C0EDFF02C0EFFFE2
:100E5000010EDB0637D7020EE15C02E2E16AE552E1
:100E6000E16EE552E7CFD9FF1200D9CFE6FFE1CF1F
:100E7000D9FFFE0EDB50010B0F017B6F7C6BFD0E6B
:100E8000DB500F0B7D6F7E6BFB0EDBCFF6FFFC0E96
:100E9000DBCFF7FF0800F5500FE0FB0EDBCFF6FFCE
:100EA000DB2AFC0EDBCFF7FF01E3DB2A0800F5505D
:100EB000E66E34DDE552E8D7E552E7CFD9FF120000
:100EC000D9CFE6FFE1CFD9FF020EE126DE6ADD6A67
:100ED000FE0EDB50010B0F017B6F7C6B7D6B7E6B1D
:100EE000DE6ADD6ADECF10F0DDCF11F0D890115050
:100EF00004E6100E105C000E11581EE2FC0EDBCF53
:100F0000F6FFFD0EDBCFF7FF0800F5500CE0FC0EFE
:100F1000DBCFF6FFDB2AFD0EDBCFF7FF01E3DB2A99
:100F20000800F55001D0200EE66EF8DCE552DF2A0D
:100F3000010ED8E3DB2AD6D7020EE15C02E2E16AB9
:100F4000E552E16EE552E7CFD9FF1200D9CFE6FFB7
:100F5000E1CFD9FF040EE126DE6ADD6A020EDB6A0C
:100F6000030EDB6AFC0EDB50080DF350E66ED95021
:100F7000020FE96EDACFEAFFE552E750EE6EED6A56
:100F8000400EE76E020EDBCF10F0030EDBCF11F048
:100F9000E7501012020E10C0DBFF030E11C0DBFF82
:100FA000020EDBCFE6FF26EC02F0E552DE6ADD6AD8
:100FB000DECF10F0DDCF11F0080E105C000E1158DE
:100FC00028E2FD0EDBCF10F0FE0EDBCF11F0DE507D
:100FD0001024E96EDD501120EA6EEF50E66E44EC0D
:100FE00002F0E552010EE76E020EDBCF10F0030EA9
:100FF000DBCF11F0E7501026000E1122020E10C0B8
:10100000DBFF030E11C0DBFFDF2A010ED1E3DB2A79
:10101000CFD7040EE15C02E2E16AE552E16EE552EF
:10102000E7CFD9FF1200E66A000EE66E0F0EE66EFD
:101030008DDFE552E552E552010EE66E080EE66ED2
:101040000F0EE66E83DFE552E552E552020EE66EC4
:10105000100EE66E0F0EE66E79DFE552E552E552B0
:10106000030EE66E180EE66E0F0EE66E6FDFE552AB
:06107000E552E5521200FA
:0A107600D9CFE6FFE1CFD9FF020E4B
:10108000E126DE6ADD6A75D8E80EE66E030EE66ECE
:1010900029D8E552E55201017B51FDE07B6B98ECCC
:1010A00010F0DECF10F0DDCF11F0010E1026000E93
:1010B0001122140E0D6E0E6A10C008F011C009F056
:1010C0002BEC1CF004C010F005C011F004C0DEFFD2
:1010D00005C0DDFF67EC1AF0D9DBE9EC0EF0E0ECBF
:1010E00004F0D9D7D9CFE6FFE1CFD9FF040EE1262E
:1010F000DE6ADD6ADECF10F0DDCF11F0FD0EDBCF52
:1011000012F0FE0EDBCF13F011501318E8AE02D030
:10111000133404D01250105C135011581DE2020E0B
:10112000DB6A030EDB6A020EDBCF10F0030EDBCFAF
:1011300011F0D890115004E6EE0E105C000E11581C
:1011400006E2020EDB2A030EEEE3DB2AECD7DF2AEF
:10115000010ED0E3DB2ACED7040EE15C02E2E16AA5
:10116000E552E16EE552E7CFD9FF1200956A836A36
:101170001200FCDF10EC01F0E1EC0FF0E5EC17F0F1
:101180008FEC16F0DFEC18F0BAEC02F0B1EC04F0E2
:10119000F40EE66E010EE66EA5DFE552E552570E3F
:1011A000E66E120EE66EB7EC13F0E552E552660EEF
:1011B000E66EB70EE66E1AEC15F0E552E552020E39
:1011C000E66EE66AF5EC15F0E552E552320EE66E93
:1011D000E66A26EC16F0E552E55213EF08F0D9CF97
:1011E000E6FFE1CFD9FFFE0EDBCF11F0800E111428
:1011F0001AE1FD0EDBCF12F0FE0EDBCF13F013343D
:1012000004E212500708000E13540DE3FD0EDBCF6D
:10121000E9FFFE0EDBCFEAFF000EE926010EEA220F
:10122000EF508310836EE552E7CFD9FF1200D9CF7C
:10123000E6FFE1CFD9FFFE0EDBCF11F0800E1114D7
:101240001AE1FD0EDBCF12F0FE0EDBCF13F01334EC
:1012500004E212500708000E13540DE3FD0EDBCF1D
:10126000E9FFFE0EDBCFEAFF000EE926010EEA22BF
:10127000EF1C8314836EE552E7CFD9FF1200D9CF5C
:10128000E6FFE1CFD9FFFD0EDBCFE9FFFE0EDBCF9E
:10129000EAFF080EE926010EEA22EF0415E1FD0E31
:1012A000DBCFE6FFFE0EDBCFE6FFC1DFE552E55206
:1012B000FD0EDBCFE9FFFE0EDBCFEAFF080EE926CD
:1012C000010EEA22EF6A15D0FD0EDBCFE6FFFE0E1F
:1012D000DBCFE6FF84DFE552E552FD0EDBCFE9FF11
:1012E000FE0EDBCFEAFF080EE926010EEA22010E10
:1012F000EF6EE552E7CFD9FF1200D9CFE6FFE1CF7D
:10130000D9FF020EE126DE6ADD6ADECF10F0DDCF06
:1013100011F0D890115004E60E0E105C000E11581A
:1013200021E2DECFE6FFDDCFE6FF59DFE552E552F1
:10133000F40EE66E010EE66ED5DEE552E552DECF26
:10134000E6FFDDCFE6FF73DFE552E552F40EE66E11
:10135000010EE66EC7DEE552E552DF2A010ED5E347
:10136000DB2AD3D7020EE15C02E2E16AE552E16ECC
:10137000E552E7CFD9FF120001013451040A01E11F
:1013800082D0070A6DE0010A60E0030A25E0FE0A48
:1013900001E01200120EE66E340EE66EE66AE66AB0
:1013A00035EC07F0E552E552E552E552010EE66EE6
:1013B000340EE66EE66A010EE66E35EC07F0E55295
:1013C000E552E552E55203D965D900096FE0010104
:1013D000356B366B010E42D0F00EE66E330EE66EC4
:1013E000E66AE66A35EC07F0E552E552E552E55269
:1013F0000101362BBCD8000919E0EE0EE66E330E63
:10140000E66E35C1E6FF010EE66E35EC07F0E552FB
:10141000E552E552E55201013551EA6AAD0FE96E38
:10142000010EEA22B1C1EFFF352B366B040E01012C
:10143000355D02E3020E346F640E365D01E33469FC
:1014400029D9000933E001012FD0366B30D80009CB
:1014500003E00101030E02D00101040E346F1200FB
:10146000362BDD0EE66E330EE66EE66AE66A35EC86
:1014700007F0E552E552E552E552A2D8640E0101AB
:10148000365D14E311D0362BCC0EE66E330EE66ECD
:10149000E66AE66A35EC07F0E552E552E552E552B8
:1014A000280E0101365D02E3346912001200D9CF23
:1014B000E6FFE1CFD9FF040EE126010EF36E020E26
:1014C000F3CFDBFF030EDB6ADF6A050EDF5C43E26E
:1014D000010EF36E020EF3CFDBFF030EDB6A010E8B
:1014E000DB6A040EF36E010EDBCFF4FFF350F45C05
:1014F00024E2010EDB50EA6AAD0FE96E010EEA222A
:10150000EFCF10F0DF50040DF3CF11F0F4CF12F055
:10151000200E1126010E1222010EDB501124E96E5D
:10152000000E1220EA6EEF50105C04E0020EDB6A3F
:10153000030EDB6A010EDB2AD4D7D950020FE96E05
:10154000DACFEAFF010EEE1804E1ED5002E1DF28E8
:1015500002D0DF2ABAD7106E040EE15C02E2E16A23
:10156000E552E16E1050E552E7CFD9FF1200D9CF16
:10157000E6FFE1CFD9FFE652DF6ADF500F081AE33A
:10158000EA6ADF34FE0BEA36E96E480EE926010E00
:10159000EA220A0EEE180CE1ED500AE1DF50EA6A89
:1015A000100FE96E010EEA22EFCFB1F1010E03D068
:1015B000DF2AE3D7000EE552E552E7CFD9FF12004C
:1015C000000EE66EE66A0BDEE552E5521200000EF2
:1015D000E66EE66A2CDEE552E5521200000EE66E7B
:1015E000E66AFDDDE552E5521200000EE66EE66A9F
:1015F0001EDEE552E5521200040EE66EE66AEFDDED
:10160000E552E5521200040EE66EE66A10DEE5527F
:10161000E5521200060EE66EE66AE1DDE552E5529D
:101620001200060EE66EE66A02DEE552E552120090
:10163000010EE66EE66AD3DDE552E5521200010EB8
:10164000E66EE66AF4DDE552E5521200050EE66E3E
:10165000E66AC5DDE552E5521200050EE66EE66A61
:10166000E6DDE552E5521200070EE66EE66AB7DDEA
:10167000E552E5521200070EE66EE66AD8DDE55245
:10168000E55212000101010E541903E1555101E127
:10169000010C000C0101010E521903E1535101E14B
:1016A000010C000C0101010E501903E1515101E13F
:1016B000010C000C01014729106E140E116E0E6E04
:1016C00010C009F05FEC1CF005C047F101010550A6
:1016D00001E146074151040A01E1C8D0070A01E1CE
:1016E00097D0010A65E0030A34E0010A01E0CCD09A
:1016F00075DF97DFB9DFBB0EE66E330EE66EE66A86
:10170000010EE66E35EC07F0E552E552E552E55282
:1017100046C110F0116A126A136A46C1E6FF11C091
:10172000E6FF12C0E6FF13C0E6FF0E0EE66E010EE6
:10173000E66E0EEC06F0146E060EE15E145001012A
:10174000465101E0A2D0010E416F4FDF43C146F187
:10175000120052DF89DFAA0EE66E330EE66EE66AED
:10176000010EE66E35EC07F0E552E552E552E55222
:1017700046C110F0116A126A136A46C1E6FF11C031
:10178000E6FF12C0E6FF13C0E6FF0E0EE66E010E86
:10179000E66E0EEC06F0146E060EE15E14500101CA
:1017A000465173E1020E416F2EDF44C146F1120033
:1017B0003FDF61DF2FDF990EE66E330EE66EE66ADD
:1017C000010EE66E35EC07F0E552E552E552E552C2
:1017D00046C110F0116A126A136A46C1E6FF11C0D1
:1017E000E6FF12C0E6FF13C0E6FF0E0EE66E010E26
:1017F000E66E0EEC06F0146E060EE15E145001016A
:10180000465143E1030E416F1ADF45C146F1120014
:101810001DDF00DF880EE66E330EE66EE66A010E0F
:10182000E66E35EC07F0E552E552E552E55246C169
:1018300010F0116A126A136A46C1E6FF11C0E6FF92
:1018400012C0E6FF13C0E6FF0E0EE66E010EE66E56
:101850000EEC06F0146E060EE15E145001014651C6
:1018600014E1416BFADE42C146F11200BEDEE7DE52
:10187000D8DE01DF010147510C0803E3BDDE26EF8E
:101880000BF0C1DE2DEF0BF0416B1200010193054F
:101890000CE1936B0001815108E182C042F183C0E9
:1018A00043F184C044F185C045F1040E0101922545
:1018B000106E116A126A136AE66E11C0E6FF12C05A
:1018C000E6FF13C0E6FF0F0EE66EE66A0EEC06F0CA
:1018D000146E060EE15E14501200B1EF04F0010127
:1018E000010E481901E1495116E0140ED8804855FF
:1018F000000E495511E248C110F049C111F0050E22
:101900000D6E0E6A48C108F049C109F02BEC1CF0BD
:101910000450051001E1010C000C0101010E4A19EF
:1019200001E14B5116E0140ED8804A55000E4B557C
:1019300011E24AC110F04BC111F0050E0D6E0E6A96
:101940004AC108F04BC109F02BEC1CF00450051003
:1019500001E1010C000C0101010E4C1903E14D5194
:1019600001E1010C000C01013E51010A01E183D0AB
:10197000010A01E0FED0770EE66E330EE66EE66AEF
:10198000E66A35EC07F0E552E552E552E55242C110
:1019900010F0116A126A136A42C1E6FF11C0E6FF35
:1019A00012C0E6FF13C0E6FF0E0EE66EE66A0EEC0E
:1019B00006F0146E060EE15E1450650EE66E330EF0
:1019C000E66EE66A010EE66E35EC07F0E552E5528A
:1019D000E552E55243C110F0116A126A136A43C11D
:1019E000E6FF11C0E6FF12C0E6FF13C0E6FF0E0ED1
:1019F000E66E010EE66E0EEC06F0146E060EE15E6B
:101A0000145001014851491116E14A514B1113E19B
:101A100001010A0E3F5D000E40590DE2620EE66EB6
:101A2000330EE66E0E0EE66EE66A35EC07F0E55212
:101A3000E552E552E55253DF00090CE0010142296D
:101A4000106E640E116E0E6E10C009F05FEC1CF08B
:101A500005C042F162DF000906E001014207000E05
:101A6000425D01E2426B77DF000901E182D00101B2
:101A7000010E3E6F7ED0770EE66E330EE66EE66A9E
:101A8000E66A35EC07F0E552E552E552E55242C10F
:101A900010F0116A126A136A42C1E6FF11C0E6FF34
:101AA00012C0E6FF13C0E6FF0E0EE66EE66A0EEC0D
:101AB00006F0146E060EE15E1450650EE66E330EEF
:101AC000E66EE66A010EE66E35EC07F0E552E55289
:101AD000E552E55243C110F0116A126A136A43C11C
:101AE000E6FF11C0E6FF12C0E6FF13C0E6FF0E0ED0
:101AF000E66E010EE66E0EEC06F0146E060EE15E6A
:101B0000145001014851491117E14A514B1114E198
:101B100001010A0E3F5D000E40590EE2620EE66EB4
:101B2000330EE66E0E0EE66E010EE66E35EC07F035
:101B3000E552E552E552E552D2DE00090CE0010122
:101B40004329106E640E116E0E6E10C009F05FEC2A
:101B50001CF005C043F1E1DE000906E00101430786
:101B6000000E435D01E2436BF6DE000902E0010175
:101B70003E6B010E01013F253F6F000E4021406F7B
:101B8000140E0D6E0E6A3FC108F040C109F02BEC37
:101B90001CF004C03FF105C040F1120001013E51AC
:101BA000010A01E183D0010A01E0FED0510EE66E88
:101BB000330EE66EE66AE66A35EC07F0E552E5526A
:101BC000E552E55244C110F0116A126A136A44C129
:101BD000E6FF11C0E6FF12C0E6FF13C0E6FF0E0EDF
:101BE000E66EE66A0EEC06F0146E060EE15E145028
:101BF0003F0EE66E330EE66EE66A010EE66E35ECDB
:101C000007F0E552E552E552E55245C110F0116A80
:101C1000126A136A45C1E6FF11C0E6FF12C0E6FF73
:101C200013C0E6FF0E0EE66E010EE66E0EEC06F039
:101C3000146E060EE15E145001014851491116E17F
:101C40004A514B1113E101010A0E3F5D000E40594C
:101C50000DE2620EE66E330EE66E0E0EE66EE66A7C
:101C600035EC07F0E552E552E552E55238DE000961
:101C70000CE001014429106E640E116E0E6E10C04E
:101C800009F05FEC1CF005C044F147DE000906E0F6
:101C900001014407000E445D01E2446B5CDE000973
:101CA00001E182D00101010E3E6F7ED0770EE66E1B
:101CB000330EE66EE66AE66A35EC07F0E552E55269
:101CC000E552E55244C110F0116A126A136A44C128
:101CD000E6FF11C0E6FF12C0E6FF13C0E6FF0E0EDE
:101CE000E66EE66A0EEC06F0146E060EE15E145027
:101CF000650EE66E330EE66EE66A010EE66E35ECB4
:101D000007F0E552E552E552E55245C110F0116A7F
:101D1000126A136A45C1E6FF11C0E6FF12C0E6FF72
:101D200013C0E6FF0E0EE66E010EE66E0EEC06F038
:101D3000146E060EE15E145001014851491117E17D
:101D40004A514B1114E101010A0E3F5D000E40594A
:101D50000EE2620EE66E330EE66E0E0EE66E010EBB
:101D6000E66E35EC07F0E552E552E552E552B7DD97
:101D700000090CE001014529106E640E116E0E6E13
:101D800010C009F05FEC1CF005C045F1C6DD00098C
:101D900006E001014507000E455D01E2456BDBDD14
:101DA000000902E001013E6B010E01013F253F6F7A
:101DB000000E4021406F140E0D6E0E6A3FC108F0F8
:101DC00040C109F02BEC1CF004C03FF105C040F10C
:101DD000120001013751040A01E1E5D0070A01E1CF
:101DE000D8D0010A71E0030A65E0010A01E012009F
:101DF0003851010A1BE0010A38E12E0EE66E330E5F
:101E0000E66EE66A60EC07F0E552E552E552020E36
:101E1000E66E070EE66E010EE66ED4EC05F0E552B6
:101E2000E552E552010EE66E0E0E16D0240EE66E59
:101E3000330EE66EE66A60EC07F0E552E552E552D5
:101E4000E66AE66A010EE66ED4EC05F0E552E5526C
:101E5000E552020EE66E070EE66E010EE66ED4EC5B
:101E600005F0E552E552E55201D0386B42EC0BF03B
:101E7000000908E00101382B020E385D02E3010E73
:101E8000386F2BDD52EC0BF0000908E001013851EE
:101E9000000802E3386B02D038071FDD4AEC0BF074
:101EA000000901E189D001013851EA6A390FE96E70
:101EB000010E6BD05AEC0BF052EC0BF0000901E173
:101EC0007BD00101376B6DD03B51010A1BE0010A49
:101ED00038E11A0EE66E330EE66EE66A60EC07F045
:101EE000E552E552E552020EE66E070EE66E010E71
:101EF000E66ED4EC05F0E552E552E552010EE66ED1
:101F00000E0E16D0100EE66E330EE66EE66A60EC2C
:101F100007F0E552E552E552E66AE66A010EE66E22
:101F2000D4EC05F0E552E552E552020EE66E070EDE
:101F3000E66E010EE66ED4EC05F0E552E552E55290
:101F400001D03B6B42EC0BF0000908E001013B2B98
:101F5000020E3B5D02E3010E3B6FBFDC52EC0BF067
:101F6000000909E001013B51000803E33B6B376BBB
:101F700001D03B07B2DC4AEC0BF000091DE0010187
:101F80003B51EA6A3C0FE96E010EEA22EFCF37F1CE
:101F900008D0E9DC52EC0BF000090EE00101020E62
:101FA000376F6DEF0CF0FADD52EC0BF0000904E036
:0A1FB0000101020E376F91DC1200F0
:061FBA000F0E946E826818
:101FC0001200070E9410946EDF0E9414946E8268C3
:101FD0001200D9CFE6FFE1CFD9FF040EE126DE6A79
:101FE000DD6ADECF10F0DDCF11F0D890115004E69D
:101FF000040E105C000E115801E390D0DECFE9FF13
:10200000DDCFEAFF680EE926010EEA22EF1C826EA0
:10201000020EDB6A030EDB6A020EDBCF10F0030E4A
:10202000DBCF11F0D890115004E6040E105C000EC6
:1020300011586EE2020EDBCFE9FF030EDBCFEAFFA1
:102040006C0EE926010EEA22EF5082143FE1DECF4A
:1020500014F0DDCF15F0D89014361536D89014361C
:102060001536020EDB501424E96E030EDB501520EA
:10207000EA6ED890E936EA36480EE926010EEA22E1
:10208000EECF12F0EFCF13F0010E1226000E132246
:10209000DECF10F0DDCF11F0D89010361136D89089
:1020A00010361136020EDB501024E96E030EDB50A1
:1020B0001120EA6ED890E936EA36480EE926010E7C
:1020C000EA2212C0EEFF13C0EDFF1BD0DECF10F0EE
:1020D000DDCF11F0D89010361136D8901036113669
:1020E000020EDB501024E96E030EDB501120EA6E65
:1020F000D890E936EA36480EE926010EEA22EE6A61
:10210000ED6A020EDB2A030E01E286D7DB2A84D7B2
:10211000DF2A010E01E265D7DB2A63D7040EE15CFA
:1021200002E2E16AE552E16EE552E7CFD9FF120023
:10213000D9CFE6FFE1CFD9FF040EE126DE6ADD6AE2
:10214000DECF10F0DDCF11F0D890115004E6020E72
:10215000105C000E115801E391D0DECFE9FFDDCF16
:10216000EAFF680EE926010EEA22EF1C8214826E55
:10217000020EDB6A030EDB6A020EDBCF10F0030EE9
:10218000DBCF11F0D890115004E6040E105C000E65
:1021900011586EE2020EDBCFE9FF030EDBCFEAFF40
:1021A0006C0EE926010EEA22EF5082143FE1DECFE9
:1021B00014F0DDCF15F0D89014361536D8901436BB
:1021C0001536020EDB501424E96E030EDB50152089
:1021D000EA6ED890E936EA36480EE926010EEA2280
:1021E000EECF12F0EFCF13F0010E1226000E1322E5
:1021F000DECF10F0DDCF11F0D89010361136D89028
:1022000010361136020EDB501024E96E030EDB503F
:102210001120EA6ED890E936EA36480EE926010E1A
:10222000EA2212C0EEFF13C0EDFF1BD0DECF10F08C
:10223000DDCF11F0D89010361136D8901036113607
:10224000020EDB501024E96E030EDB501120EA6E03
:10225000D890E936EA36480EE926010EEA22EE6AFF
:10226000ED6A020EDB2A030E01E286D7DB2A84D751
:10227000DF2A010E01E264D7DB2A62D7040EE15C9B
:1022800002E2E16AE552E16EE552E7CFD9FF1200C2
:10229000D9CFE6FFE1CFD9FF040EE126DE6ADD6A81
:1022A000020EDB6A030EDB6A0101681D8214826E76
:1022B000020EDB6A030EDB6A020EDBCF10F0030EA8
:1022C000DBCF11F0D890115004E6040E105C000E24
:1022D00011586EE2020EDBCFE9FF030EDBCFEAFFFF
:1022E0006C0EE926010EEA22EF5082143FE1DECFA8
:1022F00014F0DDCF15F0D89014361536D89014367A
:102300001536020EDB501424E96E030EDB50152047
:10231000EA6ED890E936EA36480EE926010EEA223E
:10232000EECF12F0EFCF13F0010E1226000E1322A3
:10233000DECF10F0DDCF11F0D89010361136D890E6
:1023400010361136020EDB501024E96E030EDB50FE
:102350001120EA6ED890E936EA36480EE926010ED9
:10236000EA2212C0EEFF13C0EDFF1BD0DECF10F04B
:10237000DDCF11F0D89010361136D89010361136C6
:10238000020EDB501024E96E030EDB501120EA6EC2
:10239000D890E936EA36480EE926010EEA22EE6ABE
:1023A000ED6A020EDB2A030E01E286D7DB2A84D710
:1023B000040EE15C02E2E16AE552E16EE552E7CF2C
:1023C000D9FF1200D9CFE6FFE1CFD9FF040EE126F5
:1023D000DE6ADD6A020EDB6A030EDB6A010EDE6E68
:1023E000DD6ADECFE9FFDDCFEAFF680EE926010EE8
:1023F000EA22EF1C8214826E020EDB6A030EDB6A95
:10240000020EDBCF10F0030EDBCF11F0D89011508D
:1024100004E6030E105C000E11586EE2020EDBCFD4
:10242000E9FF030EDBCFEAFF6C0EE926010EEA227C
:10243000EF5082143FE1DECF14F0DDCF15F0D890DD
:1024400014361536D89014361536020EDB50142487
:10245000E96E030EDB501520EA6ED890E936EA36B5
:10246000480EE926010EEA22EECF12F0EFCF13F06C
:10247000010E1226000E1322DECF10F0DDCF11F078
:10248000D89010361136D89010361136020EDB5027
:102490001024E96E030EDB501120EA6ED890E93665
:1024A000EA36480EE926010EEA2212C0EEFF13C0FA
:1024B000EDFF1BD0DECF10F0DDCF11F0D89010363D
:1024C0001136D89010361136020EDB501024E96E0A
:1024D000030EDB501120EA6ED890E936EA36480E3A
:1024E000E926010EEA22EE6AED6A020EDB2A030EED
:1024F00001E286D7DB2A84D7040EE15C02E2E16ABE
:10250000E552E16EE552E7CFD9FF1200D9CFE6FFE1
:10251000E1CFD9FF040EE126DE6ADD6ADECF10F0DE
:10252000DDCF11F0FD0EDBCF12F0FE0EDBCF13F08E
:1025300011501318E8AE02D0133404D01250105CBE
:10254000135011581DE2020EDB6A030EDB6A020E05
:10255000DBCF10F0030EDBCF11F0D890115004E662
:10256000EE0E105C000E115806E2020EDB2A030E7E
:10257000EEE3DB2AECD7DF2A010ED0E3DB2ACED74D
:10258000040EE15C02E2E16AE552E16EE552E7CF5A
:10259000D9FF1200D9CFE6FFE1CFD9FF040EE12623
:1025A000DE6ADD6ADECF10F0DDCF11F0D890115079
:1025B00004E6040E105C000E115875E2DECFE9FF50
:1025C000DDCFEAFF680EE926010EEA22EF1C826EDB
:1025D000020EDB6A030EDB6A020EDBCF10F0030E85
:1025E000DBCF11F0D890115004E6040E105C000E01
:1025F00011584AE2DECF10F0DDCF11F0D89010363E
:102600001136D89010361136020EDB501024E96EC8
:10261000030EDB501120EA6ED890E936EA36480EF8
:10262000E926010EEA22EE6AED6A020EDBCFE9FF2F
:10263000030EDBCFEAFF6C0EE926010EEA22EF5013
:1026400082141CE1DECF10F0DDCF11F0D8901036EF
:102650001136D89010361136020EDB501024E96E78
:10266000030EDB501120EA6ED890E936EA36480EA8
:10267000E926010EEA22010EEE6EED6A020EDB2A59
:10268000030EAAE3DB2AA8D78250816EE80EE66E1D
:10269000030EE66E3BDFE552E552DF2A010E01E252
:1026A00081D7DB2A7FD7040EE15C02E2E16AE552C2
:1026B000E16EE552E7CFD9FF1200D9CFE6FF040E55
:1026C000E12684B005D00101482B000E492303D038
:1026D0000101486B496B84B204D04A2B000E4B2396
:1026E00002D04A6B4B6B84B404D04C2B000E4D23AC
:1026F00002D04C6B4D6B82B004D04E2B000E4F239A
:1027000002D04E6B4F6B82B204D0502B000E51237F
:1027100002D0506B516B82B404D0522B000E532365
:1027200002D0526B536B82BA04D0542B000E552347
:1027300002D0546B556B81B004D0562B000E57233A
:1027400002D0566B576B040EE15C02E2E16AE5527F
:10275000E16EE552E7CFD9FF1200070E9610966E94
:0E276000270E9410946E010E9310936E1200CB
:02276E00D9CFC1
:10277000E6FFE1CFD9FFD59EFD0EDBCF70F1FE0E57
:10278000DBCF71F1D59C13681468156A70C116F01F
:1027900071C117F0186A1650135C106E1750145858
:1027A000116E18501558126E0C6A010E0D6E0E6ADD
:1027B00010C007F011C008F012C009F0D2EC1AF0F6
:1027C0000350D66E13681468156A70C116F071C193
:1027D00017F0186A1650135C106E17501458116ECB
:1027E00018501558126E0C6A010E0D6E0E6A10C04C
:1027F00007F011C008F012C009F0D2EC1AF007C0BF
:1028000010F008C011F009C012F00750D76ED59A29
:10281000D586F28AF294F184D58EE552E7CFD9FFBE
:102820001200D59E120013681468156A70C116F064
:1028300071C117F0186A1650135C106E17501458B7
:10284000116E18501558126E0C6A010E0D6E0E6A3C
:1028500010C007F011C008F012C009F0D2EC1AF055
:102860000350D66E13681468156A70C116F071C1F2
:1028700017F0186A1650135C106E17501458116E2A
:1028800018501558126E0C6A010E0D6E0E6A10C0AB
:1028900007F011C008F012C009F0D2EC1AF007C01E
:1028A00010F008C011F009C012F00750D76ED58E95
:1028B0001200D9CFE6FFE1CFD9FFCD90FD0EDBCFDF
:1028C00072F1FE0EDBCF73F113681468156A72C1E2
:1028D00016F073C117F0186A1650135C106E17507B
:1028E0001458116E18501558126E0C6A010E0D6EA8
:1028F0000E6A10C007F011C008F012C009F0D2EC47
:102900001AF00750CF6E13681468156A72C116F07A
:1029100073C117F0186A1650135C106E17501458D4
:10292000116E18501558126E0C6A010E0D6E0E6A5B
:1029300010C007F011C008F012C009F0D2EC1AF074
:1029400003C010F004C011F005C012F00350CE6EA9
:102950009D809E909F90CD8ECD8CCD98CD9ACD961A
:10296000CD92CD80E552E7CFD9FF120013681468ED
:10297000156A72C116F073C117F0186A1650135C0D
:10298000106E17501458116E18501558126E0C6AAC
:10299000010E0D6E0E6A10C007F011C008F012C0D3
:1029A00009F0D2EC1AF00750CF6E13681468156A5C
:1029B00072C116F073C117F0186A1650135C106ECE
:1029C00017501458116E18501558126E0C6A010EDB
:1029D0000D6E0E6A10C007F011C008F012C009F0A9
:1029E000D2EC1AF003C010F004C011F005C012F0D0
:1029F0000350CE6ECD801200CD901200D9CFE6FFED
:102A0000E1CFD9FFCA94CC6AFE0EDB500101746F8E
:102A1000756BCB6E9D829E929F92CA90CA92CA8419
:102A2000E552E7CFD9FF120074C1CBFFCA84120070
:102A3000CA941200D9CFE6FFE1CFD9FFB190FD0EC5
:102A4000DBCF76F1FE0EDBCF77F113681468156AE1
:102A500076C116F077C117F0186A1650135C106E25
:102A600017501458116E18501558126E0C6A010E3A
:102A70000D6E0E6A10C007F011C008F012C009F008
:102A8000D2EC1AF00750B36E13681468156A76C159
:102A900016F077C117F0186A1650135C106E1750B5
:102AA0001458116E18501558126E0C6A010E0D6EE6
:102AB0000E6A10C007F011C008F012C009F0D2EC85
:102AC0001AF003C010F004C011F005C012F003505A
:102AD000B26EA082A192A292B18EB198B19AB19237
:102AE000B180E552E7CFD9FF120013681468156A68
:102AF00076C116F077C117F0186A1650135C106E85
:102B000017501458116E18501558126E0C6A010E99
:102B10000D6E0E6A10C007F011C008F012C009F067
:102B2000D2EC1AF00350B26E13681468156A76C1BD
:102B300016F077C117F0186A1650135C106E175014
:102B40001458116E18501558126E0C6A010E0D6E45
:102B50000E6A10C007F011C008F012C009F0D2ECE4
:102B60001AF007C010F008C011F009C012F00750A9
:102B7000B36EB1801200B19012000101802B000EE3
:102B800081238851805D8951815904E3806B816B79
:102B9000010E786F12000101822B000E83238A51EF
:102BA000825D8B51835904E3826B836B010E796FD5
:102BB00012000101842B000E85238C51845D8D5100
:102BC000855904E3846B856B010E7A6F1200010155
:102BD000862B000E87238E51865D8F51875904E323
:102BE000866B876B010E7B6F1200D9CFE6FFE1CFBA
:102BF000D9FFFD0EDBCF88F1FE0EDBCF89F101019D
:102C0000806B816B786BE552E7CFD9FF1200D9CF8B
:102C1000E6FFE1CFD9FFFD0EDBCF8AF1FE0EDBCF61
:102C20008BF1050E0D6E0E6A8AC108F08BC109F09A
:102C3000ACEC1AF008C08AF109C08BF10101826B7B
:102C4000836B796BE552E7CFD9FF1200D9CFE6FF4E
:102C5000E1CFD9FFFD0EDBCF8EF1FE0EDBCF8FF182
:102C60000A0E0D6E0E6A8EC108F08FC109F0ACEC31
:102C70001AF008C08EF109C08FF10101866B876BD5
:0A2C80007B6BE552E7CFD9FF12008D
:062C8A00D9CFE6FFE1CF07
:102C9000D9FF020EE126FE0EDB500F0BDF6EFE0E9B
:102CA000DB380F0B0A0D010EF3CFDBFFDB50DF2407
:102CB000106E020EE15C02E2E16AE552E16E105034
:102CC000E552E7CFD9FF1200D9CFE6FFE1CFD9FF18
:102CD000020EE1260A0E106E0E6EFE0EDBCF09F01C
:102CE0005FEC1CF00550DF6E0A0E106E0E6EFE0ECD
:102CF000DBCF09F05FEC1CF00950100D010EF3CF93
:102D0000DBFFDB50DF24106E020EE15C02E2E16AC1
:102D1000E552E16E1050E552E7CFD9FF12009486DC
:102D20009488C79EC79CC690C692C694C686310E2C
:102D3000C86EC68A1200D9CFE6FFE1CFD9FF9E96B2
:102D4000FE0EDB50D00FC96E9EA6FED7E552E7CF30
:102D5000D9FF1200D9CFE6FFE1CFD9FF9E96FE0E34
:102D6000DB50A00FC96E9EA6FED7E552E7CFD9FF74
:102D700012009E96C5809EA6FED712009E96C58420
:102D80009EA6FED71200D9CFE6FFE1CFD9FF9E96CF
:102D9000FE0EDB50C96E9EA6FED7E552E7CFD9FFE7
:102DA00012009E96C5869EA6FED7C95012009E961A
:102DB000C59AC5889EA6FED712009E96C58AC5886C
:102DC0009EA6FED71200D9CFE6FFE1CFD9FFD1DF13
:102DD000E66AB1DFE5520101010EB86FE85004E088
:102DE000C550400BFAE0F8D7FE0EDBCFE6FFCBDF95
:102DF000E5520101010EB86FE85004E0C550400BE8
:102E0000FAE0F8D7FD0EDBCFE6FF5EDFE552E66EB7
:102E1000BADFE5520101010EB86FE85004E0C55079
:102E2000400BFAE0F8D7AADFE552E7CFD9FF12004E
:102E3000D9CFE6FFE1CFD9FF9CDFE66A8BDFE55211
:102E40000101010EB86FE85004E0C550400BFAE0F4
:102E5000F8D7FE0EDBCFE6FF96DFE5520101010E4B
:102E6000B86FE85004E0C550400BFAE0F8D7FD0E0B
:102E7000DBCF10F0FE0EDBCF11F00001116A105015
:102E8000E66E81DFE5520101010EB86FE85004E003
:102E9000C550400BFAE0F8D7FC0EDBCFE6FF73DF3E
:102EA000E5520101010EB86FE85004E0C550400B37
:102EB000FAE0F8D763DFE552E7CFD9FF1200D9CFA8
:102EC000E6FFE1CFD9FFE65254DFE66A34DFE55290
:102ED0000101010EB86FE85004E0C550400BFAE064
:102EE000F8D7FE0EDBCFE6FF4EDFE5520101010E03
:102EF000B86FE85004E0C550400BFAE0F8D739DF6E
:102F0000010EE66E18DFE5520101010EB86FE850C0
:102F100004E0C550400BFAE0F8D743DFDF6EDFCFA7
:102F2000E6FFB3DEE552DF6EDF50E552E552E7CF54
:102F3000D9FF1200D9CFE6FFE1CFD9FFE65219DF62
:102F4000E66A08DFE5520101010EB86FE85004E0BF
:102F5000C550400BFAE0F8D7FE0EDBCFE6FF13DFDB
:102F6000E5520101010EB86FE85004E0C550400B76
:102F7000FAE0F8D7FD0EDBCF10F0FE0EDBCF11F03C
:102F80000001116A1050E66EFEDEE5520101010EED
:102F9000B86FE85004E0C550400BFAE0F8D7E9DE1E
:102FA000010EE66ED7DEE5520101010EB86FE85062
:102FB00004E0C550400BFAE0F8D7F3DEDF6EDF50D7
:0A2FC000E552E552E7CFD9FF1200F9
:062FCA00F28ED08EF28CA5
:102FD0001200F19CF292F2881200D8CFE4FFE0CF09
:102FE000E4FFE46EDACFE4FFE2CFDAFFE9CFE4FFFB
:102FF000EACFE4FFF6CFE4FFF7CFE4FFF5CFE4FF3D
:10300000F3CFE4FFF4CFE4FFFACFE4FF00EE00F0EB
:10301000100EE80403E3EECFE4FFFBD700EE10F060
:103020000A0EE80403E3EECFE4FFFBD7E652F2A476
:1030300007D011EC14F0F29413EC14F0BDEC15F081
:103040009EA007D0FCEC14F09E90B6EC14F0CBECF4
:1030500015F09EA207D018EC15F09E9214EC15F016
:10306000D9EC15F0A1A207D0BBEC15F0A19275EC3C
:1030700015F0E7EC15F0F2B2F2929EAA03D09E9AF8
:1030800086EC19F0E55200EE19F00A0EE80403E3AD
:10309000E5CFEDFFFBD700EE0FF0100EE80403E3E1
:1030A000E5CFEDFFFBD7E5CFFAFFE5CFF4FFE5CFA6
:1030B000F3FFE5CFF5FFE5CFF7FFE5CFF6FFE5CF6F
:1030C000EAFFE5CFE9FFE5CFDAFFE550E5CFE0FF26
:1030D000E5CFD8FF1000DACFE4FFE2CFDAFFE9CF87
:1030E000E4FFEACFE4FFF6CFE4FFF7CFE4FFF5CF4C
:1030F000E4FFF3CFE4FFF4CFE4FFFACFE4FF00EE08
:1031000000F0100EE80403E3EECFE4FFFBD700EE7F
:1031100010F00A0EE80403E3EECFE4FFFBD7E6521B
:10312000F2A407D011EC14F0F29413EC14F0BDECFF
:1031300015F09EA007D0FCEC14F09E90B6EC14F0B5
:10314000CBEC15F09EA207D018EC15F09E9214EC73
:1031500015F0D9EC15F0A1A207D0BBEC15F0A192A7
:1031600075EC15F0E7EC15F0F2B2F2929EAA03D0DE
:103170009E9A86EC19F0E55200EE19F00A0EE8046A
:1031800003E3E5CFEDFFFBD700EE0FF0100EE804F0
:1031900003E3E5CFEDFFFBD7E5CFFAFFE5CFF4FF83
:1031A000E5CFF3FFE5CFF5FFE5CFF7FFE5CFF6FF7E
:0E31B000E5CFEAFFE5CFE9FFE5CFDAFF11003A
:0231BE00B06AF5
:1031C000810EAF6EAC8AAC94B886AC98AB8EAB88EF
:1031D0009E9A9D8A9F9A949C948E1200D9CFE6FF66
:1031E000E1CFD9FF040EE126DE6ADD6ADECF10F002
:1031F000DDCF11F0FD0EDBCF12F0FE0EDBCF13F0B2
:1032000011501318E8AE02D0133404D01250105CE1
:10321000135011581DE2020EDB6A030EDB6A020E28
:10322000DBCF10F0030EDBCF11F0D890115004E685
:10323000EE0E105C000E115806E2020EDB2A030EA1
:10324000EEE3DB2AECD7DF2A010ED0E3DB2ACED770
:10325000040EE15C02E2E16AE552E16EE552E7CF7D
:10326000D9FF1200D9CFE6FFE1CFD9FF9EA8FED744
:10327000FE0EDB50AD6E9E98E552E7CFD9FF1200EF
:10328000D9CFE6FFE1CFD9FFFD0EDBCFE9FFFE0E80
:10329000DBCFEAFFEF5010E0FD0EDBCFE9FFFE0EC3
:1032A000DBCFEAFFEF50E66EDDDFE552FD0EDB2AF5
:1032B000FE0EEAE3DB2AE8D7E552E7CFD9FF12009A
:1032C000D9CFE6FFE1CFD9FFFD0EDBCFF6FFFE0E33
:1032D000DBCFF7FF0800F55015E0FD0EDBCFF6FF62
:1032E000FE0EDBCFF7FF0800F550E66EBBDFE552C0
:1032F000FD0EDBCFF6FFDB2AFE0EDBCFF7FFE4E3AC
:10330000DB2AE2D7E552E7CFD9FF12001CEF1AF013
:10331000322E5048415345203200312E50484153FF
:1033200045203100322E53455454494E4700312E2A
:10333000444953504C4159204C4947485453005933
:10334000454C4C4F57205048415345323A2020209D
:1033500000475245454E205048415345323A2020BF
:10336000200020200059454C4C4F572050484153D5
:1033700045313A20202000475245454E20504841D3
:103380005345313A202020005048415345325F597F
:10339000454C4C4F573A2020005048415345325F2E
:1033A000475245454E3A2020200050484153453170
:1033B0005F59454C4C4F573A2020005048415345E7
:1033C000315F475245454E3A20202000504153532B
:1033D000574F52442057524F4E472020004F5045E0
:1033E0004E494E4720444F4F5220202020002A00B3
:1033F000454E5445522050415353574F524420207C
:1034000000202020202020202020202020202020DC
:1034100020005052455353202320464F5220504104
:103420005353004F4B00202020202020202020201C
:0734300020202020202000D5
:013437000094
:08343800D9CFE6FFE1CFD9FF77
:10344000E652AE50DF6EDFCFE6FF32EC19F0E55208
:1034500001019251050A2AE0010A21E0070A11E060
:10346000010A0AE0020A02E0010A2AE1FF0EDF5C1B
:1034700028E1956B020E22D0FF0EDF5C15E1030EF2
:103480001DD09551EA6A810FE96E000EEA22DFCF66
:10349000EFFF952B9751955D14E3040E0FD0FE0EB0
:1034A000DF5C02E1050E0AD0010E08D0FE0EDF5CE3
:1034B00004E1010E936F926B04D0010E926F01D064
:1034C000926BE552E552E7CFD9FF120012000101DD
:1034D000930541E1260EE66E340EE66EE66AE66A74
:1034E00035EC07F0E552E552E552E5520001806BFC
:1034F000010197510001805D21E28051EA6A810F4C
:10350000E96E000EEA22EFCF10F0116A126A136A18
:1035100010C0E6FF11C0E6FF12C0E6FF13C0E6FFD1
:10352000030E8003F350E66EE66A0EEC06F0146EAE
:10353000060EE15E14500001802BDAD7230EE66EF2
:10354000340EE66E0E0EE66EE66A35EC07F0E552D6
:08355000E552E552E5521200BC
:08355800006A0EAEB5EF1AF097
:103560000D6C0E1EE86A0E22001E09AEBDEF1AF0A9
:10357000086C091EE86A0922001E2BEC1CF009BE2B
:10358000CDEF1AF000AE000C086C091EE86A0922A3
:10359000046C051EE86A0522000C00BEC4EF1AF098
:1035A0000188FF0C006A0EAEDDEF1AF00C6C0D1EE8
:1035B0000E1EE86A0D220E22001E09AEE7EF1AF079
:1035C000076C081E091EE86A08220922001EF2EC98
:1035D0001BF009BEFAEF1AF000AE000C076C081ED3
:1035E000091EE86A08220922036C041E051E042233
:0E35F0000522000C00BEEEEF1AF00188FF0C61
:0235FE001E0E9F
:10360000F66E000EF76E000EF86E01010900F5501F
:10361000A86F0900F550A96F03E1A86701D03DD05C
:103620000900F550A36F0900F550A46F0900F5508B
:10363000A56F09000900F550E96E0900F550EA6E22
:10364000090009000900F550A66F0900F550A76FA1
:1036500009000900F6CFAAF1F7CFABF1F8CFACF132
:10366000A3C1F6FFA4C1F7FFA5C1F8FF0101A6534E
:1036700002E1A75307E00900F550EE6EA607F8E255
:10368000A707F9D7AAC1F6FFABC1F7FFACC1F8FF96
:0C3690000101A807000EA95BBFD71200C3
:04369C00010E926E1B
:1036A0000E0EC16EC26A040EC06EC2801200D9CF67
:1036B000E6FFE1CFD9FF020EE126DE6ADD6AC282B3
:1036C000C2B2FED7C450DE6EDD6ADECF12F0DDCFAF
:1036D00013F0D89012361336D89012361336060EE1
:1036E000C3CFE7FF070B04E0E742E79EE806FCE1F3
:1036F000E7501224106E000E132010C0DEFFDD6EA6
:10370000DECF61FFDDCF62FFDECF10F0DDCF11F045
:1037100010C0F3FF11C0F4FF020EE15C02E2E16AA7
:0C372000E552E16EE552E7CFD9FF120040
:04372C0006500B0236
:10373000F3CF02F0F4CF03F00C02F3500326000E97
:10374000F420046E06500D02F3500426000EF420FF
:10375000056E06500E02F350052607500B02F3507B
:103760000326F4500422000E052207500C02F350E9
:103770000426F450052207500D02F3500526085088
:103780000B02F3500426F450052208500C02F350AB
:0C379000052609500B02F350052612001C
:04379C00056A046A4C
:1037A000036A026A200EE76ED8900636073608369E
:1037B000093602360336043605360B50025C0C50CF
:1037C00003580D5004580E50055809E30B50025E83
:1037D0000C50035A0D50045A0E50055A062AE72E73
:0437E000E4D7120018
:0C37E400056A046A036A180EE76ED890AC
:1037F0000736083609360336043605360C50035CA6
:103800000D5004580E50055807E30C50035E0D5040
:0E381000045A0E50055A072AE72EEAD7120076
:02381E00CA944A
:10382000CA90CA829B0ECB6EBD98BD9ABE6ABD9CE3
:10383000BD9EBD90BD92BD84BD869494CA84120085
:10384000D9CFE6FFE1CFD9FFFE0EDB50BE6EE552C9
:06385000E7CFD9FF1200D2
:0A385600056A046A100EE76ED890B0
:1038600008360936043605360D50045C0E500558EE
:1038700005E30D50045E0E50055A082AE72EF0D7D6
:02388000120034
:0E388200800EF36E00EE00F00F0E01D8120063
:10389000EA6002D0EE6AFCD7F350E9601200EE6AEB
:0238A000FCD753
:0E38A2001EEE00F02EEE00F0F86A019CFFEC26
:0E38B0001AF003EC00F03BEC08F0FBD712001E
:0238BE00056A99
:1038C000080EE76ED890093605360E50055C02E307
:0A38D000056E092AE72EF7D7120053
:0638DA00000000000000E8
:1038E00000000000000000000000000000000000D8
:0A38F00000000100010001000100CA
:0638FA00000000000000C8
:0D39000000050500000000000000000000B0
:03390D00010204B0
:1039100008102040800000000000000000010203A9
:103920004104050642070809432A004544010203F1
:1039300004020708090303030304080608054142BB
:1039400043FF000000000102000304000000FF1913
:05395000031403000058
:0B3955000103070F0703010010181CFE
:103960001E1C18100000040E1F0E040000000408A6
:103970001F080400001E1E1E1E1E1E1E001F1F1FED
:103980001F1F1F1F000000000000000000000000BB
:103990000000000000000000000000000000000027
:1039A0000000000000000000000000000000000017
:0639B00000000000000011
:0A39B600000000D0002222220725A5
:1039C00009100001000000000000000000000000DD
:0139D00000F6
:0F39D100000000000000000000000000000000E7
:1039E00000000000000000000000000000000000D7
:0939F000001020408001020408CF
:020000040030CA
:0100010002FC
:0100020003FA
:010003001EDE
:010005008179
:010006008178
:010008000FE8
:01000900C036
:01000A000FE6
:01000B00E014
:01000C000FE4
:01000D0040B2
:00000001FF
